:020000040800F2
:1000000000000220D11D0008211E0008211E00084A
:10001000211E0008211E0008211E0008000000000B
:10002000000000000000000000000000211E000889
:10003000211E000800000000211E0008211E0008EB
:10004000211E0008211E0008211E0008211E000894
:10005000211E0008211E0008211E0008211E000884
:10006000211E0008211E0008211E0008211E000874
:10007000211E0008211E0008211E0008211E000864
:10008000211E0008211E0008211E0008211E000854
:10009000211E0008211E0008211E0008211E000844
:1000A000211E0008211E0008211E0008211E000834
:1000B000211E000821120008211E0008211E000830
:1000C000211E0008211E0008211E0008211E000814
:1000D000211E0008211E0008211E0008211E000804
:1000E00099120008211E0008211E0008211E000888
:1000F000211E0008211E0008211E0008211E0008E4
:10010000211E0008211E0008211E0008211E0008D3
:10011000211E0008211E0008211E0008211E0008C3
:10012000211E0008211E0008211E0008211E0008B3
:10013000211E0008211E0008211E0008211E0008A3
:10014000211E0008211E0008211E0008211E000893
:10015000211E0008211E0008211E0008211E000883
:10016000211E0008211E0008211E0008211E000873
:10017000211E0008211E0008211E0008211E000863
:08018000211E0008211E0008E9
:1001880010B5054C237833B9044B13B10448AFF3C9
:1001980000800123237010BD9C0000200000000097
:1001A800143C000808B5034B1BB103490348AFF3DF
:1001B800008008BD00000000A0000020143C0008DA
:1001C80081F0004102E000BF83F0004330B54FEA00
:1001D80041044FEA430594EA050F08BF90EA020F6D
:1001E8001FBF54EA000C55EA020C7FEA645C7FEA00
:1001F800655C00F0E2804FEA5454D4EB5555B8BF23
:100208006D420CDD2C4480EA020281EA030382EA93
:10021800000083EA010180EA020281EA0303362D25
:1002280088BF30BD11F0004F4FEA01314FF4801CF8
:100238004CEA113102D0404261EB410113F0004F0A
:100248004FEA03334CEA133302D0524263EB4303C1
:1002580094EA050F00F0A780A4F10104D5F1200E5F
:100268000DDB02FA0EFC22FA05F2801841F10001BA
:1002780003FA0EF2801843FA05F359410EE0A5F18E
:1002880020050EF1200E012A03FA0EFC28BF4CF0BF
:10029800020C43FA05F3C01851EBE37101F0004575
:1002A80007D54FF0000EDCF1000C7EEB00006EEB82
:1002B8000101B1F5801F1BD3B1F5001F0CD349080C
:1002C8005FEA30004FEA3C0C04F101044FEA445263
:1002D80012F5800F80F09A80BCF1004F08BF5FEAEA
:1002E800500C50F1000041EB045141EA050130BDCA
:1002F8005FEA4C0C404141EB010111F4801FA4F16D
:100308000104E9D191F0000F04BF01460020B1FAC1
:1003180081F308BF2033A3F10B03B3F120020CDAF9
:100328000C3208DD02F1140CC2F10C0201FA0CF0D7
:1003380021FA02F10CE002F11402D8BFC2F1200C3C
:1003480001FA02F120FA0CFCDCBF41EA0C019040F2
:10035800E41AA2BF01EB0451294330BD6FEA04043B
:100368001F3C1CDA0C340EDC04F11404C4F1200226
:1003780020FA04F001FA02F340EA030021FA04F338
:1003880045EA030130BDC4F10C04C4F1200220FA8F
:1003980002F001FA04F340EA0300294630BD21FACD
:1003A80004F0294630BD94F0000F83F4801306BF93
:1003B80081F480110134013D4EE77FEA645C18BF87
:1003C8007FEA655C29D094EA050F08BF90EA020F1E
:1003D80005D054EA000C04BF1946104630BD91EA16
:1003E800030F1EBF0021002030BD5FEA545C05D119
:1003F8004000494128BF41F0004130BD14F5800458
:100408003CBF01F5801130BD01F0004545F0FE41CB
:1004180041F470014FF0000030BD7FEA645C1ABF00
:10042800194610467FEA655C1CBF0B46024650EA37
:10043800013406BF52EA033591EA030F41F4002163
:1004480030BD00BF90F0000F04BF0021704730B5E9
:100458004FF4806404F132044FF000054FF00001BE
:1004680050E700BF90F0000F04BF0021704730B57F
:100478004FF4806404F1320410F0004548BF404254
:100488004FF000013EE700BF42004FEAE2014FEAA9
:1004980031014FEA02701FBF12F07F4393F07F4F84
:1004A80081F06051704792F0000F14BF93F07F4FB6
:1004B800704730B54FF4607401F0004521F00041F9
:1004C80020E700BF50EA010208BF704730B54FF07F
:1004D80000050AE050EA010208BF704730B511F084
:1004E800004502D5404261EB41014FF4806404F1BC
:1004F80032045FEA915C3FF4DCAE4FF003025FEA3E
:10050800DC0C18BF03325FEADC0C18BF033202EBC5
:10051800DC02C2F1200300FA03FC20FA02F001FA1F
:1005280003FE40EA0E0021FA02F11444C1E600BFBE
:1005380070B54FF0FF0C4CF4E06C1CEA11541DBF71
:100548001CEA135594EA0C0F95EA0C0F00F0DEF83C
:100558002C4481EA030621EA4C5123EA4C5350EA21
:10056800013518BF52EA033541F4801143F4801372
:1005780038D0A0FB02CE4FF00005E1FB02E506F003
:100588000042E0FB03E54FF00006E1FB03569CF058
:10059800000F18BF4EF0010EA4F1FF04B6F5007F5E
:1005A80064F5407404D25FEA4E0E6D4146EB0606D0
:1005B80042EAC62141EA55514FEAC52040EA5E5059
:1005C8004FEACE2EB4F1FD0C88BFBCF5E06F1ED803
:1005D800BEF1004F08BF5FEA500E50F1000041EB3A
:1005E800045170BD06F0004646EA010140EA0200E7
:1005F80081EA0301B4EB5C04C2BFD4EB0C0541EA09
:10060800045170BD41F480114FF0000E013C00F31D
:10061800AB8014F1360FDEBF002001F0004170BD41
:10062800C4F10004203C35DA0C341BDC04F114045A
:10063800C4F1200500FA05F320FA04F001FA05F2E6
:1006480040EA020001F0004221F0004110EBD370B3
:1006580021FA04F642EB06015EEA430E08BF20EADF
:10066800D37070BDC4F10C04C4F1200500FA04F382
:1006780020FA05F001FA04F240EA020001F0004114
:1006880010EBD37041F100015EEA430E08BF20EA87
:10069800D37070BDC4F1200500FA05F24EEA020ECF
:1006A80020FA04F301FA05F243EA020321FA04F0FE
:1006B80001F0004121FA04F220EA020000EBD370B5
:1006C8005EEA430E08BF20EAD37070BD94F0000FB5
:1006D8000FD101F00046400041EB010111F4801FE9
:1006E80008BF013CF7D041EA060195F0000F18BF9A
:1006F800704703F00046520043EB030313F4801FD6
:1007080008BF013DF7D043EA0603704794EA0C0F8F
:100718000CEA135518BF95EA0C0F0CD050EA4106A5
:1007280018BF52EA4306D1D181EA030101F0004122
:100738004FF0000070BD50EA410606BF104619464A
:1007480052EA430619D094EA0C0F02D150EA013656
:1007580013D195EA0C0F05D152EA03361CBF104697
:1007680019460AD181EA030101F0004141F0FE4136
:1007780041F470014FF0000070BD41F0FE4141F4BA
:10078800780170BD70B54FF0FF0C4CF4E06C1CEABA
:1007980011541DBF1CEA135594EA0C0F95EA0C0F6F
:1007A80000F0A7F8A4EB050481EA030E52EA03352A
:1007B8004FEA013100F088804FEA03334FF080554B
:1007C80045EA131343EA12634FEA022245EA111578
:1007D80045EA10654FEA00260EF000419D4208BF29
:1007E800964244F1FD0404F5407402D25B084FEAD6
:1007F8003202B61A65EB03055B084FEA32024FF482
:1008080080104FF4002CB6EB020E75EB030E22BFDE
:10081800B61A754640EA0C005B084FEA3202B6EB9E
:10082800020E75EB030E22BFB61A754640EA5C004D
:100838005B084FEA3202B6EB020E75EB030E22BFDD
:10084800B61A754640EA9C005B084FEA3202B6EBDE
:10085800020E75EB030E22BFB61A754640EADC009D
:1008680055EA060E18D04FEA051545EA16754FEAFF
:1008780006164FEAC30343EA52734FEAC2025FEA1D
:100888001C1CC0D111F4801F0BD141EA00014FF0AC
:1008980000004FF0004CB6E711F4801F04BF01437D
:1008A8000020B4F1FD0C88BFBCF5E06F3FF6AFAE99
:1008B800B5EB030C04BFB6EB020C5FEA500C50F129
:1008C800000041EB045170BD0EF0004E4EEA1131AC
:1008D80014EB5C04C2BFD4EB0C0541EA045170BDB3
:1008E80041F480114FF0000E013C90E645EA060EF7
:1008F8008DE60CEA135594EA0C0F08BF95EA0C0F25
:100908003FF43BAF94EA0C0F0AD150EA01347FF46C
:1009180034AF95EA0C0F7FF425AF104619462CE743
:1009280095EA0C0F06D152EA03353FF4FDAE1046A6
:10093800194622E750EA410618BF52EA43067FF4F7
:10094800C5AE50EA41047FF40DAF52EA43057FF487
:10095800EBAE12E74FF0FF3C06E000BF4FF0010C92
:1009680002E000BF4FF0010C4DF804CD4FEA410CF6
:100978007FEA6C5C4FEA430C18BF7FEA6C5C1BD0C3
:1009880001B050EA410C0CBF52EA430C91EA030F44
:1009980002BF90EA020F0020704710F1000F91EAA1
:1009A800030F58BF994208BF90422CBFD8176FEA6F
:1009B800E37040F0010070474FEA410C7FEA6C5C3D
:1009C80002D150EA013C07D14FEA430C7FEA6C5C44
:1009D800D6D152EA033CD3D05DF8040B704700BF70
:1009E8008446104662468C461946634600E000BFBE
:1009F80001B5FFF7B7FF002848BF10F1000F01BD90
:100A08004DF808EDFFF7F4FF0CBF012000205DF85A
:100A180008FB00BF4DF808EDFFF7EAFF34BF0120DF
:100A280000205DF808FB00BF4DF808EDFFF7E0FF78
:100A380094BF012000205DF808FB00BF4DF808EDC9
:100A4800FFF7CEFF94BF012000205DF808FB00BF30
:100A58004DF808EDFFF7C4FF34BF012000205DF812
:100A680008FB00BF4FEA410212F5001215D211D55A
:100A78006FF47873B3EB625212D94FEAC12343F093
:100A8800004343EA505311F0004F23FA02F018BF15
:100A9800404270474FF00000704750EA013005D1DE
:100AA80011F0004008BF6FF0004070474FF00000A1
:100AB800704700BF4FEA4102B2F1E04324BFB3F5EB
:100AC800001CDCF1FE5C0DD901F0004C4FEAC002BD
:100AD8004CEA5070B2F1004F40EB830008BF20F0A1
:100AE8000100704711F0804F21D113F13872BCBF5B
:100AF80001F00040704741F480114FEA5252C2F1B0
:100B08001802C2F1200C10FA0CF320FA02F018BFF8
:100B180040F001004FEAC1234FEAD32303FA0CFC4B
:100B280040EA0C0023FA02F34FEA4303CCE77FEADA
:100B3800625307D150EA01331EBF4FF0FE4040F424
:100B48004000704701F0004040F0FE4040F40000D3
:100B5800704700BF80B483B000AF0346FB710949FA
:100B680097F907305B0997F9072002F01F02012067
:100B780000FA02F241F8232000BF0C37BD465DF8A9
:100B8800047B704700E100E080B483B000AF034607
:100B98003960FB7197F90730002B0BDA0D49FB79A7
:100BA80003F00F03043B3A68D2B21201D2B20B44ED
:100BB8001A7609E0084997F907303A68D2B2120163
:100BC800D2B20B4483F8002300BF0C37BD465DF852
:100BD800047B704700ED00E000E100E080B483B0E2
:100BE80000AF00237B603F4A3E4B1B6C43F08053B1
:100BF80013643D4A3C4B1B6843F480431360394AF5
:100C0800384B1B6843F480331360364B1B6803F47E
:100C18000033002B0CBF01230023DBB2002B00D0D4
:100C2800F3E74FF480037B607B6843F004037B6049
:100C38007B6843F428537B602A4A7B685360294BBE
:100C48009B687B607B6843F4A0537B607B6843F4BC
:100C580020437B607B6843F002037B60214A7B680A
:100C68009360224A214B1B6843F0050313601D4A19
:100C78001C4B1B6843F0807313601A4B1B6803F00E
:100C88000073002B0CBF01230023DBB2002B00D024
:100C9800F3E7144B9B6803F00803002B0CBF0123F8
:100CA8000023DBB2002B00D0F3E7114B1B683B603D
:100CB8003B681B0C3B603B6841F2010293420CBF4E
:100CC80001230023DBB2002B05D0084A074B1B6821
:100CD80043F48073136000BF0C37BD465DF8047B96
:100CE800704700BF0038024000700040003C0240DE
:100CF800002004E080B400AF204A204B1B6B43F077
:100D0800010313631D4A1D4B1B6C43F0005313640E
:100D18001B4A1B4B1B6843F001031360184A184B0E
:100D28001B6843F002031360154A154B1B6843F018
:100D380004031360124A124B1B6843F03803136014
:100D48000F4A0F4B1B6843F4803313600C4A0C4B5B
:100D58001B6843F400331360094A094B1B6843F4CA
:100D680080231360064A064B1B6843F46013136024
:100D780000BFBD465DF8047B704700BF00380240E5
:100D88000074004080B500AF374A374B1B6B43F007
:100D980004031363354A354B1B6823F4405313602F
:100DA800324A324BDB6843F48053D3602E4A2E4BD1
:100DB8001B6B43F0020313632D4A2D4B1B6823F072
:100DC800407313602A4A2A4B1B6823F04063136060
:100DD800274A274BDB6843F00073D360244A244B2F
:100DE800DB6843F00063D3601F4A1F4B5B6C43F41E
:100DF800804353641F4A1F4B5B6943F001035361EF
:100E08001D4A1D4B9B6843F4805393601A4A1A4B42
:100E1800DB6843F48053D360174A174B1B6843F4CD
:100E280080531360134A134B5B6943F010035361FB
:100E3800114A114B9B6843F4005393600E4A0E4BC2
:100E4800DB6843F40053D3600B4A0B4B1B6843F435
:100E58000053136003212820FFF796FE2820FFF790
:100E680079FE00BF80BD00BF003802400008024084
:100E78000004024000380140003C014080B500AF4A
:100E8800194A194B1B6C43F002031364174A184B99
:100E98001B681849A1FB03139B0C9BB21385134BCA
:100EA8000122DA62114A114B9B899BB243F001037C
:100EB8009BB293811D20FFF74DFE06211D20FFF7F1
:100EC80063FE0A4A094B1B889BB243F001039BB29D
:100ED8001380064A054B9B8A9BB243F001039BB2E1
:100EE800938200BF80BD00BF00380240000400406C
:100EF80020000020D55204E980B400AF9D4A9D4BE4
:100F08001B6C43F0010313644FF080424FF08043A1
:100F18009B889BB243F040039BB293804FF0804381
:100F280013221A854FF080436322DA624FF0804320
:100F380031225A634FF080424FF080431B8C9BB2A2
:100F480043F001039BB213844FF080424FF080437B
:100F58001B8B9BB243F060039BB213834FF080421C
:100F68004FF080431B889BB243F001039BB2138070
:100F7800804A804B1B6B43F0010313637D4A7D4B12
:100F88001B6B43F0020313637A4A7A4B1B6B43F0E3
:100F980004031363774A774B5B6C43F40073536421
:100FA800754A754B1B6843F003031360724A724B12
:100FB8001B6843F00C031360704A704B1B6843F0C6
:100FC8000C0313606D4A6D4B1B6843F030031360CC
:100FD8006A4A6A4B1B6843F0C0031360684A684B4F
:100FE8001B6843F003031360654A654B1B6843F0B5
:100FF80030031360624A624B1B6843F4407313600A
:10100800604A604B5B6843F4807353605D4B4FF4F8
:10101800E002DA625B4A5B4B5B6B43F008035363A5
:10102800584A584B5B6B43F490735363554A554B7E
:101038005B6B43F480635363524A524B5B6B43F4DC
:10104800803353634F4A4F4B5B6B43F440135363F6
:101058004C4A4C4B5B6B43F0A0535363494A494B92
:101068001B6B43F00C031363464A464B1B6B43F45C
:10107800E0731363434A434B1B6943F040731361A6
:10108800404A404B1B6943F0C05313613D4A3D4BF6
:101098001B6943F0180313613A4A3A4B1B6943F042
:1010A800C0031361374A374B1B6943F4C0631361AC
:1010B800344A344BDB6843F00303D360314A314B85
:1010C800DB6843F0C003D3602E4A2E4BDB6843F441
:1010D8004053D3602B4A2B4B9B6843F48063936047
:1010E800284A284B9B6843F080539360254A254B38
:1010F8009B6843F0C0639360224A224B9B6843F489
:10110800807393601F4A1F4B9B6843F4007393607E
:10111800184A184B1B6B43F4800313631A4A1A4B83
:101128001B6823F0C0031360174A174B1B6843F46E
:1011380000331360144A144B1B6843F400631360B4
:10114800114A114B1B6843F4005313600E4A0E4BAF
:101158001B6823F4007313600B4A0B4B1B6843F4A2
:1011680080631360084A084B1B6843F4807313605C
:101178000CE000BF003802400004024000000240BA
:10118800000802400021014040640240144A144B08
:101198001B6823F0C0031360114A114B5B6843F0CE
:1011A800080353600E4B0F4A9A600D4B0E4ADA60E3
:1011B8000B4A0B4B1B6843F000731360084A084B3B
:1011C8001B6843F001031360084A084B9B6843F00F
:1011D8000103936000BFBD465DF8047B704700BF04
:1011E800406402404C210140B80000200021014029
:1011F80080B582B000AF87ED010AC7ED000AD7EDD0
:10120800000A97ED010A00F047FFF0EE407AB0EED1
:10121800670A0837BD4680BD80B400AF184B1B8AEB
:101228009BB203F00103002B14BF01230023DBB2A0
:10123800002B1FD0124A124B1B8A9BB223F00103CA
:101248009BB213820F4A0F4B5B6843F00103536054
:101258000C4A0C4B5B6843F0020353600A4B1B7843
:10126800002B04D0094B1B680133084A1360064B56
:1012780001221A7000BFBD465DF8047B704700BFAD
:101288000004004000740040C9000020E400002071
:1012980080B400AF154B1B6903F48053002B14BFB7
:1012A80001230023DBB2002B03D0114B02221A705A
:1012B80011E00E4B1B6903F40053002B14BF0123EC
:1012C8000023DBB2002B03D0094B01221A7002E085
:1012D800074B00221A70074A064B5B6943F44053D8
:1012E800536100BFBD465DF8047B704700040240AF
:1012F800C8000020003C014080B485B000AF786091
:1013080039603B68D3ED007AFDEEE77A17EE903A44
:101318009B007A6813441B68FB603B68D3ED007A36
:10132800FDEEE77A17EE903A01335A42C3F3090308
:10133800C2F3090258BF53429B007A6813441B68E2
:10134800BB6097ED027AD7ED037A37EE677A3B6890
:10135800D3ED006A3B68D3ED007AFDEEE77AF8EE4C
:10136800E77A76EEE77A27EE277AD7ED037A77EEF3
:10137800277AB0EE670A1437BD465DF8047B7047DC
:1013880080B586B000AFF86087ED020AC7ED010AA4
:1013980087ED001AD7ED027A9FED2C7A67EE877AEF
:1013A800FDEEE77A17EE903A9B00FA681344D3ED06
:1013B800007A9FED267A27EE877AD7ED017A67EED5
:1013C800277A234BC3ED007A97ED027AD7ED007A9E
:1013D80077EE277A9FED1D7A27EE877A1C4BD3ED9F
:1013E800007A77EE277AC7ED057AD7ED057A9FED73
:1013F800177AF4EEC77AF1EE10FA00DC08E0D7EDC0
:10140800057A9FED127A77EEC77AC7ED057AECE791
:10141800D7ED057AF5EEC07AF1EE10FA08D5D7EDDA
:10142800057A9FED0A7A77EE877AC7ED057AEFE7B6
:1014380007F1140319460748FFF75EFFF0EE407AFC
:10144800B0EE670A1837BD4680BD00BF0000804473
:10145800D0000020F400002080B58CB000AF87EDEC
:10146800050AC7ED040A87ED031AC7ED021AD7ED7E
:10147800057AFCEEE77AC7ED017A3B79DBB21A46CA
:101488005B4B53F82230FB62D7ED057AB7EE007A52
:1014980077EE877AFCEEE77AC7ED017A3B79DBB223
:1014A800544A1278B3FBF2F102FB01F29B1ADBB249
:1014B8001A464F4B53F82230BB62D7ED047A9FEDA2
:1014C8004E7A67EE877AFDEEE77A17EE903A9B0040
:1014D800FA6A1344D3ED007A9FED477A27EE877AAC
:1014E800D7ED037A67EE277AC7ED097AD7ED047A44
:1014F8009FED417A67EE877AFDEEE77A17EE903A2C
:101508009B00BA6A1344D3ED007A9FED3B7A27EE2D
:10151800877AD7ED037A67EE277AC7ED087AD7ED91
:10152800057AFCEEE77AC7ED017A3B79DBB207EE84
:10153800903AF8EEE77A97ED057A77EE677AC7ED95
:10154800077AB7EE007AD7ED077A37EE677AD7EDE4
:10155800097A27EE277AD7ED076AD7ED087A66EE7B
:10156800A77A77EE277A254BC3ED007A97ED047AB0
:10157800D7ED027A77EE277A9FED1F7A27EE877AE2
:101588001E4BD3ED007A77EE277AC7ED067AD7EDB2
:10159800067A9FED197AF4EEC77AF1EE10FA00DCBC
:1015A80008E0D7ED067A9FED147A77EEC77AC7ED93
:1015B800067AECE7D7ED067AF5EEC07AF1EE10FA86
:1015C80008D5D7ED067A9FED0C7A77EE877AC7EDC6
:1015D800067AEFE707F1180319460948FFF78CFE6A
:1015E800F0EE407AB0EE670A3037BD4680BD00BFE6
:1015F800080000201C00002000008044D0000020CB
:10160800F40000200000000090B589B000AF00236E
:10161800FB61FB69B3F5806F24DAFB6907EE903A4A
:10162800F8EEE77AB1EE007A27EE877ADFED8C6A7A
:10163800C7EE267AC7ED037AD7ED030AB0EE000AA3
:10164800FFF7D6FDB0EE407ADFED867A67EE277AAF
:10165800854AFB699B001344C3ED007AFB6901339B
:10166800FB61D6E70023BB61BB69B3F5806F32DA53
:10167800BB6907EE903AF8EEE77A77EEA77A17EEAD
:10168800900AFEF701FF72A3D3E90023FEF750FF8B
:1016980003460C46184621464FF00002734BFFF7ED
:1016A80071F803460C4644EC173BB0EE470AF0EEDF
:1016B800670A00F0A9FC54EC103B18462146FFF7D6
:1016C800F9F901466A4ABB699B0013441960BB6972
:1016D8000133BB61C8E700237B617B69B3F5806F89
:1016E8003ADA7B6907EE903AF8EEE77AB1EE007ADB
:1016F80027EE877ADFED5F6AC7EE267AC7ED027AB2
:101708007B69B3F5807F06DC5B4A7B699B001344E9
:10171800BA681A601CE07B69B3F5407F0CDCB0EE58
:10172800007AD7ED027A77EE677A534A7B699B0095
:101738001344C3ED007A0BE0D7ED027AB1EE007ADC
:1017480077EEC77A4C4A7B699B001344C3ED007A55
:101758007B6901337B61C0E700233B613B69B3F5DB
:10176800806F6FDA3B6907EE903AF8EEE77A17EE8A
:10177800900AFEF789FE38A3D3E90023FEF7D8FEC6
:1017880003460C46184621464FF00002374BFEF739
:10179800F9FF03460C4644EC173BB0EE470AF0EE5F
:1017A800670A00F0EDFB54EC103B18462146FFF7A2
:1017B80081F903467B603B69B3F5807F0EDCD7ED8A
:1017C800017AB7EE007A77EEC77AF1EE677A2B4A9C
:1017D8003B699B001344C3ED007A2FE03B69B3F5E6
:1017E800007F0CDCD7ED017AB7EE007A77EE877AC6
:1017F800224A3B699B001344C3ED007A1EE03B6913
:10180800B3F5407F0EDCD7ED017AB7EE007A77EEBC
:10181800877AF1EE677A194A3B699B001344C3ED56
:10182800007A0BE0D7ED017AB7EE007A77EEC77A47
:10183800124A3B699B001344C3ED007A3B690133AC
:101848003B618BE700BF2437BD4690BDAFF30080F6
:10185800182D4454FB210940182D4454FB211940EC
:1018680000C011C400B00F45F430002000009040C3
:10187800F400002000008044F4100020F420002030
:1018880080B586B000AF00F0C9FAFFF7A7F900F0FD
:10189800FBFAFFF7B9FEFFF775FAFFF72BFAFFF728
:1018A800EDFAFFF729FB4FF000037B614FF00003CF
:1018B8003B61FFF7EDFCB44B1B889BB207EE903AF7
:1018C800F8EEE77AB6EE007A27EE877AAF4B1B88F8
:1018D8009BB207EE903AF8EEE77AF6EE006A67EE0A
:1018E800A67A77EE277AFCEEE77AC7ED017ABB880D
:1018F8009AB2A54B1A80A64B1B889BB207EE903A6A
:10190800B8EE677AA34B1B78013B07EE903AF8EEE6
:10191800E77A27EE277ADFEDA06AC7EE267A9F4B93
:10192800C3ED007A9E4B1B889BB21A46994B1B78D5
:1019380003FB02F3002B01DA03F6FF731B13DAB281
:10194800984B1A70984B1B78002B00F00682974B27
:101958001B889BB2C3F56D63083307EE903AB8EE67
:10196800E77ADFED936AC7EE267A924BC3ED007AE9
:10197800914B1B889BB2C3F5805307EE903AB8EEA3
:10198800E77ADFED8B6AC7EE267A8C4BC3ED007AD7
:101998008B4B1B889BB21A4640F6E6739A42CCBF23
:1019A80001230023DBB2002B04D0864B4FF000024A
:1019B8001A6011E0824B1B889BB207EE903AF8EE52
:1019C800E77A9FED757A37EE677ADFED736AC7EECF
:1019D800267A7C4BC3ED007A704BD3ED006A7A4BC4
:1019E800D3ED007A9FED797A87EE876A714BD3ED54
:1019F800007ADFED771AB0EE671AF0EE460AB0EE1D
:101A0800660AFFF729FD87ED030A664B1B78DBB2F0
:101A18001A46704B53F822206F4BD3ED007A9FED96
:101A28006B7AC7EE876A654BD3ED007A9FED681A2B
:101A3800F0EE670AB0EE660A1046FFF7A1FC87EDE4
:101A4800020A664B1B78002B19D0654B97ED037A79
:101A5800D7ED027A27EE277A5A4AD2ED007A67EE56
:101A6800277AB7EE007A77EE877A9FED5E7A67EE8F
:101A7800877AFDEEE77A17EE902A9A6014E0584BC1
:101A8800504A92ED007AD7ED037A67EE277AB7EEDF
:101A9800007A77EE877A9FED537A67EE877AFDEEC4
:101AA800E77A17EE902A9A604D4B464A92ED007AF3
:101AB800D7ED027A67EE277AB7EE007A77EE877A63
:101AC8009FED487A67EE877AFDEEE77A17EE902A5F
:101AD8005A61354B00221A70FB687B61BB683B6119
:101AE800414B1B881BB21A4613461B019B1A3F4ADF
:101AF800128892B21344002B00DA0F331B111AB26A
:101B0800394B1A80204B1B889BB21A46364B1B88D0
:101B18001BB2C3F50063002B00DA1F335B111344BB
:101B2800002B00DA03339B10314A9B0013441B68D7
:101B3800304A1360304B1B881BB21A4613461B01F0
:101B48009B1A2E4A128892B21344002B00DA0F33E4
:101B58001B111AB2284B1A80274B1B881BB240F660
:101B680054529342CCBF01230023DBB2002B47D051
:101B7800204BD3ED007AB1EE007A67EE877A1D4BE1
:101B8800C3ED007A7EE000BFCC000020B800002042
:101B9800BC0000201C00002000008045E800002058
:101BA800BE000020EC000020C9000020C400002076
:101BB80000004844DC000020C0000020E0000020B5
:101BC800C2000020F0000020D400002000A08C47B4
:101BD8000000000008000020D8000020CA000020F3
:101BE8000074004000E0FF44F4400020BA000020E8
:101BF800F430002000000020F6400020C60000203D
:101C0800674B1B881BB240F6A8229342CCBF012326
:101C18000023DBB2002B08D0624BD3ED007A77EEBD
:101C2800A77A604BC3ED007A2CE05D4B1B881BB292
:101C380040F2A9229342D4BF01230023DBB2002B38
:101C48000AD0584B93ED007AF1EE006AC7EE267A77
:101C5800544BC3ED007A15E0514B1B881BB240F280
:101C680053529342D4BF01230023DBB2002B09D087
:101C78004C4B93ED007AF0EE006AC7EE267A494B9A
:101C8800C3ED007A484B1B78012B08D0022B11D0EA
:101C9800002B18D1434B1B68444A136013E0414B97
:101CA80093ED007AF0EE006AC7EE267A3F4BC3ED5B
:101CB800007A08E03B4BD3ED007A77EEA77A3B4BEE
:101CC800C3ED007A00BF374BD3ED007A384B93ED64
:101CD800007A77EE277A364BC3ED007A344BD3ED92
:101CE800007A9FED347AF4EEC77AF1EE10FAACBFC1
:101CF80001230023DBB2002B0AD02D4BD3ED007A51
:101D08009FED2C7A77EEC77A294BC3ED007AE5E789
:101D1800264BD3ED007A284B93ED007A77EE277A9D
:101D2800254BC3ED007A244BD3ED007A9FED217A41
:101D3800F4EEC77AF1EE10FAACBF01230023DBB250
:101D4800002B0AD01C4BD3ED007A9FED1A7A77EE60
:101D5800C77A194BC3ED007AE5E7184B1B6903F006
:101D68004003002B0CBF01230023DBB2002B12D051
:101D7800134B1B7883F00103DBB2002B3FF49BADC0
:101D8800104B1B7883F00103DAB20E4B1A700C4B20
:101D980001221A708FE50A4B00221A708BE500BFEA
:101DA800F640002000000020C800002004000020A9
:101DB800D400002000A08C47D80000200008024072
:101DC800CB000020CA000020DFF834D0002103E057
:101DD8000C4B5B58435004310B480C4B42189A4249
:101DE800F6D30B4A02E0002342F8043B094B9A421F
:101DF800F9D300F013F801F0E5FEFFF741FD704755
:101E080000000220408E0008000000209C000020F6
:101E18009C000020F8400020FEE7000080B400AFDE
:101E2800164A164BD3F8883043F47003C2F888304A
:101E3800134A134B1B6843F001031360104B002235
:101E48009A600F4A0E4B1B6823F0847323F4803387
:101E580013600B4B0B4A5A60094A094B1B6823F461
:101E680080231360064B0022DA60044B4FF00062B7
:101E78009A6000BFBD465DF8047B704700ED00E046
:101E8800003802401030002480B487B000AF00232F
:101E98003B6100237B610223FB600023BB600223BC
:101EA8007B60324B9B6803F00C033B613B69042B5E
:101EB80007D0082B09D0002B3DD12D4B2D4A1A6095
:101EC8003DE02B4B2C4A1A6039E0284B5B689B0D90
:101ED80003F00103BB60254B5B6803F03F037B60A5
:101EE800BB68002B0CD0244A7B68B2FBF3F31F4A73
:101EF80052689209C2F3080202FB03F37B610BE00C
:101F08001C4A7B68B2FBF3F3184A52689209C2F381
:101F1800080202FB03F37B61144B5B681B0C03F0A4
:101F2800030301335B00FB607A69FB68B2FBF3F3E0
:101F38000F4A136003E00E4B0E4A1A6000BF0B4BAA
:101F48009B681B0903F00F030C4AD35CDBB23B61AF
:101F5800074B1A683B6922FA03F3054A136000BF6E
:101F68001C37BD465DF8047B704700BF003802404F
:101F7800200000200024F40000127A002400002031
:101F88001FB551EC100B1E4A21F00043934206DCAA
:101F98009FED191B00F0F8FE51EC100B07E0194AF1
:101FA800934209DD10EE102A0B46FEF70DF941ECBD
:101FB800100B05B05DF804FB684600F0E9F900F085
:101FC800030001289DED021B9DED000B07D00228A0
:101FD8000ED00028DED0012001F00EFBDCE701F076
:101FE8000BFB53EC102B10EE100A03F10041DEE757
:101FF80000F0CAFEF5E700BF000000000000000086
:10200800FB21E93FFFFFEF7F1FB551EC100B204A82
:1020180021F00043934207DC9FED1B1B002001F0D9
:10202800EBFA51EC100B07E01A4A934209DD10EE67
:10203800102A0B46FEF7C8F841EC100B05B05DF806
:1020480004FB684600F0A4F900F0030001289DEDA8
:10205800021B9DED000B04D0022805D070B90120A9
:10206800DDE700F091FEDCE7012001F0C5FA53EC52
:10207800102B10EE100A03F10041DDE700F084FE9A
:10208800F5E700BFAFF3008000000000000000008B
:10209800FB21E93FFFFFEF7F70B52DED048BB54CB9
:1020A8008AB0F0EE408AB0EE608A00F063FB94F9E3
:1020B80000506B1CB0EE409A26465DD0B4EE488ABC
:1020C800F1EE10FA58D6F4EE688AF1EE10FA21D73C
:1020D800B5EE408AF1EE10FA4ED101230093A64BDB
:1020E800019318EE900A00230893FEF7CDF9CDE985
:1020F800020118EE100AFEF7C7F9A04B0022022DC4
:10210800CDE90401CDE9062330D0684601F0BCFBD7
:1021180030BB62E0F5EE408AF1EE10FA62D1B5EE1E
:10212800408AF1EE10FA2DD101230093924B0193CE
:1021380018EE900A00230893FEF7A6F9CDE90201EC
:1021480018EE100AFEF7A0F900220023CDE90401D9
:10215800CDE90623002DD8D0884B0022CDE90623EF
:10216800089B1BB101F028FD089B0360DDE906010F
:10217800FEF7A0FC09EE100AB0EE490A0AB0BDEC61
:10218800048B70BDB0EE480A01F08BFC0028F3D038
:10219800B5EEC08AF1EE10FAEED501230093764B26
:1021A800019318EE900A00230893FEF76DF9CDE924
:1021B800020118EE100AFEF767F994F90030CDE92C
:1021C800040123B900220023CDE906239DE76C49C9
:1021D8000020CDE90601022B97D101F0EDFC212367
:1021E8000360BDE701F05DFC0546002840F09180E2
:1021F800B0EE680A01F055FC002800F08A80B0EEC5
:10220800480A01F04EFC002800F08380B4EE499A99
:10221800F1EE10FA94F90040574B1BD7012218EE43
:10222800900A8DE80C000895FEF72EF9CDE9020119
:1022380018EE100AFEF728F90022CDE90401002360
:10224800002CC1D010461946FEF79CFA022CCDE9A5
:102258000601C1E7032218EE900A8DE80C000895E4
:10226800FEF712F9CDE9020118EE100AFEF70CF993
:10227800CDE904015CBB434BF5EEC08A4FF06042E8
:10228800F1EE10FACDE906236CD5F6EE007A68EE89
:10229800277A17EE900AFEF7F7F804460D4645EC44
:1022A800104B01F0F3FA204653EC102B2946FEF7A9
:1022B800A7FB20B9344B4FF06042CDE9062396F9CD
:1022C8000030022B4ED101F077FC222388E72F4BF8
:1022D800F5EEC08A0022F1EE10FACDE90623EED51C
:1022E800F6EE007A68EE277A17EE900AFEF7CCF839
:1022F80004460D4645EC104B01F0C8FA204653EC55
:10230800102B2946FEF77CFB0028D8D100221C4B55
:10231800D3E7B5EE409AF1EE10FA7FF42DAFB0EEA8
:10232800680A01F0BEFB00283FF426AFB0EE480A69
:1023380001F0B7FB00283FF41FAF042300930E4BB6
:10234800019318EE900A00230893FEF79DF8CDE953
:10235800020118EE100AFEF797F80022CDE90401F1
:102368000023AAE7684601F08FFA00287FF4F8AE48
:10237800A9E700BF34000020308C00080000F03FBF
:102388000000F0FFFFFFEF47FFFFEFC70000F07FFF
:102398002DE9F04F57EC106BC34B8DB027F0004878
:1023A80098450446049707DC0022002384ED000BBF
:1023B800C0E90223002527E0BC4B984575DC049B47
:1023C800BB4D002B10EE100AA9A3D3E90023394610
:1023D80036DDFDF7F9FEA84506460F4618D0A6A338
:1023E800D3E90023FDF7F0FE02460B46C4E90023BB
:1023F80030463946FDF7E8FE9FA3D3E90023FDF7F1
:10240800E3FEC4E90201012528460DB0BDE8F08FBE
:102418009BA3D3E90023FDF7D7FE9BA3D3E90023B1
:1024280006460F46FDF7D0FE02460B46C4E90023D8
:1024380030463946FDF7C8FE93A3D3E90023DEE70B
:10244800FDF7C4FEA84506460F4616D08AA3D3E971
:102458000023FDF7BBFE02460B46C4E900233046C5
:102468003946FDF7B1FE84A3D3E90023FDF7AEFE9C
:102478004FF0FF35C4E90201C6E781A3D3E9002381
:10248800FDF7A4FE80A3D3E9002306460F46FDF717
:102498009DFE02460B46C4E9002330463946FDF747
:1024A80093FE79A3D3E90023E0E7824B984500F334
:1024B800D08001F05BF957EC106B10EE100A74A392
:1024C800D3E900233946FEF733F800227A4BFDF7AB
:1024D8007DFEFEF7C7FA0546FDF7C4FF64A3D3E9FE
:1024E8000023CDE90201FEF723F802460B463046E9
:1024F8003946FDF769FE60A3D3E9002382468B467F
:10250800DDE90201FEF714F81F2D06460F462ADC06
:102518006A1E6A4B53F82230984524D032463B460F
:1025280050465946FDF750FEC4E90001D4E9008938
:10253800504642464B465946FDF746FE3B46324614
:10254800FDF742FE049B002BC4E90201BFF65CAF15
:1025580009F100436360C4F80080A06001F1004302
:10256800E3606D4250E732463B4650465946FDF718
:102578002BFE4FEA2852C1F30A53D31A102BC4E991
:1025880000010592D2DD3EA3D3E90023DDE9020173
:10259800FDF7CEFF06460F4602460B465046594603
:1025A800FDF712FE02460B468046894650465946BC
:1025B800FDF70AFE32463B46FDF706FE32A3D3E995
:1025C800002306460F46DDE90201FDF7B1FF32465A
:1025D8003B46FDF7F9FD02460B4606460F464046C8
:1025E8004946FDF7F1FD059AC1F30A53D31A312B79
:1025F800C4E900012ADD28A3D3E90023DDE90201AB
:10260800FDF796FF06460F4602460B4640464946EA
:10261800FDF7DAFD02460B4682468B4640464946A0
:10262800FDF7D2FD32463B46FDF7CEFD1CA3D3E9AC
:10263800002306460F46DDE90201FDF779FF324621
:102648003B46FDF7C1FD06460F4667E7C246CB4647
:102658006CE71B4B984535DD10EE102A3B4630469B
:102668003946FDF7B1FDC4E90201C4E90001A1E65C
:1026780000004054FB21F93F3163621A61B4D03D38
:102688000000601A61B4D03D7370032E8A19A33B11
:1026980083C8C96D305FE43F0000002E8A19A33B50
:1026A800C14920259A837B39FB21E93F7BD9024028
:1026B800FB21F93FFB2139410000E03F388C00083D
:1026C800FFFFEF7F4FEA2855A5F21645A8EB055105
:1026D80030460F46FEF7C6F9FDF7C4FE02460B4624
:1026E80030463946CDE90623FDF76EFD00221F4B23
:1026F800FDF71EFF0F460646FEF7B4F9FDF7B2FEDA
:1027080002460B4630463946CDE90823FDF75CFD05
:102718000022164BFDF70CFFCDE90A010DF1300937
:102728004FF003080026002732463B4679E90201AC
:1027380008F1FF3AFEF764F9B0B90D4B0193022393
:1027480000932A464346214606A800F005FC049B50
:10275800002B0546BFF658AE636803F1004363607B
:10276800E36803F10043FBE6D046DDE70000704173
:10277800B88C00082DE9F04110EE905A35F000476A
:102788002DED028BB0EE408AF0EE608A00F0958263
:1027980010EE108A28F00044B4F1FF4F06DCB7F1C0
:1027A800FF4F0ADDB4F17E5F00F08782BDEC028B3B
:1027B800D948BDE8F04101F07FB9B8F1000F1DDA42
:1027C800B7F1974F2CDAB7F17E5F30DBFB15C3F119
:1027D800960347FA03F606FA03F39F4227D106F059
:1027E8000106C6F10206B7F17E5F22D1002D80F204
:1027F8006A82F7EE007A87EE880A0DE00026B7F1C4
:10280800FF4FF0D1B4F17E5F00F057820ADD002D52
:1028180080F256829FEDC10ABDEC028BBDE8F081C3
:102828000226ECE7002DF5DAB1EE680AF4E7002697
:10283800D9E7B5F1804F02D128EE080AECE7B5F1E7
:102848007C5FB0EE480A08D1B8F1000F05DBBDEC9B
:10285800028BBDE8F04100F04FBA01F01BF924B13A
:1028680028F04043B3F17E5F17D1002DBCBFF7EECF
:10287800007A87EE800AB8F1000FCDDAA4F17E5411
:1028880054EA060304D170EE407A87EEA70AC3E73C
:10289800012EC1D1B1EE400ABEE74FEAD870013827
:1028A80056EA000304D138EE488A88EE080AB3E7EE
:1028B800B7F19A4F6DDD9A4B9C4206DC002DA9DAE0
:1028C8009FED980A20EE000AA6E7974B9C4202DD8E
:1028D800002DF5DC9EE7F7EE007A30EE670A9FEDF3
:1028E800937A9FED936AF1EE406AF5EE007AA6EED0
:1028F800A77AF6EE007AE6EE877A20EE007A27EEDF
:10290800877ADFED8C7A67EEC77A9FED8B7AE0EEF7
:10291800077AB0EE677AA0EE067A17EE103A23F43B
:102928007F6323F00F0307EE103AA6EE867A77EE60
:10293800C77A25F47F6525F00F0507EE105A67EE74
:10294800A87A78EEC78A07EE103A06EE905AE7EEB4
:10295800287A013E56EA000227EE267ABFEE000AE0
:1029680077EE876AB7EE008A16EE904A08BFB0EE97
:10297800408A002C24F0004340F38681B3F1864F4F
:1029880040F3FC80DFED677A28EE270A20EE270A5D
:1029980042E7B4F5000FBFBFDFED687A60EE277A33
:1029A8006FF0170217EE904A4FEAE453A8BF0022CF
:1029B8007F3B1344624AC4F31604944244F07E51A8
:1029C80006DD604A944240F3A5800133A1F5000179
:1029D80000245D4AA7003A4407EE901A92ED007A67
:1029E8005A4A77EE876AF7EE005A85EEA65A4910DA
:1029F80041F0005101F5802101EB445137EEC76ADF
:102A080006EE901A66EE054A14EE90EA02EA0E0EF9
:102A180005EE90EAB1EE654AA4EE266A76EEC76A3C
:102A280035EEA47A77EEE66ADFED497AA4EE266AF7
:102A380066EE056A24EEA46A9FED465AE6EE057A2C
:102A48009FED455AA6EE275ADFED387AE6EE057A6D
:102A58009FED425AA6EE275ADFED417AE6EE057A57
:102A680066EE063AB0EE085A27EE267AB0EE456AC8
:102A7800A3EEA77AA5EEA56A36EE076A16EE101A37
:102A8800114006EE101A76EE457A9FED365AE4EEBE
:102A9800257A77EE677A67EEA47AE6EE267AB0EEC4
:102AA800677AA5EE867A17EE101A114007EE101A0B
:102AB800A4EE067A05EE901A77EEC77A9FED2A7A89
:102AC8002A4967EE877A9FED2A7AE5EE877A3944B4
:102AD80091ED007A37EE877A07EE903AB0EE476AC2
:102AE800244BA5EE856A3B44D3ED004AF8EEE76A2D
:102AF80036EE246A76EE267A17EE903A134007EE01
:102B0800903A77EEE67A77EEE47AE5EEC57A77EEF4
:102B1800677A0EE701245CE7348C000800000000A7
:102B2800F7FF7F3FCAF249710700803FABAAAA3E70
:102B380000AAB83F3BAAB83F70A5EC360000804B0E
:102B480071C41C00D6B35D00C08D000800F0FFFF03
:102B580055326C3E42F1533E05A38B3EB76DDB3ECA
:102B68009A99193F0038763F4F38763FD08D000844
:102B7800A0C39D36C88D00083CAA383340F0948025
:102B88001FED036A76EEC76A37EE866AB4EEE66A28
:102B9800F1EE10FA3FF7F6AEDB15A3F17E004FF425
:102BA800000303412344C3F3C75248497F3A114104
:102BB80023EA0101C3F3160006EE901A40F4000060
:102BC800C2F117021041002C37EE667AB8BF4042B6
:102BD80077EE276A9FED3E6A16EE903A23F47F63FC
:102BE80023F00F0306EE903A36EEC77A77EEC77AEF
:102BF8009FED387A26EE877AA7EE867AF0EE477A46
:102C08009FED357AB0EE670AA6EE870AB0EE406A05
:102C1800A6EEC76A20EE007A77EEC67ADFED2F6A55
:102C28009FED2F6AA7EE266ADFED2E6AE7EE066AA9
:102C38009FED2D6AA7EE266ADFED2C6AE7EE066A9D
:102C4800B0EE406AA7EE666AF0EE006AB0EE467A29
:102C580077EE666A20EE066AE0EE277A86EE267A36
:102C680077EE677A37EEC00AF7EE007A37EEC00AD9
:102C780010EE103A03EBC053B3F5000F1ADA00F068
:102C880021FF20EE080AC7E5194A934202DDDFED6D
:102C9800197A79E608D176EEC76AF4EEE67AF1EEAB
:102CA80010FA3FF679AFF2E7B3F17C5F3FF774AF04
:102CB80000208DE700EE103AE3E7B7EE000AABE537
:102CC800B0EE680AA8E5B0EE480AA5E5FFFF7F0068
:102CD8001872313F8CBEBF350072313F4CBB313367
:102CE8000EEADDB555B38A38610B36BBABAA2A3E6E
:102CF800000016436042A20D10EE102A22F0004197
:102D0800B1F1FF4F70B502D3A0EE000A70BDB1B3A8
:102D1800002A04DA70EE407A87EEA70A70BDB1F592
:102D2800000F4FEAE25304D20021100228D50139DE
:102D38005B1A7F3BC2F31602D90742F4000248BF70
:102D4800520059100023520019241E464FF080707B
:102D580035189542DEBF2E18521B1B18013C4FEA4E
:102D680042024FEA5000F3D112B1013323F00103BC
:102D78005B1003F17C5303EBC15300EE103A70BDB6
:102D880052000131D1E700002DE9F04F59EC108BCA
:102D980029F0004785B0B7F1795F8DED001B07DAA0
:102DA80010EE100A4946FDF75DFE002800F0AA80E3
:102DB80042464B4640464946FDF7BAFB59A3D3E97C
:102DC800002304460D46FDF7B3FB58A3D3E90023BF
:102DD800FDF7FCF922462B46FDF7AAFB55A3D3E9DC
:102DE8000023FDF7F1F922462B46FDF7A1FB53A37B
:102DF800D3E90023FDF7EAF922462B46FDF798FBB5
:102E080050A3D3E90023FDF7DFF922462B46FDF74F
:102E18008FFB4EA3D3E90023FDF7D8F92B462246B2
:102E2800FDF786FB3A4B9F4282468B462CDC0022FC
:102E3800384B20462946FDF77BFB524606460F468F
:102E48005B4620462946FDF773FBDDE9002304466F
:102E58000D4640464946FDF76BFB02460B462046A9
:102E68002946FDF7B1F902460B4630463946FDF7CB
:102E7800ABF90B46284902460020FDF7A5F941ECBD
:102E8800100B05B0BDE8F08F244B23499F42D7BFF4
:102E9800A7F50013224F00221646D4BF1F4600266E
:102EA80032463B460020FDF78FF90022CDE90201AA
:102EB800184B20462946FDF73BFB32463B46FDF7BB
:102EC80083F9524606460F465B4620462946FDF7DB
:102ED8002FFBDDE9002304460D4640464946FDF731
:102EE80027FB02460B4620462946FDF76DF90246A8
:102EF8000B4630463946FDF767F902460B46DDE9D1
:102F08000201BAE700200449B9E700BFAFF3008027
:102F18003233D33F0000E03F0000F03F0000E93FBC
:102F28000000D23FD43888BEE9FAA8BDC4B1B4BD08
:102F38009EEE213EAD529C804F7E923E9015CB195D
:102F4800A001FA3E7751C1166CC1563F4C555555F4
:102F58005555A53F000000002DE9F04F2DED028BDF
:102F6800ADF5197DD41E06930291C34BA49909901F
:102F780053F821300093069B013B0493182394FBDC
:102F8800F3F46FF0170324EAE47404FB033303EB50
:102F9800020A009B049A9FEDB48B03EB0208A59BE1
:102FA800A71A20AE03EB87090025454513DD9FEDE1
:102FB800AE8B0DF5E07B0026009B9E4232DC099B20
:102FC8000393069B9D1920AB03EBC503089359ECAB
:102FD800188B00271FE0EF4207D459F82500FDF7AA
:102FE80041FAE6E802010135DFE751EC180BF8E792
:102FF8000899039D71E902230891F5E802010395F8
:10300800FDF796FA02460B4640464946FDF7DEF8BC
:10301800013780468946049B9F42E9DDEBE8028937
:103028000136C9E7009B009F0CAA02EB83030B93B0
:10303800A59B03EB84030A9398AB07F1005B03EBB2
:10304800C7030BF1FF3B53E928894FEACB030893E9
:10305800089A98AB1344A3F1980B0026BB1B002BCE
:1030680077DC49EC108B504600F09AFC55EC104B7D
:1030780000224FF07F5310EE100A2946FDF758FA48
:1030880041EC100B00F07CFB002251EC100B7B4B49
:10309800FDF74EFA02460B4620462946FDF794F8FE
:1030A8000D460446FDF7DEFC0390FDF7DBF902460A
:1030B8000B4620462946FDF787F8BAF1000F8046EF
:1030C80089466BDD7A1E0CABCAF1180153F8220051
:1030D800039C40FA01F31C448B40C01A0CAB0394C8
:1030E80043F82200CAF1170340FA03FBBBF1000FB3
:1030F80062DD039B00220133039314466FF07F4186
:10310800974200F38980BAF1000F07DDBAF1010F89
:1031180000F09680BAF1020F00F09C80BBF1020F1C
:103128004AD142464B4600205549FDF74DF88046A6
:103138008946002C40D050469FED4D0B00F030FCE6
:103148004046494653EC102BFDF73EF88046894629
:1031580032E000224B4B40464946FDF7E9F9FDF7BE
:1031680081FCFDF77FF90022474B04460D46FDF729
:10317800DFF902460B4640464946FDF725F8FDF7BC
:1031880071FC0CAB294643F826007BE90223204654
:10319800FDF71CF80136804689465FE706D17B1E9D
:1031A8000CAA52F823004FEAE05B9FE70022374B56
:1031B800FDF744FC68BB834600220023404649468D
:1031C800FDF71EFC002800F0C1807C1E234600226B
:1031D80000998B425CDA002A40F08B8001246FF062
:1031E800030202FB04F30B99CB58002B56D0089B23
:1031F80098AA1344A3F1900B069BDD1920AB03EBAF
:10320800C505E3197E1C0393039B9E4248DD1F46B8
:1032180012E74FF0020B6CE70CAB53F822304CB9B5
:103228002BB10CA8C3F1807340F82230012301327E
:103238001C4665E70CA8CB1A40F822302346F6E76F
:103248007A1E0CAB53F82230C3F316030CA941F8CD
:10325800223063E77A1E0CAB53F82230C3F3150310
:10326800F4E700BFAFF3008000000000000000009A
:10327800000000000000F03F188E00080000204009
:103288000000F03F0000703E000070410000E03F89
:103298000CA951F82310013B0A4399E70134A0E730
:1032A8000A9B53F82600FDF7DDF8E5E80201099BC3
:1032B80008951C4600274FF000084FF00009049BB2
:1032C8009F4203DDEBE8028901369DE7089971E921
:1032D80002230891F4E80201FDF72AF902460B4699
:1032E80040464946FCF772FF013780468946E6E7C3
:1032F800013C0CABAAF1180A53F82430002BF7D084
:1033080050469FEDB50B00F04BFBE50098AB03EB87
:10331800050957EC106BA9F19809A046B8F1000F00
:103328004DDA9FEDAF8B0DF5907A00230493574645
:10333800049BB4EB030976D4AB4B1E4670AB03EB8E
:10334800C9098DED068B4FF000085EE0CAF1000058
:1033580049EC108B00F024FB55EC104B0022A34BDA
:1033680010EE100A2946FDF769FBF8B10022A04BC0
:1033780020462946FDF7DCF8FDF774FB0646FDF705
:1033880071F80022994BFDF7D3F80B4602462946FF
:103398002046FCF719FFFDF765FB7C1C0CAB0AF116
:1033A800180A43F8270043F82460A9E7204629466D
:1033B800FDF758FB0CAB3C4643F82700A0E70CABE5
:1033C80053F82800FDF74EF832463B46FDF7B0F8B3
:1033D800002269E90201864B30463946FDF7A8F814
:1033E80008F1FF3806460F4698E7F9E80223F6E8A1
:1033F8000201FDF79DF802460B46DDE90601FCF7E0
:10340800E5FECDE9060108F10108009B984502DCBC
:10341800049B9845E9DD049B9DED067B0133AAECEE
:10342800027B049384E7A49B032B5DD8DFE803F0B9
:103438004B26260298AB1D44A5F59C752E46A24640
:10344800BAF1000F6EDC2E46A246BAF1010F00F366
:103458008A8000200021012C00F3A680BBF1000F18
:1034680040F0A880DDE94823029CC4E90023DDE997
:103478004A23C4E90401C4E9022335E0083548AB0E
:103488001D44264600200021002E3CDABBF1000F27
:103498003FD0024601F10043029DC5E900230246E0
:1034A8000B46DDE94801FCF78FFE4AAE0125AC4228
:1034B80032DABBF1000F02D001F100431946029B3A
:1034C800C3E9020110E098AB1D44A5F59C750020E6
:1034D8000021002C11DABBF1000F02D001F10043EA
:1034E8001946029BC3E90001039B03F007000DF591
:1034F800197DBDEC028BBDE8F08F75E90223FCF75E
:1035080065FE013CE5E775E90223FCF75FFE013E35
:10351800BAE702460B46BFE7F6E80223FCF756FE79
:103528000135C4E716ED027B56E9048953EC172BE5
:10353800404649468DED007BFCF748FECDE9040185
:1035480002460B4640464946FCF73EFEDDE90023AD
:10355800FCF73CFE9DED047B66E902010AF1FF3AA7
:1035680006ED027B6CE716ED027B56E9048953EC05
:10357800172B404649468DED007BFCF727FECDE929
:10358800040102460B4640464946FCF71DFEDDE9AC
:103598000023FCF71BFE9DED047B66E902010AF19E
:1035A800FF3A06ED027B50E775E90223FCF70EFEB1
:1035B800013C50E7029A3B6813607B68106103F195
:1035C80000435360BB689360FB6803F10043D3601A
:1035D80001F10043536187E7000000000000F03F5D
:1035E8000000000000000000D88D000800007041B5
:1035F8000000703E000000002DE9F04F55EC104B24
:1036080085B025F00043B3F1795F8DED001B029082
:1036180006DA10EE100A2946FDF724FA002851D0E0
:1036280022462B4620462946FCF782FF82468B46D7
:1036380002460B4620462946FCF77AFF41A3D3E908
:1036480000238046894650465946FCF771FF3FA340
:10365800D3E90023FCF7B8FD52465B46FCF768FF48
:103668003CA3D3E90023FCF7B1FD52465B46FCF7C7
:103678005FFF3AA3D3E90023FCF7A6FD52465B4659
:10368800FCF756FF37A3D3E90023FCF79FFD029B05
:1036980006460F46DBB902460B4650465946FCF72C
:1036A80047FF25A3D3E90023FCF78EFD42464B468E
:1036B800FCF73EFF02460B4620462946FCF786FDEE
:1036C80004460D4645EC104B05B0BDE8F08F0022CE
:1036D8001B4BDDE90001FCF72BFF3246CDE9020167
:1036E8003B4640464946FCF723FF02460B46DDE9C8
:1036F8000201FCF769FD52465B46FCF719FFDDE95C
:103708000023FCF761FD0CA3D3E9002306460F460E
:1037180040464946FCF70CFF02460B463046394600
:10372800FCF754FD02460B4620462946FCF74CFDA3
:10373800C6E700BFAFF30080495555555555C53FFD
:103748000000E03F7CD5CF5A3AD9E53DEB9C2B8A67
:10375800E6E55A3E7DFEB157E31DC73ED561C11966
:10376800A0012A3FA6F810111111813F53EC102B2C
:1037780023F0004343EC102B7047000000000000CA
:1037880051EC100B2DE9F041C1F30A57A7F2FF36AF
:10379800132E10EE108A0C4610EE105A35DC002E4F
:1037A80017DA35A3D3E90023FCF710FD0022002324
:1037B800FDF74EF950B1002C5ADA24F0004353EAD1
:1037C80008032F4B4FF0000518BF1C46214628461A
:1037D80025E02C4F374101EA070303431FD026A3F6
:1037E800D3E90023FCF7F2FC00220023FDF730F9AF
:1037F8000028EBD0002CBEBF4FF4801343FA06F626
:10380800A41924EA07040025E0E7332E0BDDB6F5FA
:10381800806F04D110EE102A0B46FCF7D7FC41EC60
:10382800100BBDE8F081A7F213474FF0FF3323FADE
:1038380007F73842F3D010A3D3E90023FCF7C6FCFE
:1038480000220023FDF704F90028BFD0002C02DA7B
:10385800142E03D1013425EA0705B7E70123C6F181
:10386800340603FA06F63544A84588BFE418F2E79B
:1038780000252C46AAE700BF9C7500883CE4377EEB
:103888000000F0BFFFFF0F0000207047F7B551ECB4
:10389800100BC1F30A54A4F2FF36132E10EE107A5F
:1038A8000B4602464FEAD17558DC002E2BDA21F080
:1038B8000042024323D0C1F3130202435142114391
:1038C800090B5B0C01F400215B0441EA0307314B4F
:1038D80003EBC5033946D3E9006710EE100A3246F8
:1038E8003B46FCF773FCCDE900013B463246DDE977
:1038F8000001FCF769FC21F0004343EAC57141EC83
:10390800100B03B0F0BD244C344101EA040707430F
:10391800F5D0610803EA010002430BD023EA010154
:103928004FF48023132E43FA06F30CBF4FF00042E6
:1039380000220B431946174B03EBC505D5E9004593
:1039480010462B462246FCF741FCCDE900012246F1
:103958002B46DDE90001FCF737FCD0E7332E08DD04
:10396800B6F5806FCBD110EE102A0B46FCF72EFC73
:10397800C5E7A4F213464FF0FF34F4402042BED00E
:1039880061080F421FBF4FF0804227EA0101324110
:103998000A43CFE7288E0008FFFF0F000000000051
:1039A80070B555EC104BC5F30A5206462B46B2B912
:1039B80025F0004323433CD00022334B294610EE28
:1039C800100AFCF7B5FD314A964204460D460B46EF
:1039D80013DA29A3D3E90023FCF7AAFD0AE040F291
:1039E800FF718A420CD110EE102A2B462046294638
:1039F800FCF7ECFB04460D461BE0C1F30A52363ACD
:103A0800324440F2FE718A420BDD45EC114B9FEDCA
:103A18001C0B00F0B7F81AA3D3E9002351EC100BE4
:103A2800DAE7002A08DD23F0FF4323F4E00343EA42
:103A3800025545EC104B70BD12F1350F0DDA4CF202
:103A480050339E4245EC114BE1DC9FED0B0B00F02F
:103A580099F809A3D3E90023E0E723F0FF433632BE
:103A680023F4E00343EA0255204629460022084B86
:103A7800B2E700BFAFF3008059F3F8C21F6EA5018B
:103A88009C7500883CE4377E00005043B03CFFFF43
:103A98000000903C10EE103A23F0004300EE103A7C
:103AA800704710EE103A23F00040B0F1FF4FACBF62
:103AB80000200120704700009FED010A704700BFF9
:103AC8000000C07F08B510EE102A32F000432DED3B
:103AD800028BF0EE400A04D0B3F1FF4F06D370EE2C
:103AE800000ABDEC028BB0EE600A08BDB3F5000F0A
:103AF8001CD21F4BDFED1F7A984260EE270A10DBBD
:103B080010EE902AC2F3C753193B0344FE2B0FDD76
:103B18009FED198AB0EE480A00F041F860EE080AF5
:103B2800DFE7DFED167A60EEA70ADAE7DB0DECE7F0
:103B3800002B06DD22F0FF4242EAC35300EE903A22
:103B4800CFE713F1160F06DA4CF250339842DFDC58
:103B58009FED0A8ADEE7193322F0FF4242EAC35397
:103B6800DFED077A07EE103A67EE270AB9E700BFDC
:103B7800B03CFFFF0000004CCAF249716042A20D40
:103B88000000003353EC102B11EE900A23F0004193
:103B980000F0004041EA000343EC102B704710EEA0
:103BA800103A10EE902A23F0004302F0004213432B
:103BB80000EE103A70470000014B1868704700BFCC
:103BC8003800002070B50D4E0D4CA41BA410002524
:103BD800A54209D10B4E0C4C00F018F8A41BA410F8
:103BE8000025A54205D170BD56F825309847013506
:103BF800EEE756F8253098470135F2E7388E000889
:103C0800388E0008388E00083C8E0008F8B500BFD2
:103C1800F8BC08BC9E467047F8B500BFF8BC08BCA5
:043C28009E467047FD
:103C30000000000041D73E391BD5E939E5D44E3AA2
:103C4000A5129E3AA7E7DD3A2E53133B0EF53B3BF8
:103C50005796683B21938C3BD9B0A63B8E93C23BD1
:103C6000782AE03BD064FF3BE718103C8944213CB4
:103C7000B728333CA3C9453C8716593C94136D3C87
:103C800033DC803C67808B3C4B74963CFAB9A13C9A
:103C9000404DAD3C1F2EB93C7D5AC53C8CD6D13C25
:103CA0001B9EDE3C29B1EB3CE813F93C2062033D4E
:103CB00030630A3D198C113DF4DE183DC05B203D98
:103CC000A305283D9CDC2F3DD2E3373D5C1D403DE4
:103CD000488A483DC72E513D0A0F5A3D2C2D633D61
:103CE000758F6C3D193A763DBD1A803DF243853D96
:103CF000E99D8A3DEC2E903DCEFD953DEFE6A93D38
:103D0000B9C5BC3D54A8CE3DD09ADF3DB5A8EF3D26
:103D10008BDDFE3D2BA2063E43730D3E08E7133EAE
:103D2000EF011A3EB0C81F3EF73E253E38692A3ED5
:103D3000994A2F3E4BE7333EEE41383E705E3C3EA3
:103D4000703F403E14E8433EB85A473E809A4A3E90
:103D500086A94D3E698A503E423F533E2ACA553E8F
:103D6000382D583E876A5A3EA9835C3E747A5E3E7F
:103D7000BE50603ED507623E4DA1633EB81E653E13
:103D80002481663E21CA673E01FB683E8C146A3E70
:103D900011186B3EE2066C3E82E16C3E00A96D3E5E
:103DA000AB5E6E3E08036F3EE1966F3E001B703EB9
:103DB0007190703E77F7703EDB50713EAA9D713E68
:103DC000E3DD713E9412723E003C723EAB5A723E8D
:103DD000616F723E207A723EB37B723E9F74723E78
:103DE000E564723E4D4D723ED82D723E4F07723ED5
:103DF000B2D9713E44A5713E8C6A713ECC29713EA8
:103E000047E3703EFF96703E7845703EF6EE6F3E9B
:103E100079936F3E87336F3EDDCE6E3E45666E3ED4
:103E200038F96D3E7F886D3E1A146D3E0B9C6C3EDA
:103E300092206C3EB2A16B3EEF1F6B3E079B6A3E29
:103E40003C136A3E9088693E44FB683E9C6B683E2A
:103E500055D9673EB344673EB4AD663E9C14663E9A
:103E60006C79653E66DC643E473D643E529C633E31
:103E700087F9623E2A55623EF7AE613E3107613EE8
:103E8000D95D603EEEB25F3EB3065F3E29595E3EAD
:103E90000DAA5D3EE4F95C3E6B485C3EA3955B3E3B
:103EA0008BE15A3EAA2C5A3E7976593E3CBF583E89
:103EB000F206583E9C4D573E7D93563E51D8553E96
:103EC000191C553E185F543E4DA1533EB9E2523E77
:103ED0001823523EF162513EBEA1503E05E04F3ED6
:103EE000821D4F3E365A4E3E64964D3E85D14C3E25
:103EF000630C4C3E78464B3EC37F4A3E88B8493EF1
:103F0000C7F0483E8028483E705F473E1C96463EBC
:103F1000FFCB453E5C01453E3336443E836A433E1B
:103F20004D9E423E91D1413E9204413ECA36403EB2
:103F3000BE683F3E2C9A3E3E58CB3D3EB9FB3C3ED0
:103F4000D82B3C3E705B3B3EC68A3A3E95B9393E23
:103F500021E8383E2716383EA643373EE370363E0A
:103F6000DC9D353E4FCA343E7FF6333E2922333E38
:103F7000904D323E7078313E0EA3303E68CD2F3EDC
:103F80007FF72E3E10212E3E5E4A2D3E69732C3E59
:103F9000ED9B2B3E72C42A3E70EC293EE813293E6D
:103FA000603B283E9562273E4489263EB0AF253EC1
:103FB000D8D5243EBDFB233E6021233EBF46223E92
:103FC000DB6B213E7190203E07B51F3E5AD91E3E45
:103FD00026FD1D3EF3201D3E39441C3E7F671B3EDF
:103FE000408A1A3E00AD193E3ACF183E73F1173E93
:103FF0006A13173EDB34163E4B56153E7977143E56
:104000006398133E0AB9123E6FD9113E90F9103EE3
:10401000B119103E4B390F3EE6580E3E3E780D3E2C
:1040200053970C3E24B60B3EB2D40A3EFEF2093E34
:104030004911093E512F083E164D073E986A063E2B
:10404000D787053E16A5043E12C2033ECADE023ED5
:1040500040FB013EB517013EE833003EAE9FFE3DFA
:1040600006D7FC3D5E0EFB3DAA44F93D7C7BF73D47
:1040700042B1F53D08E7F33D471CF23D0151F03DEB
:10408000BA85EE3D67B9EC3D9AEDEA3DC020E93DC9
:10409000E753E73D8786E53D28B9E33D42EBE13D47
:1040A000D61CE03D6A4EDE3D787FDC3DFFAFDA3D59
:1040B00087E0D83D8810D73D0340D53D7E6FD33D86
:1040C000739ED13D68CDCF3DD7FBCD3DBF29CC3DC3
:1040D000A857CA3D9085C83D6CB2C63D48DFC43D77
:1040E000240CC33D7A38C13D4964BF3D1990BD3DA4
:1040F00062BBBB3DACE6B93D6F11B83D323CB63D4D
:104100006F66B43D2590B23DDCB9B03D93E3AE3D62
:10411000C30CAD3D6E35AB3D185EA93D3C86A73D59
:1041200060AEA53D84D6A33D9CFDA13D3925A03DB3
:10413000514C9E3DE2729C3D74999A3D7FBF983DE3
:104140008AE5963D950B953D1A31933D1956913D63
:10415000187B8F3D17A08D3D8FC48B3D81E8893D35
:10416000740C883D6630863D5854843D3E77823DD0
:10417000AA9A803D207B7D3DDFBF793D9F04763D3F
:104180005E49723D118D6E3DC4D06A3D6A13673D34
:104190001156633DB7985F3D51DA5B3DEB1B583DCF
:1041A000795C543D069D503D87DC4C3D151D493DD5
:1041B0008A5B453D0B9B413D7FD93D3DE8163A3D2D
:1041C0005054363DB891323D14CE2E3D7C0B2B3DE4
:1041D000CC46273D1B82233D6ABD1F3DBAF81B3DDF
:1041E000FD32183D406D143D76A6103DB9E00C3D02
:1041F000E318093D1A52053D448A013DDC84FB3C2D
:1042000017F3F33C5261EC3C8DCFE43CB03BDD3C1A
:10421000D2A7D53CF513CE3CFE7DC63C08E8BE3C9B
:104220001152B73C02BAAF3CF321A83CE389A03C51
:10423000BBEF983C9355913C6BBB893C4221823C3F
:10424000030A753C81D1653CCD94563C4B5C473CA0
:10425000971F383CB1DE283CFDA1193C17610A3C90
:104260000038F63B35B6D73B062CB93BD7A19A3B75
:10427000512F783B2D0A3B3B10CAFB3AC77F813A4E
:104280000F7E6238B16C66BA2FA2EDBACA1734BB82
:10429000B64D71BB344A97BB8DEDB5BB4A99D4BBC3
:1042A000A33CF3BB30F408BC0E4A18BC1EA427BCC8
:1042B000FDF936BC0D5446BC1DAE55BC5F0C65BC4B
:1042C000A16A74BC58E281BC929389BCB34291BC90
:1042D000EDF398BC27A5A0BC6056A8BC9A07B0BC5B
:1042E000EDBAB7BC3F6EBFBC9221C7BCE5D4CEBC13
:1042F0003788D6BCA33DDEBC0EF3E5BC7AA8EDBC86
:10430000FE5FF5BC8317FDBC776602BD464306BD64
:10431000081F0ABDCAFA0DBD99D711BD67B415BDF6
:10432000369119BD116F1DBDE04B21BDBB2925BDC7
:10433000960729BD71E52CBD59C430BD34A234BDEA
:104340001B8138BD03603CBDEA3E40BDDE1E44BD5E
:10435000D2FE47BDBADD4BBDADBD4FBDAE9E53BD18
:10436000A27E57BDA25F5BBD963F5FBD962063BD39
:10437000970167BDA4E36ABDA4C46EBDB1A672BDBA
:10438000BE8876BDCA6A7ABDD74C7EBDF81781BD9E
:10439000FF0883BD8BFA84BD18EC86BDA5DD88BD02
:1043A00031CF8ABD44C18CBDD1B28EBDE3A490BDD6
:1043B000F69692BD098994BDA27B96BDB56D98BD58
:1043C0004E609ABDE7529CBDFA449EBD1938A0BD0F
:1043D000B22AA2BD4B1DA4BD6B10A6BD202982BD73
:1043E000A54E40BD60C7FFBCB0CA85BC4D6812BBBE
:1043F000B806363C3276C23C7C2B123D7D76403D81
:104400009F3C6C3D3ED08A3D315F9E3D5EDAB03DC3
:10441000EC4FC23DEACBD23DEE5AE23D8D09F13D73
:10442000CAE2FE3D90F8053E431F0C3E79EA113E7C
:10443000EA5E173E84801C3EBD53213E40DC253E93
:10444000FC1D2A3E9B1C2E3E44DB313E1C5D353E4E
:1044500005A5383E67B63B3EE2933E3E8E3F413E69
:104460004DBC433E7C0C463E7632483ECF2F4A3E02
:1044700025074C3EC7B94D3E124A4F3E99B9503EB2
:10448000365C543EAFD0573EDB185B3E8F365E3E07
:10449000282C613EB1FA633E01A4663EED29693ED7
:1044A000088E6B3E5FD16D3E84F56F3E09FC713E18
:1044B0003FE6733EEEB4753E6669773E3A05793E57
:1044C000F0887A3ED8F57B3EBA4C7D3EE78E7E3E44
:1044D000E4BC7F3EDF6B803EFEEF803E766B813E2C
:1044E0006ADE813E5E49823E97AC823E7808833E1A
:1044F000255D833E22AB833E91F2833ED733843EDB
:10450000156F843EB1A4843ECCD4843E86FF843EA5
:104510004625853E2C46853E7C62853E577A853E03
:10452000008E853E779D853E00A9853EBCB0853EC8
:10453000EEB4853E95B5853ED5B2853E10AD853E3F
:1045400005A4853E1898853E4889853EB877853E06
:104550008863853EDB4C853EB133853E2B18853E16
:1045600048FA843E4DDA843E39B8843E2D94843E28
:104570002B6E843E3046843E611C843EDCF0833EDC
:10458000A4C3833ED994833E7C64833E8B32833EB6
:1045900009FF823E36CA823E1494823E815C823E8E
:1045A000C023823E8EE9813E4FAE813EE371813E63
:1045B0004834813EA1F5803EEEB5803E2E75803EAA
:1045C0006133803E54E17F3E105A7F3EF6D07E3EFE
:1045D00006467E3E41B97D3EE92A7D3EFE9A7C3EFE
:1045E00081097C3E71767B3ECEE17A3EDC4B7A3EA1
:1045F00057B4793E821B793E1B81783EA8E5773E11
:10460000E448773ED2AA763E700B763E016B753E4B
:1046100086C9743EBB26743EE482733EBEDD723EA4
:10462000CE37723ED190713E86E8703E703F703E4C
:1046300092956F3E64EA6E3E6C3E6E3EAC916D3E6E
:10464000DEE36C3E48356C3EE8856B3E7CD56A3EC9
:1046500046246A3E4772693E7FBF683EED0B683E66
:10466000D657673EB1A2663EC4EC653E5036653E05
:10467000137F643E0DC7633E800E633E2A55623E43
:104680000B9B613E65E0603EF624603E01695F3E43
:1046900086AC5E3E41EF5D3E77315D3E26735C3E0B
:1046A0000BB45B3E6BF45A3E44345A3E9773593E0A
:1046B00064B2583EAAF0573E272E573E616B563ED5
:1046C000D2A7553EBDE3543E641F543E865A533E26
:1046D000DD94523EF2CE513E8108513E8941503E1A
:1046E0000B7A4F3E4AB24E3EC0E94D3EF3204D3E5E
:1046F000E2574C3E088E4B3EEBC34A3E48F9493EDA
:10470000622E493EF662483E0397473ECDCA463E7A
:1047100011FE453ECF30453E4963443E8195433EC0
:1047200032C7423E5DF8413E4529413EEA59403E8E
:10473000098A3F3EE5B93E3E3AE93D3E4C183D3ED2
:10474000D8463C3E21753B3E27A33A3EEAD0393E4F
:1047500026FE383E1F2B383E9357373EC383363EE6
:10476000B0AF353E59DB343E7D06343E5D31333EDD
:10477000FB5B323E5586313E6CB0303EFDD92F3E5C
:104780004B032F3E562C2E3E1D552D3EA27D2C3E1A
:10479000A0A52B3E9FCD2A3E17F5293E4C1C293E55
:1047A0003D43283EEC69273E5890263E80B6253E84
:1047B00066DC243E0802243E2427233E404C223E51
:1047C0001971213E6C95203EBFB91F3ECEDD1E3EC5
:1047D00058011E3EE1241D3E28481C3E2B6B1B3E0B
:1047E000A88D1A3E25B0193E5FD2183E56F4173EEA
:1047F0000916173EBD37163EEA58153ED579143EC8
:10480000BF9A133E23BB123E87DB113EA9FB103E2D
:10481000861B103E213B0F3E795A0E3ED1790D3E4C
:10482000A2980C3E74B70B3E02D60A3E4DF4093EE8
:104830009912093E5E30083E234E073EA56B063EA8
:10484000E388053E22A6043EDBC2033E93DF023E20
:1048500009FC013E7E18013E6E34003EBAA0FE3DCA
:1048600099D8FC3D6B0FFB3D3D46F93D897CF73DFA
:104870004FB2F53D14E8F33D541DF23D0D52F03DAD
:104880004086EE3D73BAEC3D20EEEA3DCD21E93D98
:10489000F354E73D9487E53DAEB9E33DC8EBE13D18
:1048A0005C1DE03DF04EDE3DFE7FDC3D85B0DA3D37
:1048B0000DE1D83D0E11D73D8940D53D0470D33D63
:1048C000F99ED13DEECDCF3D5DFCCD3D452ACC3DA1
:1048D0002E58CA3D9085C83DF2B2C63DCEDFC43DDC
:1048E000240CC33D7A38C13DD064BF3D1990BD3D15
:1048F000E8BBBB3DACE6B93D6F11B83D323CB63DBF
:104900006F66B43DAC90B23D62BAB03D93E3AE3D4C
:10491000C30CAD3D6E35AB3D185EA93DC286A73DCB
:1049200060AEA53D84D6A33D22FEA13D3925A03D24
:10493000514C9E3DE2729C3D74999A3D7FBF983DDB
:104940008AE5963D950B953D1A31933D1956913D5B
:10495000187B8F3D17A08D3D8FC48B3D81E8893D2D
:10496000FA0C883D6630863D5854843D3E77823D42
:10497000AA9A803D207B7D3DDFBF793D9F04763D37
:104980005E49723D118D6E3DC4D06A3D6A13673D2C
:104990001156633DB7985F3D51DA5B3DEB1B583DC7
:1049A000795C543D069D503D87DC4C3D151D493DCD
:1049B0008A5B453D0B9B413D7FD93D3DE8163A3D25
:1049C0005054363DB891323D20CF2E3D7C0B2B3DCF
:1049D000CC46273D2783233D6ABD1F3DBAF81B3DCA
:1049E000FD32183D406D143D76A6103DB9E00C3DFA
:1049F000E318093D1A52053D448A013DDC84FB3C25
:104A000017F3F33C5261EC3C8DCFE43CB03BDD3C12
:104A1000D2A7D53CF513CE3CFE7DC63C08E8BE3C93
:104A20001152B73C02BAAF3CF321A83CE389A03C49
:104A3000BBEF983C9355913C6BBB893C4221823C37
:104A4000030A753C81D1653CCD94563C4B5C473C98
:104A5000971F383CB1DE283CFDA1193C17610A3C88
:104A60000038F63B35B6D73B062CB93BD7A19A3B6D
:104A7000512F783B2D0A3B3B10CAFB3AC77F813A46
:104A80000F7E6238B16C66BA2FA2EDBACA1734BB7A
:104A9000B64D71BB344A97BB8DEDB5BB4A99D4BBBB
:104AA000A33CF3BB30F408BC0E4A18BC1EA427BCC0
:104AB000FDF936BC0D5446BC1DAE55BC5F0C65BC43
:104AC000A16A74BC58E281BC929389BCB34291BC88
:104AD000EDF398BC27A5A0BC6056A8BC9A07B0BC53
:104AE000EDBAB7BC3F6EBFBC9221C7BCE5D4CEBC0B
:104AF0003788D6BCA33DDEBC0EF3E5BC7AA8EDBC7E
:104B0000FE5FF5BC8317FDBC776602BD464306BD5C
:104B1000081F0ABDCAFA0DBD99D711BD67B415BDEE
:104B2000369119BD116F1DBDE04B21BDBB2925BDBF
:104B3000960729BD71E52CBD59C430BD34A234BDE2
:104B40001B8138BD03603CBDEA3E40BDDE1E44BD56
:104B5000D2FE47BDBADD4BBDADBD4FBDAE9E53BD10
:104B600058565ABDF43460BD494B65BDDFA469BDDC
:104B700065506DBD645970BD58CA72BDC9AE74BD73
:104B80001B0F76BDBFF476BD166877BD7A7077BD12
:104B9000591777BDE56076BD765475BD49F773BD8D
:104BA000B55072BDED6470BD22386EBD92CF6BBD45
:104BB0006F2F69BDDE5A66BD115663BD392560BDD4
:104BC0007DCB5CBDE94959BDB9A555BDF0DE51BDF0
:104BD000CAFA4DBD55FA49BD9CDE45BDC5AA41BDC9
:104BE000E9603DBD080139BD548F34BDBF0A30BDF9
:104BF00064752BBD5BD126BDB01F22BD63601DBD9A
:104C00008E9518BD2FBF13BD55DE0EBD0AF409BD2C
:104C10005C0105BD3E0500BDAB05F6BC2CF2EBBC4E
:104C2000FFCFE1BC3CA1D7BCFD67CDBC00000000BC
:104C3000FF058239535BEAB903249ABA1DE4F5BA39
:104C4000FC532ABB465E56BB2A1F82BB4F2498BB2F
:104C5000B91CAFBBAFCDC6BB97A8DEBBD34CF7BB6F
:104C60006D1E07BC709612BC730E1EBC20EB29BCD7
:104C700063D435BC985041BC13294DBC871659BC30
:104C8000FB0365BCA8E070BC5B3F7DBCC85D84BC19
:104C9000BE848ABCA73E90BCDAFE95BCB8239CBCFF
:104CA0008A1CA2BCE44BA8BC2238AEBC23F4B3BC23
:104CB000F6ECB9BCEC13C0BC5F45C6BC556CCCBCB3
:104CC0000F63D2BC9755D8BC4E0BDEBCA83AE4BCEF
:104CD0007B33EABC715AF0BCE38BF6BCD9B2FCBCA6
:104CE000197101BD766C04BDF17F07BDAB980ABD9B
:104CF00026AC0DBDD2C310BD3CC013BD07F016BD20
:104D0000CC091ABD97391DBD445120BDB26323BDE6
:104D1000035E26BD6C5A29BDF46E2CBDF0A22FBDDA
:104D2000CFBE32BDDD0936BD8A2139BD3C4C3BBD0D
:104D3000B75F3EBD7D7941BD6DAC44BDB9FC47BD9B
:104D4000772B4BBD3D454EBDFB7351BDC18D54BD51
:104D5000CAC257BDA1F35ABD91265EBD323D61BDA9
:104D60007E8D64BD55BE67BD5EF36ABD10216EBD0C
:104D7000D63A71BDAD6B74BDA99F77BD81D07ABDA8
:104D8000A3077EBD58A980BDDD4382BDC2DB83BDC4
:104D9000537785BD601D87BDF1B888BDE65C8ABDCF
:104DA000C9E98BBDAE818DBDAC1B8FBD24B590BD57
:104DB000575E92BDEA0494BD1DAE95BDB05497BD3B
:104DC00050FC98BDC8959ABDC93A9CBD5AD69DBDA8
:104DD000E17B9FBD7E18A1BDB4CCA2BDCD73A4BDA7
:104DE000450DA6BD84B7A7BDBA6BA9BD6614ABBD02
:104DF000F9BAACBD8D61AEBDCC0BB0BD94C1B1BD37
:104E00007479B3BD9D2CB5BD9ED1B6BD2F6DB8BD17
:104E1000C213BABD6FBCBBBD9564BDBDEF1BBFBDAA
:104E200031D1C0BDE084C2BD8C2DC4BDB2D5C5BDDD
:104E30007A8BC7BDA033C9BD4FE7CABD2193CCBD96
:104E40007E55CEBD2D09D0BD53B1D1BD7959D3BD4D
:104E5000D410D5BD82C4D6BDC16ED8BD7D23DABD08
:104E600045D9DBBD3292DDBDF051DFBDB5FCE0BD03
:104E7000BDC2E2BD9484E4BDD639E6BD30F1E7BDE4
:104E8000ECA5E9BD2D5BEBBD8812EDBDC9C7EEBD3C
:104E9000857CF0BDAB24F2BD05DCF3BD0EA2F5BDF3
:104EA0005E63F7BD3F1BF9BD48E1FABD98A2FCBDAA
:104EB0000C5CFEBD8B1600BE90F900BE44DB01BE4B
:104EC00030BC02BEE99803BEE17A04BED95C05BEDF
:104ED000DD3F06BE922107BE7E0208BE37DF08BE58
:104EE0009CBF09BE4A9B0ABE917E0BBEE0670CBE0A
:104EF00045480DBEE6220EBE0DFE0EBE0ADB0FBEFD
:104F00009CC410BEF7AE11BEF69612BEEE7813BE6C
:104F1000E65A14BEA73D15BEEF2016BE3D0A17BEC9
:104F200080F217BEF2D318BE0CAE19BE1D771ABEA2
:104F300006681BBE0C561CBE04381DBEC51A1EBE1C
:104F40007AFC1EBEC2DF1FBE54C920BEFEB421BE05
:104F500098A422BEA48D23BE857824BE8C6625BE6F
:104F6000E04A26BE2F3427BE101F28BE670E29BE7A
:104F7000B6F729BE11E22ABE60CB2BBEAFB42CBE61
:104F8000909F2DBE548D2EBEA8712FBE645930BE89
:104F9000AC3C31BED02732BE831933BE6C0A34BE5E
:104FA0007FF934BE3BE135BEC6C436BEDEAE37BE89
:104FB000029A38BE168939BEF7733ABE4E633BBEBD
:104FC0003C4F3CBE4F3E3DBE062B3EBEB4213FBED5
:104FD000C71040BEECFB40BE0BEC41BE84D342BECA
:104FE00077BA43BEE2B044BECBA145BE219146BED6
:104FF0000F7D47BE4D6A48BE405149BEED474ABE8F
:10500000693A4BBEEC324CBE2C2B4DBE47204EBEF7
:10501000350C4FBE1EFD4FBE9AEF50BE2EE451BE62
:1050200053CF52BEA9BE53BE6DAC54BED7A255BE1F
:105030006C97563EA393553E6A86543EC47A533EBF
:105040000A68523EC05E513E5052503EED464F3EC1
:10505000F0334E3E382C4D3EAB224C3E72154B3E4B
:10506000BB0D4A3E4606493E8FFE473E45F5463E4D
:10507000E7E4453E2DD2443E5CC8433E23BB423E5E
:10508000AFB3413EF7AB403E40A43F3EB39A3E3EF5
:10509000A48B3D3E787F3C3EC0773B3E65723A3EF6
:1050A000166E393E3963383EEA5E373EB151363EC0
:1050B000554C353E384C343E024A333E8D42323EEA
:1050C000D63A313E1E33303EC32D2F3E8C2B2E3E22
:1050D0005B242D3EB01D2C3EF9152B3E410E2A3E81
:1050E000E608293EAF06283E6D03273EB806263E59
:1050F0005C01253EE3FE233E6EF7223E13F2213E85
:105100009AEF203E25E81F3E6EE01E3EB6D81D3EBB
:1051100042D11C3E42CE1B3E63D31A3EE5D5193E1A
:10512000A9D8183E91D3173E18D1163E22C4153E79
:105130002FC2143EF9BF133E37C2123E01C0113ECA
:1051400040C2103E09C00F3EBDC60E3EDECB0D3E36
:1051500064C90C3E4CC40B3E2FC40A3E54C4093EE5
:1051600037C4083E5DC4073E3FC4063E22C4053E28
:105170002FC2043EE0BD033E1EC0023ED2C6013E29
:105180004FCE003EDFA6FF3DE2ABFD3D24B6FB3D2A
:1051900070B6F93D35B6F73D80B6F53D84BBF33DBD
:1051A00087C0F13D95BBEF3D50C5ED3DDACAEB3D03
:1051B00011DFE93D87F8E73DC902E63D8E02E43D97
:1051C0001808E23DD311E03D5D17DE3D1821DC3DBE
:1051D000DE20DA3D6726D83D2330D63DAD35D43DBF
:1051E0005E49D23DBB60D03D3B70CE3DF679CC3DB3
:1051F000427ACA3D457FC83D0189C63D4F94C43DB2
:105200003FADC23DFAB6C03D84BCBE3D42D1BC3DBF
:1052100031EABA3DEDF3B83D3BFFB63D1E17B53D53
:105220000B25B33D8E3FB13DB472AF3DD1AFAD3D27
:105230001DE6AB3DEA06AA3D1F10A83D2F16A63D70
:105240002925A43D6D3AA23DD652A03D1B689E3D46
:1052500084809C3D04909A3D3CA4983DD7C0963DE7
:105260004FE5943D6501933D390D913DDE1F8F3D26
:10527000EE258D3DE7348B3DF04F893D0877873D26
:10528000A393853D0CAC833D42B5813D38837F3D82
:1052900094BF7B3D8508783DC157743D7B86703D4A
:1052A000DEAD6C3DB1DE683D3909653DA246613D2C
:1052B000FD825D3DD0B3593D59DE553DA819523DA3
:1052C0004A464E3DDE714A3D3AAE463D96EA423D83
:1052D000691B3F3DF1453B3D5A83373D9DBD333D05
:1052E000E0F72F3D3B342C3DA471283D6AA1243DBD
:1052F00094D9203D221A1D3D3350193D499C153D3E
:10530000A5D8113DA3220E3D30630A3DC58E063D52
:1053100021CB023DE10CFE3C4E7FF63C4913EF3CB5
:10532000A7AFE73CA243E03CB6D9D83C683FD23CAB
:1053300063D3CA3C058BC33C1821BC3C8693B43C68
:10534000560EAD3C0E87A53C091B9E3C4EB5963CC7
:1053500017458F3C2BDB873C266F803CD712723C75
:105360004704633CE8F9533CF3E2443CCEC7353C88
:10537000F5F3263C075F183C19CA093C2B51F63B54
:105380009483D93BE272BC3BC1559E3BADA5803BAB
:1053900013D6463BEA750B3B842BA03A4910AE3935
:1053A00029AF15BA01DBC1BAC7621BBB80B655BBBA
:1053B000800D88BB5D37A5BB0072C2BB07B5DFBBE4
:1053C0007369FCBBBD8A0CBC412C1BBC93C929BCB6
:1053D000399938BC116D47BC310656BC83A364BCF7
:1053E000BF7F73BCCC2981BC437488BCBABE8FBC60
:1053F0001FF296BC6C239EBC8750A5BCA27DACBCA2
:105400004BCCB3BC0D1DBBBC274AC2BC4277C9BC48
:105410008FA8D0BCF5DBD7BC6C26DFBC5890E6BCAF
:105420002BF8EDBCED48F5BC527CFCBCFCC401BDC6
:105430009EB305BD3D6109BD27150DBDAA7F10BDF9
:10544000AA6014BD1FF517BD91481BBD7AFC1EBD97
:10545000E56422BD8E3E26BDD6E429BDBF982DBD94
:10546000861E31BDBCAD34BD8F3438BD6FBC3BBD75
:1054700035423FBD0FB442BD628646BDAA2C4ABD2F
:10548000CCCF4DBD6B7D51BD553155BD34B958BDE7
:10549000FB3E5CBD31CE5FBD6F4863BD59FC66BD50
:1054A00071736ABD603D6EBD359971BDFB1E75BDE2
:1054B00090A078BDCC457CBD320480BD3FAA81BDA3
:1054C000B08E83BDCA3585BDB20E87BDACC888BD60
:1054D00020B88ABD957C8CBD793F8EBDE50D90BD11
:1054E00085B591BD7A8F93BD5D5295BDF81997BD75
:1054F000E8DD98BD51A19ABDEC689CBDDC2C9EBD39
:1055000052F19FBD35B4A1BD8675A3BDC555A5BDDE
:105510002A03A7BD7AC4A8BD9E97AABD9371ACBD4E
:105520009241AEBD00E5AFBD3599B1BD1310B3BD1D
:10553000B8CDB4BDCF9FB6BDE97CB8BD8E3ABABD7B
:10554000CE1ABCBDB8C8BDBDDA90BFBDCA54C1BD7E
:10555000E811C3BD4DF5C4BD44A4C6BDAE67C8BD0A
:10556000492FCABDBFF3CBBD7FBECDBD6A6CCFBDD9
:10557000D63AD1BDCDE9D2BD36ADD4BDA27BD6BD24
:10558000E430D8BD19E5D9BD4298DBBDB85CDDBDBE
:105590002120DFBDBCE7E0BD32ACE2BD9C6FE4BDC5
:1055A000083EE6BD49F3E7BDBAA1E9BDA06FEBBD7A
:1055B000A31FEDBDD1E8EEBDFA9BF0BD3466F2BD90
:1055C0002B15F4BD4CDDF5BD87A7F7BDF855F9BD2A
:1055D000191EFBBD8FE2FCBD05A7FEBD5C3800BEF9
:1055E000D31401BED5EC01BE89CE02BE9AB203BE71
:1055F000B79704BEF77405BE784706BEF31E07BE14
:10560000C10208BE3FE508BE5CCA09BED7A10ABEFA
:10561000CA880BBE28630CBEFF3C0DBEFF240EBE25
:1056200041F20EBED3DB0FBEDFA910BE378911BE1B
:10563000687512BE185C13BEB93614BE301315BEA1
:1056400074EB15BE0BD016BEC5AC17BEA98718BE2D
:10565000076219BEC03E1ABEA4191BBE45F41BBE8C
:105660001CCE1CBE39B31DBEF88A1EBEA8711FBE5B
:10567000CF4C20BE2D2721BE470122BE82E322BE91
:1056800019C823BE34A224BE518725BEAE6126BEF2
:10569000683E27BE091928BE7FF528BE07CE29BE61
:1056A0009EB22ABE588F2BBE9D672CBE95492DBE3B
:1056B00044302EBE6B0B2FBE68E82FBE2CBB30BE15
:1056C000539631BEB07032BE6A4D33BE0B2834BE25
:1056D000C50435BEECDF35BE8CBA36BE039737BE87
:1056E0002A7238BECB4C39BE28273ABE020C3BBECC
:1056F000A3E63BBEBEC03CBE98A53DBED8823EBE22
:105700003F533FBEBD3540BE111A41BECBF641BE30
:105710006CD142BE25AE43BE4C8944BEED6345BE4E
:10572000A74046BECE1B47BE6FF647BE0FB648BE6B
:105730003BA749BE94BC4ABE8FA94BBE01A34BBE3A
:10574000E44E49BE529942BE3C1736BE9E2623BE49
:105750008A900ABE4F3BDCBDA0A4A0BD2A534CBD1D
:105760003F36C9BCE770ADBBC5AD823B20B3333B10
:105770009DD92EBBE5B7E8BB5B061CBC6D6F37BC83
:105780009C3663BC8ECD8EBC7B14AEBC7BF7C7BC95
:105790008178DDBCDD94F2BCDB4C05BDE9F311BDC5
:1057A0003FC91DBD1AFD28BDEE4233BDD40B3EBD21
:1057B00066A248BDEE7853BD3CF45DBDC80868BD27
:1057C000FD1572BD51A47BBD24D682BDF9D687BD1F
:1057D00032AA8CBD537B91BDA41A96BDF1D99ABD56
:1057E00058709FBD69FFA3BD1686A8BDF305ADBD6A
:1057F000CAA5B1BDA9FAB5BDB268BABD70D0BEBD6B
:105800001F2CC3BDBDA6C7BDB5FDCBBD3255D0BD98
:10581000168AD4BD50C6D8BD44DCDCBD13EFE0BD54
:10582000ECF7E4BD5D18E9BD1634EDBD376EF1BD92
:105830002463F53D7995F53D9B8DF53DD787F53D85
:10584000F774F53DED7EF53D876BF53D7654F53DFE
:10585000BB44F53D410FF53D16F6F43D5EBBF43D0E
:10586000E99BF43D997FF43DE624F43D5803F43D73
:1058700023BEF33D2593F33DF04DF33DD40AF33DB4
:1058800026C6F23D0F63F23D601EF23D24B8F13DA5
:10589000986BF13D130AF13DCBA2F03DEF39F03D9D
:1058A00019E7EF3D2E72EF3D6936EF3D98C3EE3DAF
:1058B0004771EE3D9DD6ED3D4563ED3D8CF2EC3DEF
:1058C000C780EC3DE4F6EB3D7A6CEB3DFDF5EA3D3F
:1058D000F568EA3DB3ECE93DBC76E93D35D4E83DF9
:1058E0007442E83DD9B3E73D791FE73DC58EE63DFB
:1058F00027F5E53D247EE53D27BCE43D672AE43DF0
:10590000F67EE33D84D3E23D793BE23D1591E13DF6
:105910007EE2E03DE833E03DAB97DF3DA7EADE3DC8
:105920006538DE3DF48CDD3D33C5DC3D3B52DD3D6D
:10593000D49CDC3D0CEADB3D1233DB3D6282DA3D78
:10594000E9B5D93DA703D93D4739D83D0D72D73DBB
:1059500026A7D63D39F1D53D7F14D53D2B4BD43DFF
:10596000BF7FD33D1EA5D23DA0C2D13DADF6D03DF7
:105970005A2DD03DCF49CF3DC47BCE3D3EAECD3D2F
:1059800026DFCC3D47FFCB3DEF1FCB3D643CCA3DFE
:10599000795BC93D147BC83DF695C73D9EB6C63DB3
:1059A0004CC2C53DC2DEC43DDEE8C33DD905C33DA2
:1059B000041CC23D664CC13D2D5AC03DE350BF3D65
:1059C000D36CBE3D7C62BD3D527CBC3D2996BB3D47
:1059D0006DAEBA3D7CB7B93DA4C2B83DBBB6B73DCC
:1059E000F2CDB63D0ED8B53D31CDB43D4DD7B33D2A
:1059F00064CBB23D01C0B13D59C4B03DB5DEAF3D51
:105A0000BFD1AE3DEFC7AD3D98BDAC3D42B3AB3D60
:105A1000D2A6AA3D1DAAA93DBA9EA83D5793A73D6F
:105A2000F487A63DF279A53D567FA43D6072A33D63
:105A3000A454A23DC749A13D842BA03D081E9F3D13
:105A400012119E3D8A029D3DDAE59B3D8BC69A3D33
:105A50001BBA993DCC9A983D5C8E973D1970963D46
:105A6000EF53953DE624943D0404933D3BE5913D81
:105A70008AC8903DFA988F3DAB798E3DE25A8D3DB4
:105A8000003A8C3D0A2D8B3D6EFC893DB1DE883D90
:105A900014AE873DA08B863DD76C853D3A3C843D56
:105AA000711D833D4EEC813D85CD803D033E7F3DA4
:105AB00055BD7C3D4E607A3DA0DF773D4E7C753D07
:105AC000BC3E733DE9BA703D567D6E3D83F96B3D3A
:105AD000E4BA693D2A39673D0ADA643D4357623DBD
