:020000040800F2
:10000000000002205D160008AD160008AD160008BD
:10001000AD160008AD160008AD160008000000007F
:10002000000000000000000000000000AD16000805
:10003000AD16000800000000AD160008AD1600085F
:10004000AD160008AD160008AD160008AD16000884
:10005000AD160008AD160008AD160008AD16000874
:10006000AD160008AD160008AD160008AD16000864
:10007000AD160008AD160008AD160008AD16000854
:10008000AD160008AD160008AD160008AD16000844
:10009000AD160008AD160008AD160008AD16000834
:1000A000AD160008AD160008AD160008AD16000824
:1000B000AD16000869100008AD160008AD1600085E
:1000C000AD160008AD160008AD160008AD16000804
:1000D000AD160008AD160008AD160008AD160008F4
:1000E000AD160008AD160008AD160008AD160008E4
:1000F000AD160008AD160008AD160008AD160008D4
:10010000AD160008AD160008AD160008AD160008C3
:10011000AD160008AD160008AD160008AD160008B3
:10012000AD160008AD160008AD160008AD160008A3
:10013000AD160008AD160008AD160008AD16000893
:10014000AD160008AD160008AD160008AD16000883
:10015000AD160008AD160008AD160008AD16000873
:10016000AD160008AD160008AD160008AD16000863
:10017000AD160008AD160008AD160008AD16000853
:08018000AD160008AD160008E1
:1001880010B5054C237833B9044B13B10448AFF3C9
:1001980000800123237010BDA01000200000000083
:1001A8009023000808B5034B1BB103490348AFF37C
:1001B800008008BD00000000A41000209023000863
:1001C80081F0004102E000BF83F0004330B54FEA00
:1001D80041044FEA430594EA050F08BF90EA020F6D
:1001E8001FBF54EA000C55EA020C7FEA645C7FEA00
:1001F800655C00F0E2804FEA5454D4EB5555B8BF23
:100208006D420CDD2C4480EA020281EA030382EA93
:10021800000083EA010180EA020281EA0303362D25
:1002280088BF30BD11F0004F4FEA01314FF4801CF8
:100238004CEA113102D0404261EB410113F0004F0A
:100248004FEA03334CEA133302D0524263EB4303C1
:1002580094EA050F00F0A780A4F10104D5F1200E5F
:100268000DDB02FA0EFC22FA05F2801841F10001BA
:1002780003FA0EF2801843FA05F359410EE0A5F18E
:1002880020050EF1200E012A03FA0EFC28BF4CF0BF
:10029800020C43FA05F3C01851EBE37101F0004575
:1002A80007D54FF0000EDCF1000C7EEB00006EEB82
:1002B8000101B1F5801F1BD3B1F5001F0CD349080C
:1002C8005FEA30004FEA3C0C04F101044FEA445263
:1002D80012F5800F80F09A80BCF1004F08BF5FEAEA
:1002E800500C50F1000041EB045141EA050130BDCA
:1002F8005FEA4C0C404141EB010111F4801FA4F16D
:100308000104E9D191F0000F04BF01460020B1FAC1
:1003180081F308BF2033A3F10B03B3F120020CDAF9
:100328000C3208DD02F1140CC2F10C0201FA0CF0D7
:1003380021FA02F10CE002F11402D8BFC2F1200C3C
:1003480001FA02F120FA0CFCDCBF41EA0C019040F2
:10035800E41AA2BF01EB0451294330BD6FEA04043B
:100368001F3C1CDA0C340EDC04F11404C4F1200226
:1003780020FA04F001FA02F340EA030021FA04F338
:1003880045EA030130BDC4F10C04C4F1200220FA8F
:1003980002F001FA04F340EA0300294630BD21FACD
:1003A80004F0294630BD94F0000F83F4801306BF93
:1003B80081F480110134013D4EE77FEA645C18BF87
:1003C8007FEA655C29D094EA050F08BF90EA020F1E
:1003D80005D054EA000C04BF1946104630BD91EA16
:1003E800030F1EBF0021002030BD5FEA545C05D119
:1003F8004000494128BF41F0004130BD14F5800458
:100408003CBF01F5801130BD01F0004545F0FE41CB
:1004180041F470014FF0000030BD7FEA645C1ABF00
:10042800194610467FEA655C1CBF0B46024650EA37
:10043800013406BF52EA033591EA030F41F4002163
:1004480030BD00BF90F0000F04BF0021704730B5E9
:100458004FF4806404F132044FF000054FF00001BE
:1004680050E700BF90F0000F04BF0021704730B57F
:100478004FF4806404F1320410F0004548BF404254
:100488004FF000013EE700BF42004FEAE2014FEAA9
:1004980031014FEA02701FBF12F07F4393F07F4F84
:1004A80081F06051704792F0000F14BF93F07F4FB6
:1004B800704730B54FF4607401F0004521F00041F9
:1004C80020E700BF50EA010208BF704730B54FF07F
:1004D80000050AE050EA010208BF704730B511F084
:1004E800004502D5404261EB41014FF4806404F1BC
:1004F80032045FEA915C3FF4DCAE4FF003025FEA3E
:10050800DC0C18BF03325FEADC0C18BF033202EBC5
:10051800DC02C2F1200300FA03FC20FA02F001FA1F
:1005280003FE40EA0E0021FA02F11444C1E600BFBE
:1005380070B54FF0FF0C4CF4E06C1CEA11541DBF71
:100548001CEA135594EA0C0F95EA0C0F00F0DEF83C
:100558002C4481EA030621EA4C5123EA4C5350EA21
:10056800013518BF52EA033541F4801143F4801372
:1005780038D0A0FB02CE4FF00005E1FB02E506F003
:100588000042E0FB03E54FF00006E1FB03569CF058
:10059800000F18BF4EF0010EA4F1FF04B6F5007F5E
:1005A80064F5407404D25FEA4E0E6D4146EB0606D0
:1005B80042EAC62141EA55514FEAC52040EA5E5059
:1005C8004FEACE2EB4F1FD0C88BFBCF5E06F1ED803
:1005D800BEF1004F08BF5FEA500E50F1000041EB3A
:1005E800045170BD06F0004646EA010140EA0200E7
:1005F80081EA0301B4EB5C04C2BFD4EB0C0541EA09
:10060800045170BD41F480114FF0000E013C00F31D
:10061800AB8014F1360FDEBF002001F0004170BD41
:10062800C4F10004203C35DA0C341BDC04F114045A
:10063800C4F1200500FA05F320FA04F001FA05F2E6
:1006480040EA020001F0004221F0004110EBD370B3
:1006580021FA04F642EB06015EEA430E08BF20EADF
:10066800D37070BDC4F10C04C4F1200500FA04F382
:1006780020FA05F001FA04F240EA020001F0004114
:1006880010EBD37041F100015EEA430E08BF20EA87
:10069800D37070BDC4F1200500FA05F24EEA020ECF
:1006A80020FA04F301FA05F243EA020321FA04F0FE
:1006B80001F0004121FA04F220EA020000EBD370B5
:1006C8005EEA430E08BF20EAD37070BD94F0000FB5
:1006D8000FD101F00046400041EB010111F4801FE9
:1006E80008BF013CF7D041EA060195F0000F18BF9A
:1006F800704703F00046520043EB030313F4801FD6
:1007080008BF013DF7D043EA0603704794EA0C0F8F
:100718000CEA135518BF95EA0C0F0CD050EA4106A5
:1007280018BF52EA4306D1D181EA030101F0004122
:100738004FF0000070BD50EA410606BF104619464A
:1007480052EA430619D094EA0C0F02D150EA013656
:1007580013D195EA0C0F05D152EA03361CBF104697
:1007680019460AD181EA030101F0004141F0FE4136
:1007780041F470014FF0000070BD41F0FE4141F4BA
:10078800780170BD70B54FF0FF0C4CF4E06C1CEABA
:1007980011541DBF1CEA135594EA0C0F95EA0C0F6F
:1007A80000F0A7F8A4EB050481EA030E52EA03352A
:1007B8004FEA013100F088804FEA03334FF080554B
:1007C80045EA131343EA12634FEA022245EA111578
:1007D80045EA10654FEA00260EF000419D4208BF29
:1007E800964244F1FD0404F5407402D25B084FEAD6
:1007F8003202B61A65EB03055B084FEA32024FF482
:1008080080104FF4002CB6EB020E75EB030E22BFDE
:10081800B61A754640EA0C005B084FEA3202B6EB9E
:10082800020E75EB030E22BFB61A754640EA5C004D
:100838005B084FEA3202B6EB020E75EB030E22BFDD
:10084800B61A754640EA9C005B084FEA3202B6EBDE
:10085800020E75EB030E22BFB61A754640EADC009D
:1008680055EA060E18D04FEA051545EA16754FEAFF
:1008780006164FEAC30343EA52734FEAC2025FEA1D
:100888001C1CC0D111F4801F0BD141EA00014FF0AC
:1008980000004FF0004CB6E711F4801F04BF01437D
:1008A8000020B4F1FD0C88BFBCF5E06F3FF6AFAE99
:1008B800B5EB030C04BFB6EB020C5FEA500C50F129
:1008C800000041EB045170BD0EF0004E4EEA1131AC
:1008D80014EB5C04C2BFD4EB0C0541EA045170BDB3
:1008E80041F480114FF0000E013C90E645EA060EF7
:1008F8008DE60CEA135594EA0C0F08BF95EA0C0F25
:100908003FF43BAF94EA0C0F0AD150EA01347FF46C
:1009180034AF95EA0C0F7FF425AF104619462CE743
:1009280095EA0C0F06D152EA03353FF4FDAE1046A6
:10093800194622E750EA410618BF52EA43067FF4F7
:10094800C5AE50EA41047FF40DAF52EA43057FF487
:10095800EBAE12E74FF0FF3C06E000BF4FF0010C92
:1009680002E000BF4FF0010C4DF804CD4FEA410CF6
:100978007FEA6C5C4FEA430C18BF7FEA6C5C1BD0C3
:1009880001B050EA410C0CBF52EA430C91EA030F44
:1009980002BF90EA020F0020704710F1000F91EAA1
:1009A800030F58BF994208BF90422CBFD8176FEA6F
:1009B800E37040F0010070474FEA410C7FEA6C5C3D
:1009C80002D150EA013C07D14FEA430C7FEA6C5C44
:1009D800D6D152EA033CD3D05DF8040B704700BF70
:1009E8008446104662468C461946634600E000BFBE
:1009F80001B5FFF7B7FF002848BF10F1000F01BD90
:100A08004DF808EDFFF7F4FF0CBF012000205DF85A
:100A180008FB00BF4DF808EDFFF7EAFF34BF0120DF
:100A280000205DF808FB00BF4DF808EDFFF7E0FF78
:100A380094BF012000205DF808FB00BF4DF808EDC9
:100A4800FFF7CEFF94BF012000205DF808FB00BF30
:100A58004DF808EDFFF7C4FF34BF012000205DF812
:100A680008FB00BF4FEA4102B2F1E04324BFB3F5EF
:100A7800001CDCF1FE5C0DD901F0004C4FEAC0020D
:100A88004CEA5070B2F1004F40EB830008BF20F0F1
:100A98000100704711F0804F21D113F13872BCBFAB
:100AA80001F00040704741F480114FEA5252C2F100
:100AB8001802C2F1200C10FA0CF320FA02F018BF49
:100AC80040F001004FEAC1234FEAD32303FA0CFC9C
:100AD80040EA0C0023FA02F34FEA4303CCE77FEA2B
:100AE800625307D150EA01331EBF4FF0FE4040F475
:100AF8004000704701F0004040F0FE4040F4000024
:100B0800704700BF80B483B000AF0346FB7109494A
:100B180097F907305B0997F9072002F01F020120B7
:100B280000FA02F241F8232000BF0C37BD465DF8F9
:100B3800047B704700E100E080B483B000AF034657
:100B48003960FB7197F90730002B0BDA0D49FB79F7
:100B580003F00F03043B3A68D2B21201D2B20B443D
:100B68001A7609E0084997F907303A68D2B21201B3
:100B7800D2B20B4483F8002300BF0C37BD465DF8A2
:100B8800047B704700ED00E000E100E080B483B032
:100B980000AF00237B603F4A3E4B1B6C43F0805301
:100BA80013643D4A3C4B1B6843F480431360394A45
:100BB800384B1B6843F480331360364B1B6803F4CF
:100BC8000033002B0CBF01230023DBB2002B00D025
:100BD800F3E74FF480037B607B6843F004037B609A
:100BE8007B6843F428537B602A4A7B685360294B0F
:100BF8009B687B607B6843F4A0537B607B6843F40D
:100C080020437B607B6843F002037B60214A7B685A
:100C18009360224A214B1B6843F0050313601D4A69
:100C28001C4B1B6843F0807313601A4B1B6803F05E
:100C38000073002B0CBF01230023DBB2002B00D074
:100C4800F3E7144B9B6803F00803002B0CBF012348
:100C58000023DBB2002B00D0F3E7114B1B683B608D
:100C68003B681B0C3B603B6841F2010293420CBF9E
:100C780001230023DBB2002B05D0084A074B1B6871
:100C880043F48073136000BF0C37BD465DF8047BE6
:100C9800704700BF0038024000700040003C02402E
:100CA800002004E080B400AF204A204B1B6B43F0C7
:100CB800010313631D4A1D4B1B6C43F0005313645F
:100CC8001B4A1B4B1B6843F001031360184A184B5F
:100CD8001B6843F002031360154A154B1B6843F069
:100CE80004031360124A124B1B6843F03803136065
:100CF8000F4A0F4B1B6843F4803313600C4A0C4BAC
:100D08001B6843F400331360094A094B1B6843F41A
:100D180080231360064A064B1B6843F46013136074
:100D280000BFBD465DF8047B704700BF0038024035
:100D38000074004080B400AF0B4A0B4B1B6B43F0B0
:100D480004031363094A094B1B6823F440531360D7
:100D5800064A064BDB6843F48053D36000BFBD46A8
:100D68005DF8047B704700BF00380240000802406D
:100D780080B500AF194A194B1B6C43F0020313648A
:100D8800174A184B1B681849A1FB03131B0B9BB28E
:100D98001385134B0122DA62114A114B9B899BB2CE
:100DA80043F001039BB293811D20FFF7ABFE0621A0
:100DB8001D20FFF7C1FE0A4A094B1B889BB243F06E
:100DC80001039BB21380064A054B9B8A9BB243F0F2
:100DD80001039BB2938200BF80BD00BF0038024070
:100DE8000004004024100020F119760580B400AFFB
:100DF8008A4A8A4B1B6C43F0010313644FF080420C
:100E08004FF080439B889BB243F040039BB2938092
:100E18004FF0804313221A854FF080436322DA6231
:100E28004FF0804331225A634FF080424FF08043A5
:100E38001B8C9BB243F001039BB213844FF080429A
:100E48004FF080431B8B9BB243F060039BB213832C
:100E58004FF080424FF080431B889BB243F0010360
:100E68009BB213806D4A6D4B1B6B43F001031363F8
:100E78006A4A6A4B1B6B43F002031363674A674B6A
:100E88005B6C43F400735364654A654B1B6843F01D
:100E98000C031360624A624B1B6843F00303136040
:100EA800604A604B1B6843F00C0313605D4A5D4B5E
:100EB8001B6843F0300313605B4A5B4B5B6843F489
:100EC80080735360584B4FF44012DA62564A564BBF
:100ED8005B6B43F008035363534A534B5B6B43F418
:100EE80090735363504A504B5B6B43F48063536376
:100EF8004D4A4D4B5B6B43F4803353634A4A4A4B2C
:100F08001B6943F040731361474A474B1B6943F021
:100F1800C0531361444A444B1B6943F018031361DF
:100F2800414A414B1B6943F0C00313613E4A3E4BA3
:100F38009B6843F4806393603B4A3B4B9B6843F058
:100F480080539360384A384B9B6843F0C063936082
:100F5800354A354B9B6843F480739360324A324B71
:100F68009B6843F4007393602C4A2C4B1B6B43F42F
:100F7800800313632D4A2D4B1B6823F0C0031360B5
:100F88002A4A2A4B1B6843F400331360274A274B2D
:100F98001B6843F400631360244A244B1B6843F422
:100FA80000531360214A214B1B6823F4007313601C
:100FB8001E4A1E4B1B6843F4806313601B4A1B4B7D
:100FC8001B6843F480731360184A184B1B6823F09E
:100FD800C0031360154A154B5B6843F00403536064
:100FE800124B134A9A60114B124ADA600F4A0F4BA0
:100FF8001B6843F0007313600C4A0C4B1B6843F0EA
:1010080001031360084A084B9B6843F0010393608F
:1010180000BFBD465DF8047B704700BF0038024042
:1010280000040240000002400021014040640240E8
:101038004C210140BC10002080B582B000AF87ED84
:10104800010AC7ED000AD7ED000A97ED010A00F082
:10105800DDFBF0EE407AB0EE670A0837BD4680BD8A
:1010680080B400AF184B1B8A9BB203F00103002B1E
:1010780014BF01230023DBB2002B1FD0124A124BEE
:101088001B8A9BB223F001039BB213820F4A0F4BBA
:101098005B6843F0010353600C4A0C4B5B6843F0F8
:1010A800020353600A4B1B78002B04D0094B1B68C2
:1010B8000133084A1360064B01221A7000BFBD466F
:1010C8005DF8047B704700BF0004004000740040D6
:1010D800C4100020DC10002080B485B000AF786018
:1010E80039603B68D3ED007AFDEEE77A17EE903A67
:1010F8009B007A6813441B68FB603B68D3ED007A59
:10110800FDEEE77A17EE903A0133154A126893FB21
:10111800F2F102FB01F29B1A9B007A6813441B68E8
:10112800BB6097ED027AD7ED037A37EE677A3B68B2
:10113800D3ED006A3B68D3ED007AFDEEE77AF8EE6E
:10114800E77A76EEE77A27EE277AD7ED037A77EE15
:10115800277AB0EE670A1437BD465DF8047B7047FE
:101168000810002080B586B000AFF86087ED020A4D
:10117800C7ED010A87ED001AD7ED027A9FED2C7AA8
:1011880067EE877AFDEEE77A17EE903A9B00FA68E9
:101198001344D3ED007A9FED267A27EE877AD7EDB0
:1011A800017A67EE277A234BC3ED007A97ED027A2E
:1011B800D7ED007A77EE277A9FED1D7A27EE877AAA
:1011C8001C4BD3ED007A77EE277AC7ED057AD7ED79
:1011D800057A9FED177AF4EEC77AF1EE10FA00DC83
:1011E80008E0D7ED057A9FED127A77EEC77AC7ED5A
:1011F800057AECE7D7ED057AF5EEC07AF1EE10FA4C
:1012080008D5D7ED057A9FED0A7A77EE877AC7ED8C
:10121800057AEFE707F1140319460748FFF75CFF63
:10122800F0EE407AB0EE670A1837BD4680BD00BFC1
:1012380000008044CC100020080000202DE9B043B5
:101248008CB000AF00F030FAFFF7A0FC00F062FAB3
:101258004FF48063BB62BB6A591E79620B46013347
:101268001A464FF000034FEA431949EAD2694FEA98
:1012780042180B4601331A464FF000035D0145EA58
:10128800D26554010B4601339B0003330733DB0857
:10129800DB00ADEB030D6B4603339B089B003B6201
:1012A8000023FB62FA6ABB6A9A4224DAFB6A07EEF9
:1012B800903AF8EEE77AB1EE007A27EE877ADFED1A
:1012C800BD6AC7EE267AC7ED077AD7ED070AB0EEF2
:1012D800000AFFF7B1FEB0EE407ADFEDB77A67EEAD
:1012E800277A3A6AFB6A9B001344C3ED007AFB6ACB
:1012F8000133FB62D6E7FFF71DFDFFF7D3FCFFF7CD
:1013080037FDFFF773FD4FF00003BB614FF000039B
:101318007B610023FB74A94B1B889BB207EE903AB4
:10132800F8EEE77AB6EE007A27EE877AA44B1B88A8
:101338009BB207EE903AF8EEE77AF6EE006A67EEAF
:10134800A67A77EE277AFCEEE77AC7ED017ABB88B2
:101358009AB29A4B1A809A4B9B889BB21A46994B21
:101368001B7803FB02F3002B01DA03F6FF731B1350
:10137800DAB2954B1A70924BDB889BB21A46914BA6
:101388001B7803FB02F3002B01DA03F6FF731B1330
:10139800DAB28E4B1A708E4B1B78002B00F032811C
:1013A800874B5B889BB2C3F56D63083307EE903AB1
:1013B800B8EEE77ADFED876AC7EE267A864BC3ED8B
:1013C800007A814B1B78DBB21A46844B53F82220F3
:1013D800834BD3ED007A9FED837AC7EE876A7E4B05
:1013E800D3ED007A9FED801AF0EE670AB0EE660A38
:1013F8001046FFF7B7FE87ED030A744B1B78DBB284
:101408001A46764B53F82220784BD3ED007A9FED9D
:10141800757AC7EE876A9FED741AF7EE000AB0EE88
:10142800660A1046FFF79EFE87ED020A704B1B788E
:10143800002B14D06F4B97ED037AD7ED027A67EE45
:10144800277AB7EE007A77EE877A9FED6B7A67EEA8
:10145800877AFDEEE77A17EE902A9A600FE0654BDF
:10146800D7ED037AB7EE007A77EE877A9FED627A46
:1014780067EE877AFDEEE77A17EE902A9A605D4B61
:10148800D7ED027AB7EE007A77EE877A9FED5A7A2F
:1014980067EE877AFDEEE77A17EE902A5A614C4B91
:1014A80000221A70454B1B889BB29B089BB23A6A74
:1014B8009B0013441B68514A1360FB7C032B2FD8F5
:1014C80001A252F823F000BFE1140008EB14000851
:1014D8000115000813150008484B1B68484A13609B
:1014E8001EE0464B93ED007AF0EE006AC7EE267ACE
:1014F800434BC3ED007A13E0404BD3ED007A77EE0F
:10150800A77A3F4BC3ED007A0AE03C4BD3ED007A53
:10151800B2EE047A77EE877A394BC3ED007A00BFD2
:10152800364BD3ED007A2E4B93ED007A77EE277A7F
:101538002B4BC3ED007A2A4BD3ED007A9FED297A25
:10154800F4EEC77AF1EE10FAACBF01230023DBB248
:10155800002B0AD0224BD3ED007A9FED227A77EE4A
:10156800C77A1F4BC3ED007AE5E7254BD3ED007A28
:101578001E4B93ED007A77EE277A1C4BC3ED007A69
:101588001A4BD3ED007A9FED177AF4EEC77AF1EE95
:1015980010FAACBF01230023DBB2002B32D0134B6F
:1015A800D3ED007A9FED0F7A77EEC77A0F4BC3ED34
:1015B800007AE5E7004012C400000E45C81000207C
:1015C800BC10002020100020E0100020E1100020B6
:1015D800C410002000004844D81000200C1000203F
:1015E800D010002000803B4700000000D4100020ED
:1015F800C51000200074004000E0FF4400000020F7
:1016080004000020104B1B6903F04003002B0CBFA3
:1016180001230023DBB2002B12D00C4B1B7883F084
:101628000103DBB2002B3FF476AE094B1B7883F045
:101638000103DAB2064B1A70044B01221A706AE6EB
:10164800024B00221A7066E600080240C61000200D
:10165800C5100020DFF834D0002103E00C4B5B58A4
:10166800435004310B480C4B42189A42F6D30B4AAC
:1016780002E0002342F8043B094B9A42F9D300F0F8
:1016880013F800F05DFEFFF7D9FD70470000022057
:10169800E073000800000020A0100020A010002027
:1016A800E4100020FEE7000080B400AF164A164B95
:1016B800D3F8883043F47003C2F88830134A134BC8
:1016C8001B6843F001031360104B00229A600F4A15
:1016D8000E4B1B6823F0847323F4803313600B4B89
:1016E8000B4A5A60094A094B1B6823F4802313608C
:1016F800064B0022DA60044B4FF000629A6000BF8C
:10170800BD465DF8047B704700ED00E000380240FC
:101718001030002480B487B000AF00233B61002361
:101728007B610223FB600023BB6002237B60324B9A
:101738009B6803F00C033B613B69042B07D0082B23
:1017480009D0002B3DD12D4B2D4A1A603DE02B4B83
:101758002C4A1A6039E0284B5B689B0D03F00103A3
:10176800BB60254B5B6803F03F037B60BB68002BC5
:101778000CD0244A7B68B2FBF3F31F4A52689209E3
:10178800C2F3080202FB03F37B610BE01C4A7B688F
:10179800B2FBF3F3184A52689209C2F3080202FB3B
:1017A80003F37B61144B5B681B0C03F003030133E9
:1017B8005B00FB607A69FB68B2FBF3F30F4A1360C6
:1017C80003E00E4B0E4A1A6000BF0B4B9B681B09C7
:1017D80003F00F030C4AD35CDBB23B61074B1A687A
:1017E8003B6922FA03F3054A136000BF1C37BD4664
:1017F8005DF8047B704700BF0038024024100020C9
:101808000024F40000127A002810002070B52DED95
:10181800048BB54C8AB0F0EE408AB0EE608A00F0D6
:1018280071F994F900506B1CB0EE409A26465DD0D1
:10183800B4EE488AF1EE10FA58D6F4EE688AF1EE62
:1018480010FA21D7B5EE408AF1EE10FA4ED10123F5
:101858000093A64B019318EE900A00230893FEF715
:1018680013FECDE9020118EE100AFEF70DFEA04B9B
:101878000022022DCDE90401CDE9062330D06846C7
:1018880000F049FC30BB62E0F5EE408AF1EE10FA58
:1018980062D1B5EE408AF1EE10FA2DD10123009302
:1018A800924B019318EE900A00230893FEF7ECFD83
:1018B800CDE9020118EE100AFEF7E6FD002200232A
:1018C800CDE90401CDE90623002DD8D0884B0022AC
:1018D800CDE90623089B1BB100F02CFD089B036093
:1018E800DDE90601FFF7BEF809EE100AB0EE490A75
:1018F8000AB0BDEC048B70BDB0EE480A00F09DFC48
:101908000028F3D0B5EEC08AF1EE10FAEED5012327
:101918000093764B019318EE900A00230893FEF784
:10192800B3FDCDE9020118EE100AFEF7ADFD94F9FA
:101938000030CDE9040123B900220023CDE90623B4
:101948009DE76C490020CDE90601022B97D100F0F4
:10195800F1FC21230360BDE700F06FFC0546002879
:1019680040F09180B0EE680A00F067FC002800F0B3
:101978008A80B0EE480A00F060FC002800F08380FE
:10198800B4EE499AF1EE10FA94F90040574B1BD780
:10199800012218EE900A8DE80C000895FEF774FDF8
:1019A800CDE9020118EE100AFEF76EFD0022CDE91E
:1019B80004010023002CC1D010461946FEF7E2FEB0
:1019C800022CCDE90601C1E7032218EE900A8DE842
:1019D8000C000895FEF758FDCDE9020118EE100A33
:1019E800FEF752FDCDE904015CBB434BF5EEC08A1E
:1019F8004FF06042F1EE10FACDE906236CD5F6EE11
:101A0800007A68EE277A17EE900AFEF73DFD044645
:101A18000D4645EC104B00F081FB204653EC102B93
:101A28002946FEF7EDFF20B9344B4FF06042CDE96F
:101A3800062396F90030022B4ED100F07BFC2223BE
:101A480088E72F4BF5EEC08A0022F1EE10FACDE9B7
:101A58000623EED5F6EE007A68EE277A17EE900A9E
:101A6800FEF712FD04460D4645EC104B00F056FB00
:101A7800204653EC102B2946FEF7C2FF0028D8D188
:101A880000221C4BD3E7B5EE409AF1EE10FA7FF432
:101A98002DAFB0EE680A00F0D0FB00283FF426AF67
:101AA800B0EE480A00F0C9FB00283FF41FAF04233A
:101AB80000930E4B019318EE900A00230893FEF74B
:101AC800E3FCCDE9020118EE100AFEF7DDFC002266
:101AD800CDE904010023AAE7684600F01CFB0028B2
:101AE8007FF4F8AEA9E700BF38100020A8730008FB
:101AF8000000F03F0000F0FFFFFFEF47FFFFEFC7D8
:101B08000000F07F2DE9F04110EE905A35F00047C3
:101B18002DED028BB0EE408AF0EE608A00F09582DF
:101B280010EE108A28F00044B4F1FF4F06DCB7F13C
:101B3800FF4F0ADDB4F17E5F00F08782BDEC028BB7
:101B4800D948BDE8F04100F083BBB8F1000F1DDAB9
:101B5800B7F1974F2CDAB7F17E5F30DBFB15C3F195
:101B6800960347FA03F606FA03F39F4227D106F0D5
:101B78000106C6F10206B7F17E5F22D1002D80F280
:101B88006A82F7EE007A87EE880A0DE00026B7F140
:101B9800FF4FF0D1B4F17E5F00F057820ADD002DCF
:101BA80080F256829FEDC10ABDEC028BBDE8F08140
:101BB8000226ECE7002DF5DAB1EE680AF4E7002614
:101BC800D9E7B5F1804F02D128EE080AECE7B5F164
:101BD8007C5FB0EE480A08D1B8F1000F05DBBDEC18
:101BE800028BBDE8F04100F04FBA00F01FFB24B1B2
:101BF80028F04043B3F17E5F17D1002DBCBFF7EE4C
:101C0800007A87EE800AB8F1000FCDDAA4F17E548D
:101C180054EA060304D170EE407A87EEA70AC3E7B8
:101C2800012EC1D1B1EE400ABEE74FEAD8700138A3
:101C380056EA000304D138EE488A88EE080AB3E76A
:101C4800B7F19A4F6DDD9A4B9C4206DC002DA9DA5C
:101C58009FED980A20EE000AA6E7974B9C4202DD0A
:101C6800002DF5DC9EE7F7EE007A30EE670A9FED6F
:101C7800937A9FED936AF1EE406AF5EE007AA6EE4C
:101C8800A77AF6EE007AE6EE877A20EE007A27EE5B
:101C9800877ADFED8C7A67EEC77A9FED8B7AE0EE74
:101CA800077AB0EE677AA0EE067A17EE103A23F4B8
:101CB8007F6323F00F0307EE103AA6EE867A77EEDD
:101CC800C77A25F47F6525F00F0507EE105A67EEF1
:101CD800A87A78EEC78A07EE103A06EE905AE7EE31
:101CE800287A013E56EA000227EE267ABFEE000A5D
:101CF80077EE876AB7EE008A16EE904A08BFB0EE14
:101D0800408A002C24F0004340F38681B3F1864FCB
:101D180040F3FC80DFED677A28EE270A20EE270AD9
:101D280042E7B4F5000FBFBFDFED687A60EE277AAF
:101D38006FF0170217EE904A4FEAE453A8BF00224B
:101D48007F3B1344624AC4F31604944244F07E5124
:101D580006DD604A944240F3A5800133A1F50001F5
:101D680000245D4AA7003A4407EE901A92ED007AE3
:101D78005A4A77EE876AF7EE005A85EEA65A491056
:101D880041F0005101F5802101EB445137EEC76A5B
:101D980006EE901A66EE054A14EE90EA02EA0E0E76
:101DA80005EE90EAB1EE654AA4EE266A76EEC76AB9
:101DB80035EEA47A77EEE66ADFED497AA4EE266A74
:101DC80066EE056A24EEA46A9FED465AE6EE057AA9
:101DD8009FED455AA6EE275ADFED387AE6EE057AEA
:101DE8009FED425AA6EE275ADFED417AE6EE057AD4
:101DF80066EE063AB0EE085A27EE267AB0EE456A45
:101E0800A3EEA77AA5EEA56A36EE076A16EE101AB3
:101E1800114006EE101A76EE457A9FED365AE4EE3A
:101E2800257A77EE677A67EEA47AE6EE267AB0EE40
:101E3800677AA5EE867A17EE101A114007EE101A87
:101E4800A4EE067A05EE901A77EEC77A9FED2A7A05
:101E58002A4967EE877A9FED2A7AE5EE877A394430
:101E680091ED007A37EE877A07EE903AB0EE476A3E
:101E7800244BA5EE856A3B44D3ED004AF8EEE76AA9
:101E880036EE246A76EE267A17EE903A134007EE7D
:101E9800903A77EEE67A77EEE47AE5EEC57A77EE71
:101EA800677A0EE701245CE7AC73000800000000C5
:101EB800F7FF7F3FCAF249710700803FABAAAA3EED
:101EC80000AAB83F3BAAB83F70A5EC360000804B8B
:101ED80071C41C00D6B35D00B073000800F0FFFFAA
:101EE80055326C3E42F1533E05A38B3EB76DDB3E47
:101EF8009A99193F0038763F4F38763FC0730008EB
:101F0800A0C39D36B87300083CAA383340F09480CB
:101F18001FED036A76EEC76A37EE866AB4EEE66AA4
:101F2800F1EE10FA3FF7F6AEDB15A3F17E004FF4A1
:101F3800000303412344C3F3C75248497F3A114180
:101F480023EA0101C3F3160006EE901A40F40000DC
:101F5800C2F117021041002C37EE667AB8BF404232
:101F680077EE276A9FED3E6A16EE903A23F47F6378
:101F780023F00F0306EE903A36EEC77A77EEC77A6B
:101F88009FED387A26EE877AA7EE867AF0EE477AC2
:101F98009FED357AB0EE670AA6EE870AB0EE406A82
:101FA800A6EEC76A20EE007A77EEC67ADFED2F6AD2
:101FB8009FED2F6AA7EE266ADFED2E6AE7EE066A26
:101FC8009FED2D6AA7EE266ADFED2C6AE7EE066A1A
:101FD800B0EE406AA7EE666AF0EE006AB0EE467AA6
:101FE80077EE666A20EE066AE0EE277A86EE267AB3
:101FF80077EE677A37EEC00AF7EE007A37EEC00A56
:1020080010EE103A03EBC053B3F5000F1ADA00F0E4
:1020180025F920EE080AC7E5194A934202DDDFEDEB
:10202800197A79E608D176EEC76AF4EEE67AF1EE27
:1020380010FA3FF679AFF2E7B3F17C5F3FF774AF80
:1020480000208DE700EE103AE3E7B7EE000AABE5B3
:10205800B0EE680AA8E5B0EE480AA5E5FFFF7F00E4
:102068001872313F8CBEBF350072313F4CBB3133E3
:102078000EEADDB555B38A38610B36BBABAA2A3EEA
:10208800000016436042A20D10EE102A22F0004113
:10209800B1F1FF4F70B502D3A0EE000A70BDB1B325
:1020A800002A04DA70EE407A87EEA70A70BDB1F50F
:1020B800000F4FEAE25304D20021100228D501395B
:1020C8005B1A7F3BC2F31602D90742F4000248BFED
:1020D800520059100023520019241E464FF08070F8
:1020E80035189542DEBF2E18521B1B18013C4FEACB
:1020F80042024FEA5000F3D112B1013323F0010339
:102108005B1003F17C5303EBC15300EE103A70BD32
:1021180052000131D1E7002070470000F7B551ECBB
:10212800100BC1F30A54A4F2FF36132E10EE107AE6
:102138000B4602464FEAD17558DC002E2BDA21F007
:102148000042024323D0C1F3130202435142114318
:10215800090B5B0C01F400215B0441EA0307314BD6
:1021680003EBC5033946D3E9006710EE100A32467F
:102178003B46FEF72BF8CDE900013B463246DDE948
:102188000001FEF721F821F0004343EAC57141EC54
:10219800100B03B0F0BD244C344101EA0407074397
:1021A800F5D0610803EA010002430BD023EA0101DC
:1021B8004FF48023132E43FA06F30CBF4FF000426E
:1021C80000220B431946174B03EBC505D5E900451B
:1021D80010462B462246FDF7F9FFCDE900012246BD
:1021E8002B46DDE90001FDF7EFFFD0E7332E08DDD0
:1021F800B6F5806FCBD110EE102A0B46FDF7E6FF3F
:10220800C5E7A4F213464FF0FF34F4402042BED095
:1022180061080F421FBF4FF0804227EA0101324197
:102228000A43CFE7C8730008FFFF0F0010EE103A0B
:1022380023F0004300EE103A704710EE103A23F0F6
:102248000040B0F1FF4FACBF0020012070470000F4
:102258009FED010A704700BF0000C07F08B510EE6F
:10226800102A32F000432DED028BF0EE400A04D024
:10227800B3F1FF4F06D370EE000ABDEC028BB0EE4F
:10228800600A08BDB3F5000F1CD21F4BDFED1F7AA3
:10229800984260EE270A10DB10EE902AC2F3C7536B
:1022A800193B0344FE2B0FDD9FED198AB0EE480A57
:1022B80000F034F860EE080ADFE7DFED167A60EE2A
:1022C800A70ADAE7DB0DECE7002B06DD22F0FF4278
:1022D80042EAC35300EE903ACFE713F1160F06DA3D
:1022E8004CF250339842DFDC9FED0A8ADEE719335F
:1022F80022F0FF4242EAC353DFED077A07EE103AB5
:1023080067EE270AB9E700BFB03CFFFF0000004CAA
:10231800CAF249716042A20D0000003310EE103A73
:1023280010EE902A23F0004302F00042134300EE1F
:10233800103A7047014B1868704700BF3C100020E6
:1023480070B50D4E0D4CA41BA4100025A54209D153
:102358000B4E0C4C00F018F8A41BA4100025A54245
:1023680005D170BD56F8253098470135EEE756F887
:10237800253098470135F2E7D8730008D87300086C
:10238800D8730008DC730008F8B500BFF8BC08BCB7
:102398009E467047F8B500BFF8BC08BC9E4670471B
:1023A8000000000041D73E391BD5E939E5D44E3A43
:1023B800A5129E3AA7E7DD3A2E53133B0EF53B3B99
:1023C8005796683B21938C3BD9B0A63B8E93C23B72
:1023D800782AE03BD064FF3BE718103C8944213C55
:1023E800B728333CA3C9453C8716593C94136D3C28
:1023F80033DC803C67808B3C4B74963CFAB9A13C3B
:10240800404DAD3C1F2EB93C7D5AC53C8CD6D13CC5
:102418001B9EDE3C29B1EB3CE813F93C2062033DEE
:1024280030630A3D198C113DF4DE183DC05B203D38
:10243800A305283D9CDC2F3DD2E3373D5C1D403D84
:10244800488A483DC72E513D0A0F5A3D2C2D633D01
:10245800758F6C3D193A763DBD1A803DF243853D36
:10246800E99D8A3DEC2E903DCEFD953DEFE6A93DD8
:10247800B9C5BC3D54A8CE3DD09ADF3DB5A8EF3DC7
:102488008BDDFE3D2BA2063E43730D3E08E7133E4F
:10249800EF011A3EB0C81F3EF73E253E38692A3E76
:1024A800994A2F3E4BE7333EEE41383E705E3C3E44
:1024B800703F403E14E8433EB85A473E809A4A3E31
:1024C80086A94D3E698A503E423F533E2ACA553E30
:1024D800382D583E876A5A3EA9835C3E747A5E3E20
:1024E800BE50603ED507623E4DA1633EB81E653EB4
:1024F8002481663E21CA673E01FB683E8C146A3E11
:1025080011186B3EE2066C3E82E16C3E00A96D3EFE
:10251800AB5E6E3E08036F3EE1966F3E001B703E59
:102528007190703E77F7703EDB50713EAA9D713E08
:10253800E3DD713E9412723E003C723EAB5A723E2D
:10254800616F723E207A723EB37B723E9F74723E18
:10255800E564723E4D4D723ED82D723E4F07723E75
:10256800B2D9713E44A5713E8C6A713ECC29713E48
:1025780047E3703EFF96703E7845703EF6EE6F3E3C
:1025880079936F3E87336F3EDDCE6E3E45666E3E75
:1025980038F96D3E7F886D3E1A146D3E0B9C6C3E7B
:1025A80092206C3EB2A16B3EEF1F6B3E079B6A3ECA
:1025B8003C136A3E9088693E44FB683E9C6B683ECB
:1025C80055D9673EB344673EB4AD663E9C14663E3B
:1025D8006C79653E66DC643E473D643E529C633ED2
:1025E80087F9623E2A55623EF7AE613E3107613E89
:1025F800D95D603EEEB25F3EB3065F3E29595E3E4E
:102608000DAA5D3EE4F95C3E6B485C3EA3955B3EDB
:102618008BE15A3EAA2C5A3E7976593E3CBF583E29
:10262800F206583E9C4D573E7D93563E51D8553E36
:10263800191C553E185F543E4DA1533EB9E2523E17
:102648001823523EF162513EBEA1503E05E04F3E76
:10265800821D4F3E365A4E3E64964D3E85D14C3EC5
:10266800630C4C3E78464B3EC37F4A3E88B8493E91
:10267800C7F0483E8028483E705F473E1C96463E5D
:10268800FFCB453E5C01453E3336443E836A433EBC
:102698004D9E423E91D1413E9204413ECA36403E53
:1026A800BE683F3E2C9A3E3E58CB3D3EB9FB3C3E71
:1026B800D82B3C3E705B3B3EC68A3A3E95B9393EC4
:1026C80021E8383E2716383EA643373EE370363EAB
:1026D800DC9D353E4FCA343E7FF6333E2922333ED9
:1026E800904D323E7078313E0EA3303E68CD2F3E7D
:1026F8007FF72E3E10212E3E5E4A2D3E69732C3EFA
:10270800ED9B2B3E72C42A3E70EC293EE813293E0D
:10271800603B283E9562273E4489263EB0AF253E61
:10272800D8D5243EBDFB233E6021233EBF46223E32
:10273800DB6B213E7190203E07B51F3E5AD91E3EE5
:1027480026FD1D3EF3201D3E39441C3E7F671B3E7F
:10275800408A1A3E00AD193E3ACF183E73F1173E33
:102768006A13173EDB34163E4B56153E7977143EF6
:102778006398133E0AB9123E6FD9113E90F9103E84
:10278800B119103E4B390F3EE6580E3E3E780D3ECD
:1027980053970C3E24B60B3EB2D40A3EFEF2093ED5
:1027A8004911093E512F083E164D073E986A063ECC
:1027B800D787053E16A5043E12C2033ECADE023E76
:1027C80040FB013EB517013EE833003EAE9FFE3D9B
:1027D80006D7FC3D5E0EFB3DAA44F93D7C7BF73DE8
:1027E80042B1F53D08E7F33D471CF23D0151F03D8C
:1027F800BA85EE3D67B9EC3D9AEDEA3DC020E93D6A
:10280800E753E73D8786E53D28B9E33D42EBE13DE7
:10281800D61CE03D6A4EDE3D787FDC3DFFAFDA3DF9
:1028280087E0D83D8810D73D0340D53D7E6FD33D26
:10283800739ED13D68CDCF3DD7FBCD3DBF29CC3D63
:10284800A857CA3D9085C83D6CB2C63D48DFC43D17
:10285800240CC33D7A38C13D4964BF3D1990BD3D44
:1028680062BBBB3DACE6B93D6F11B83D323CB63DED
:102878006F66B43D2590B23DDCB9B03D93E3AE3D03
:10288800C30CAD3D6E35AB3D185EA93D3C86A73DFA
:1028980060AEA53D84D6A33D9CFDA13D3925A03D54
:1028A800514C9E3DE2729C3D74999A3D7FBF983D84
:1028B8008AE5963D950B953D1A31933D1956913D04
:1028C800187B8F3D17A08D3D8FC48B3D81E8893DD6
:1028D800740C883D6630863D5854843D3E77823D71
:1028E800AA9A803D207B7D3DDFBF793D9F04763DE0
:1028F8005E49723D118D6E3DC4D06A3D6A13673DD5
:102908001156633DB7985F3D51DA5B3DEB1B583D6F
:10291800795C543D069D503D87DC4C3D151D493D75
:102928008A5B453D0B9B413D7FD93D3DE8163A3DCD
:102938005054363DB891323D14CE2E3D7C0B2B3D84
:10294800CC46273D1B82233D6ABD1F3DBAF81B3D7F
:10295800FD32183D406D143D76A6103DB9E00C3DA2
:10296800E318093D1A52053D448A013DDC84FB3CCD
:1029780017F3F33C5261EC3C8DCFE43CB03BDD3CBB
:10298800D2A7D53CF513CE3CFE7DC63C08E8BE3C3C
:102998001152B73C02BAAF3CF321A83CE389A03CF2
:1029A800BBEF983C9355913C6BBB893C4221823CE0
:1029B800030A753C81D1653CCD94563C4B5C473C41
:1029C800971F383CB1DE283CFDA1193C17610A3C31
:1029D8000038F63B35B6D73B062CB93BD7A19A3B16
:1029E800512F783B2D0A3B3B10CAFB3AC77F813AEF
:1029F8000F7E6238B16C66BA2FA2EDBACA1734BB23
:102A0800B64D71BB344A97BB8DEDB5BB4A99D4BB63
:102A1800A33CF3BB30F408BC0E4A18BC1EA427BC68
:102A2800FDF936BC0D5446BC1DAE55BC5F0C65BCEB
:102A3800A16A74BC58E281BC929389BCB34291BC30
:102A4800EDF398BC27A5A0BC6056A8BC9A07B0BCFB
:102A5800EDBAB7BC3F6EBFBC9221C7BCE5D4CEBCB3
:102A68003788D6BCA33DDEBC0EF3E5BC7AA8EDBC26
:102A7800FE5FF5BC8317FDBC776602BD464306BD05
:102A8800081F0ABDCAFA0DBD99D711BD67B415BD97
:102A9800369119BD116F1DBDE04B21BDBB2925BD68
:102AA800960729BD71E52CBD59C430BD34A234BD8B
:102AB8001B8138BD03603CBDEA3E40BDDE1E44BDFF
:102AC800D2FE47BDBADD4BBDADBD4FBDAE9E53BDB9
:102AD800A27E57BDA25F5BBD963F5FBD962063BDDA
:102AE800970167BDA4E36ABDA4C46EBDB1A672BD5B
:102AF800BE8876BDCA6A7ABDD74C7EBDF81781BD3F
:102B0800FF0883BD8BFA84BD18EC86BDA5DD88BDA2
:102B180031CF8ABD44C18CBDD1B28EBDE3A490BD76
:102B2800F69692BD098994BDA27B96BDB56D98BDF8
:102B38004E609ABDE7529CBDFA449EBD1938A0BDAF
:102B4800B22AA2BD4B1DA4BD6B10A6BD202982BD13
:102B5800A54E40BD60C7FFBCB0CA85BC4D6812BB5E
:102B6800B806363C3276C23C7C2B123D7D76403D21
:102B78009F3C6C3D3ED08A3D315F9E3D5EDAB03D64
:102B8800EC4FC23DEACBD23DEE5AE23D8D09F13D14
:102B9800CAE2FE3D90F8053E431F0C3E79EA113E1D
:102BA800EA5E173E84801C3EBD53213E40DC253E34
:102BB800FC1D2A3E9B1C2E3E44DB313E1C5D353EEF
:102BC80005A5383E67B63B3EE2933E3E8E3F413E0A
:102BD8004DBC433E7C0C463E7632483ECF2F4A3EA3
:102BE80025074C3EC7B94D3E124A4F3E99B9503E53
:102BF800365C543EAFD0573EDB185B3E8F365E3EA8
:102C0800282C613EB1FA633E01A4663EED29693E77
:102C1800088E6B3E5FD16D3E84F56F3E09FC713EB8
:102C28003FE6733EEEB4753E6669773E3A05793EF7
:102C3800F0887A3ED8F57B3EBA4C7D3EE78E7E3EE4
:102C4800E4BC7F3EDF6B803EFEEF803E766B813ECC
:102C58006ADE813E5E49823E97AC823E7808833EBA
:102C6800255D833E22AB833E91F2833ED733843E7B
:102C7800156F843EB1A4843ECCD4843E86FF843E46
:102C88004625853E2C46853E7C62853E577A853EA4
:102C9800008E853E779D853E00A9853EBCB0853E69
:102CA800EEB4853E95B5853ED5B2853E10AD853EE0
:102CB80005A4853E1898853E4889853EB877853EA7
:102CC8008863853EDB4C853EB133853E2B18853EB7
:102CD80048FA843E4DDA843E39B8843E2D94843EC9
:102CE8002B6E843E3046843E611C843EDCF0833E7D
:102CF800A4C3833ED994833E7C64833E8B32833E57
:102D080009FF823E36CA823E1494823E815C823E2E
:102D1800C023823E8EE9813E4FAE813EE371813E03
:102D28004834813EA1F5803EEEB5803E2E75803E4A
:102D38006133803E54E17F3E105A7F3EF6D07E3E9E
:102D480006467E3E41B97D3EE92A7D3EFE9A7C3E9E
:102D580081097C3E71767B3ECEE17A3EDC4B7A3E41
:102D680057B4793E821B793E1B81783EA8E5773EB1
:102D7800E448773ED2AA763E700B763E016B753EEC
:102D880086C9743EBB26743EE482733EBEDD723E45
:102D9800CE37723ED190713E86E8703E703F703EED
:102DA80092956F3E64EA6E3E6C3E6E3EAC916D3E0F
:102DB800DEE36C3E48356C3EE8856B3E7CD56A3E6A
:102DC80046246A3E4772693E7FBF683EED0B683E07
:102DD800D657673EB1A2663EC4EC653E5036653EA6
:102DE800137F643E0DC7633E800E633E2A55623EE4
:102DF8000B9B613E65E0603EF624603E01695F3EE4
:102E080086AC5E3E41EF5D3E77315D3E26735C3EAB
:102E18000BB45B3E6BF45A3E44345A3E9773593EAA
:102E280064B2583EAAF0573E272E573E616B563E75
:102E3800D2A7553EBDE3543E641F543E865A533EC6
:102E4800DD94523EF2CE513E8108513E8941503EBA
:102E58000B7A4F3E4AB24E3EC0E94D3EF3204D3EFE
:102E6800E2574C3E088E4B3EEBC34A3E48F9493E7A
:102E7800622E493EF662483E0397473ECDCA463E1B
:102E880011FE453ECF30453E4963443E8195433E61
:102E980032C7423E5DF8413E4529413EEA59403E2F
:102EA800098A3F3EE5B93E3E3AE93D3E4C183D3E73
:102EB800D8463C3E21753B3E27A33A3EEAD0393EF0
:102EC80026FE383E1F2B383E9357373EC383363E87
:102ED800B0AF353E59DB343E7D06343E5D31333E7E
:102EE800FB5B323E5586313E6CB0303EFDD92F3EFD
:102EF8004B032F3E562C2E3E1D552D3EA27D2C3EBB
:102F0800A0A52B3E9FCD2A3E17F5293E4C1C293EF5
:102F18003D43283EEC69273E5890263E80B6253E24
:102F280066DC243E0802243E2427233E404C223EF1
:102F38001971213E6C95203EBFB91F3ECEDD1E3E65
:102F480058011E3EE1241D3E28481C3E2B6B1B3EAB
:102F5800A88D1A3E25B0193E5FD2183E56F4173E8A
:102F68000916173EBD37163EEA58153ED579143E68
:102F7800BF9A133E23BB123E87DB113EA9FB103ECE
:102F8800861B103E213B0F3E795A0E3ED1790D3EED
:102F9800A2980C3E74B70B3E02D60A3E4DF4093E89
:102FA8009912093E5E30083E234E073EA56B063E49
:102FB800E388053E22A6043EDBC2033E93DF023EC1
:102FC80009FC013E7E18013E6E34003EBAA0FE3D6B
:102FD80099D8FC3D6B0FFB3D3D46F93D897CF73D9B
:102FE8004FB2F53D14E8F33D541DF23D0D52F03D4E
:102FF8004086EE3D73BAEC3D20EEEA3DCD21E93D39
:10300800F354E73D9487E53DAEB9E33DC8EBE13DB8
:103018005C1DE03DF04EDE3DFE7FDC3D85B0DA3DD7
:103028000DE1D83D0E11D73D8940D53D0470D33D03
:10303800F99ED13DEECDCF3D5DFCCD3D452ACC3D41
:103048002E58CA3D9085C83DF2B2C63DCEDFC43D7C
:10305800240CC33D7A38C13DD064BF3D1990BD3DB5
:10306800E8BBBB3DACE6B93D6F11B83D323CB63D5F
:103078006F66B43DAC90B23D62BAB03D93E3AE3DED
:10308800C30CAD3D6E35AB3D185EA93DC286A73D6C
:1030980060AEA53D84D6A33D22FEA13D3925A03DC5
:1030A800514C9E3DE2729C3D74999A3D7FBF983D7C
:1030B8008AE5963D950B953D1A31933D1956913DFC
:1030C800187B8F3D17A08D3D8FC48B3D81E8893DCE
:1030D800FA0C883D6630863D5854843D3E77823DE3
:1030E800AA9A803D207B7D3DDFBF793D9F04763DD8
:1030F8005E49723D118D6E3DC4D06A3D6A13673DCD
:103108001156633DB7985F3D51DA5B3DEB1B583D67
:10311800795C543D069D503D87DC4C3D151D493D6D
:103128008A5B453D0B9B413D7FD93D3DE8163A3DC5
:103138005054363DB891323D20CF2E3D7C0B2B3D6F
:10314800CC46273D2783233D6ABD1F3DBAF81B3D6A
:10315800FD32183D406D143D76A6103DB9E00C3D9A
:10316800E318093D1A52053D448A013DDC84FB3CC5
:1031780017F3F33C5261EC3C8DCFE43CB03BDD3CB3
:10318800D2A7D53CF513CE3CFE7DC63C08E8BE3C34
:103198001152B73C02BAAF3CF321A83CE389A03CEA
:1031A800BBEF983C9355913C6BBB893C4221823CD8
:1031B800030A753C81D1653CCD94563C4B5C473C39
:1031C800971F383CB1DE283CFDA1193C17610A3C29
:1031D8000038F63B35B6D73B062CB93BD7A19A3B0E
:1031E800512F783B2D0A3B3B10CAFB3AC77F813AE7
:1031F8000F7E6238B16C66BA2FA2EDBACA1734BB1B
:10320800B64D71BB344A97BB8DEDB5BB4A99D4BB5B
:10321800A33CF3BB30F408BC0E4A18BC1EA427BC60
:10322800FDF936BC0D5446BC1DAE55BC5F0C65BCE3
:10323800A16A74BC58E281BC929389BCB34291BC28
:10324800EDF398BC27A5A0BC6056A8BC9A07B0BCF3
:10325800EDBAB7BC3F6EBFBC9221C7BCE5D4CEBCAB
:103268003788D6BCA33DDEBC0EF3E5BC7AA8EDBC1E
:10327800FE5FF5BC8317FDBC776602BD464306BDFD
:10328800081F0ABDCAFA0DBD99D711BD67B415BD8F
:10329800369119BD116F1DBDE04B21BDBB2925BD60
:1032A800960729BD71E52CBD59C430BD34A234BD83
:1032B8001B8138BD03603CBDEA3E40BDDE1E44BDF7
:1032C800D2FE47BDBADD4BBDADBD4FBDAE9E53BDB1
:1032D80058565ABDF43460BD494B65BDDFA469BD7D
:1032E80065506DBD645970BD58CA72BDC9AE74BD14
:1032F8001B0F76BDBFF476BD166877BD7A7077BDB3
:10330800591777BDE56076BD765475BD49F773BD2D
:10331800B55072BDED6470BD22386EBD92CF6BBDE5
:103328006F2F69BDDE5A66BD115663BD392560BD74
:103338007DCB5CBDE94959BDB9A555BDF0DE51BD90
:10334800CAFA4DBD55FA49BD9CDE45BDC5AA41BD69
:10335800E9603DBD080139BD548F34BDBF0A30BD99
:1033680064752BBD5BD126BDB01F22BD63601DBD3A
:103378008E9518BD2FBF13BD55DE0EBD0AF409BDCD
:103388005C0105BD3E0500BDAB05F6BC2CF2EBBCEF
:10339800FFCFE1BC3CA1D7BCFD67CDBC000000005D
:1033A8005DA3E5B979E665BA309FACBA234BE6BAB6
:1033B800520C10BB13F32CBB9AEA49BBE9F266BB6B
:1033C8009CFD81BB268A90BBB1169FBB9FABADBB52
:1033D800F148BCBB43E6CABB9483D9BB4A29E8BBC6
:1033E80062D7F6BBBDC202BCFC1D0ABC3A7911BC4F
:1033F800A9D818BC193820BCBB9B27BC5CFF2EBCC5
:10340800306736BC35D33DBC3A3F45BC3FAB4CBCBE
:10341800761B54BCAC8B5BBC150063BCAF786ABC34
:103428004AF171BCE46979BC587380BCBE3184BC74
:103438003DF287BCBCB28BBC53758FBC043A93BCBD
:103448009CFC96BC65C39ABC16889EBCDF4EA2BC89
:10345800C217A6BCA4E0A9BC9FABADBC9B76B1BC0F
:103468009641B5BCAA0EB9BCBEDBBCBCEBAAC0BCBD
:10347800187AC4BC5E4BC8BCA41CCCBCE9EDCFBC5C
:1034880048C1D3BCA794D7BC1F6ADBBC963FDFBC3E
:103498002717E3BCB7EEE6BC47C6EABCF19FEEBC13
:1034A8009A79F2BC5C55F6BC1F31FABCE10CFEBC43
:1034B8005EF500BD4BE402BD45D404BD3FC406BD66
:1034C80039B408BD40A50ABD46960CBD59880EBD45
:1034D8006C7A10BD7F6C12BD9E5F14BDBD5216BDC7
:1034E800DD4518BD083A1ABD342E1CBD6C231EBD1F
:1034F800A41820BDDC0D22BD210424BD59F925BD29
:10350800AAF027BDEFE629BD40DE2BBD9DD62DBD17
:10351800FBCE2FBD58C731BDB6BF33BD1FB935BDB2
:1035280089B237BDF3AB39BD6AA63BBDE0A03DBD4E
:10353800639C3FBDD99641BD5C9243BDEB8E45BDB2
:103548006E8A47BD098849BD99844BBD34824DBDFB
:10355800D07F4FBD6B7D51BD137C53BDBC7A55BD2B
:10356800647957BD0C7859BDC0775BBD75775DBD73
:1035780036785FBDF77861BDB77963BD787A65BD88
:10358800467C67BD137E69BDE17F6BBDBA826DBDA8
:1035980094856FBD6E8871BD488B73BD2E8F75BDC8
:1035A800149377BDFB9679BDED9B7BBDE0A07DBDF7
:1035B800D3A57FBD63D580BD62D881BD62DB82BDE6
:1035C80061DE83BDE7E184BD6DE585BDF3E886BDB9
:1035D80078EC87BD84F088BD0AF489BD9CF88ABD63
:1035E800A8FC8BBD3B018DBD47058EBD5F0A8FBD15
:1035F800F10E90BD0A1491BD221992BD3A1E93BDD9
:10360800532394BDF22895BD902E96BD2F3497BDB7
:10361800CE3998BDF23F99BD17469ABD3C4C9BBD2B
:10362800E7529CBD0C599DBDB75F9EBD62669FBDAC
:10363800946DA0BD3F74A1BD707BA2BDA182A3BD46
:10364800D289A4BD8A91A5BD4299A6BDF9A0A7BDFE
:10365800B1A8A8BD68B0A9BDA6B8AABDE4C0ABBD55
:1036680021C9ACBD5FD1ADBD23DAAEBD61E2AFBD4E
:1036780025EBB0BD6FF4B1BD33FDB2BD7D06B4BD61
:10368800410FB5BD8B18B6BD5B22B7BDA62BB8BD23
:103698007635B9BD463FBABD1749BBBDE752BCBD7B
:1036A8003E5DBDBD0E67BEBD6571BFBDBB7BC0BD08
:1036B8009886C1BDEF90C2BDCC9BC3BDA8A6C4BDB2
:1036C80085B1C5BD62BCC6BDC5C7C7BDA2D2C8BD90
:1036D80005DEC9BD68E9CABDCBF4CBBDB400CDBD1C
:1036E8009E0CCEBD0118CFBDEA23D0BD5930D1BD47
:1036F800433CD2BD2C48D3BD9B54D4BD0B61D5BD32
:103708007A6DD6BDEA79D7BDE086D8BDD593D9BD47
:1037180045A0DABD3AADDBBDB6BADCBDACC7DDBD90
:10372800A2D4DEBD1EE2DFBD9AEFE0BD15FDE1BD0E
:10373800910AE3BD9318E4BD0F26E5BD1134E6BD3B
:103748001442E7BD1650E8BD185EE9BD1A6CEABD23
:10375800A27AEBBD2B89ECBD2D97EDBDB5A5EEBDCD
:10376800C4B4EFBD4CC3F0BDD4D1F1BDE3E0F2BDAC
:10377800F2EFF3BD00FFF4BD0F0EF6BD1D1DF7BD42
:10378800B22CF8BDC13BF9BD554BFABDEA5AFBBD99
:103798007F6AFCBD147AFDBDA989FEBDC499FF3DB1
:1037A80069A9FC3D95B9F93DC1C9F63DECD9F33D90
:1037B80018EAF03D44FAED3D700AEB3D221BE83D66
:1037C800D42BE53D003CE23DB24CDF3D645DDC3D81
:1037D8009C6ED93D4E7FD63D0090D33D38A1D03D5B
:1037E80070B2CD3DA8C3CA3DE1D4C73D19E6C43D7A
:1037F80051F7C13D8908BF3D481ABC3D062CB93D6B
:103808003E3DB63DFD4EB33DBB60B03D0073AD3DA2
:10381800BE84AA3D7D96A73DC1A8A43D06BBA13D97
:10382800C4CC9E3D09DF9B3D4EF1983D1904963D61
:103838005D16933DA228903D6D3B8D3D384E8A3DE7
:103848007C60873D4773843D1286813DBA317D3D5A
:103858005C58773DF27D713D87A36B3D2ACA653D73
:10386800CCF05F3D61165A3D043D543DA6634E3D84
:10387800548B483DF7B1423D99D83C3D4700373D10
:10388800E926313D984E2B3D4776253DF59D1F3D58
:10389800A4C5193D52ED133D01150E3DB03C083D40
:1038A8006B65023D331AF93CA96BED3C1FBDE13C49
:1038B8007C0CD63CF25DCA3C68AFBE3CF702B33C18
:1038C8006D54A73CE3A59B3C72F98F3CE84A843CC5
:1038D800EF3C713CDBDF593CF986423C172E2B3C10
:1038E80034D5133CA5F8F83BE146CA3B809D9B3B89
:1038F80077D7593B6C09F93A6C09F93950C678BA47
:103908001C951BBBDEE778BB501DABBBB0C6D9BB53
:10391800093804BCB98C1BBC37DD32BCE8314ABC61
:10392800988661BC17D778BCE41588BC23BE93BCC5
:1039380062669FBCA20EABBCE1B6B6BC205FC2BC3F
:103948005F07CEBC9FAFD9BCDE57E5BC1D00F1BCFC
:1039580044A6FCBC422704BD55FA09BD68CD0FBD7D
:1039680088A115BD9B741BBDAE4721BDC11A27BDDB
:10397800D5ED2CBDE8C032BDFB9338BD0E673EBD0A
:10398800153944BD280C4ABD3BDF4FBD42B155BD7A
:1039980055845BBD5C5661BD632867BD6AFA6CBD22
:1039A8007DCD72BD849F78BD8B717EBDC92182BDDE
:1039B800460A85BD49F387BD4DDC8ABD50C58DBD1E
:1039C800CDAD90BDD19693BD4E7F96BD516899BD42
:1039D800CE509CBDD2399FBD4F22A2BDCC0AA5BDF9
:1039E80049F3A7BDC6DBAABD44C4ADBDC1ACB0BDDB
:1039F8003E95B3BDBB7DB6BD3866B9BD2F4EBCBDC7
:103A0800AC36BFBD2A1FC2BD2107C5BD9EEFC7BDCD
:103A180095D7CABD8CBFCDBD09A8D0BD0090D3BD78
:103A2800F777D6BDEE5FD9BD6B48DCBD6230DFBD30
:103A38005918E2BD5000E5BD47E8E7BD3ED0EABDF4
:103A4800AEB7EDBDA59FF0BD9C87F3BD936FF6BDE6
:103A58000457F9BDFB3EFCBD6C26FFBD310701BE16
:103A6800EA7A02BEE5EE03BE9E6205BE56D606BEE3
:103A7800514A08BE0ABE09BEC2310BBE7AA50CBEA9
:103A880033190EBEEB8C0FBEA40011BE5C7412BEBF
:103A980014E813BECD5B15BE85CF16BE3D4318BED8
:103AA800F6B619BEAE2A1BBE239E1CBEDC111EBE76
:103AB80094851FBE09F920BEC26C22BE37E023BE22
:103AC800EF5325BE65C726BE1D3B28BE92AE29BE54
:103AD8004B222BBEC0952CBE35092EBEEE7C2FBEC8
:103AE80063F030BED86332BE4DD733BEC34A35BE4D
:103AF8007BBE36BEF03138BE65A539BEDB183BBE8D
:103B0800508C3CBEC5FF3DBE3B733FBEB0E640BED9
:103B1800255A42BE9ACD43BECC4045BE42B446BEAD
:103B2800B72748BE2C9B49BEA20E4BBED4814CBEC3
:103B380049F54DBEBE684FBE33DC50BE664F52BE1F
:103B4800DBC253BE0D3655BE82A956BEF81C58BE00
:103B58002A9059BE9F035BBED1765CBE46EA5DBE25
:103B6800795D5FBEEED060BE204462BE95B763BE8D
:103B7800C72A65BE3D9E66BE6F1168BEA18469BE38
:103B880016F86ABE486B6CBEBEDE6DBEF0516FBEE5
:103B980022C570BE973872BEC9AB73BEFB1E75BE18
:103BA8002E9276BEA30578BED57879BE07EC7ABE8C
:103BB800395F7CBEAFD27DBEE1457FBE895C80BEE9
:103BC800231681BEDDCF81BE768982BE0F4383BEB8
:103BD800A8FC83BE41B684BEFC6F85BE952986BE0F
:103BE8002EE386BEC79C87BE605688BEF90F89BE85
:103BF800B4C989BE4D838ABEE63C8BBE7FF68BBEB8
:103C0800E34F8CBE46968CBEA9DC8CBE0C238DBEC1
:103C18006E698DBED1AF8DBE12F68DBE753C8EBE5F
:103C2800D8828EBE3AC98EBE9D0F8FBE00568FBEFB
:103C3800639C8FBEC5E28FBE282990BE8B6F90BE55
:103C4800EEB590BE50FC90BEB34291BEF48891BED2
:103C580057CF91BEBA1592BE1C5C92BE7FA292BE8F
:103C6800E2E892BE232F93BE867593BEE8BB93BE4F
:103C78004B0294BEAE4894BEEF8E94BE52D594BE0D
:103C8800B51B95BE176295BE58A895BEBBEE95BEEE
:103C98001E3596BE5F7B96BEC2C196BE250897BEEE
:103CA800664E97BEC89497BE0ADB97BE6C2198BE35
:103CB800AE6798BE10AE98BE73F498BEB43A99BE7B
:103CC800F58099BE58C799BE990D9ABEFC539ABE05
:103CD8003D9A9ABE7EE09ABEE1269BBE226D9BBEAF
:103CE80063B39BBEC6F99BBE07409CBE49869CBE7B
:103CF8008ACC9CBECB129DBE2E599DBE6F9F9DBE89
:103D0800B0E59DBEF12B9EBE32729EBE73B89EBEBC
:103D1800B5FE9EBEF6449FBE378B9FBE78D19FBE30
:103D28009817A0BED95DA0BE1AA4A0BE5BEAA0BE2B
:103D38009C30A1BEBC76A1BEFDBCA1BE1D03A2BE27
:103D48005E49A2BE9F8FA2BEBFD5A2BE001CA3BE65
:103D58002062A3BE3FA8A3BE80EEA3BEA034A4BE2B
:103D6800E17AA4BE01C1A4BE2107A5BE404DA5BEEF
:103D78006093A5BE7FD9A5BEC11FA6BEE065A6BE3D
:103D880000ACA6BEFEF1A6BE1D38A7BE3D7EA7BEEE
:103D98005DC4A7BE7C0AA8BE9C50A8BE9A96A8BEC1
:103DA800BADCA8BEB822A9BED768A9BEF7AEA9BE1C
:103DB800F5F4A9BEF33AAABE1381AABE11C7AABEDA
:103DC8000F0DABBE2E53ABBE2D99ABBE2BDFABBEDA
:103DD8002925ACBE276BACBE25B1ACBE23F7ACBE63
:103DE800213DADBEFD82ADBEFCC8ADBEFA0EAEBE75
:103DF800F854AEBED49AAEBED2E0AEBEAF26AFBEC9
:103E0800AD6CAFBE89B2AFBE66F8AFBE423EB0BEC3
:103E18004084B0BE1DCAB0BEF90FB1BED655B1BE02
:103E2800B29BB1BE8FE1B1BE6B27B2BE266DB2BEEA
:103E380003B3B2BEDFF8B2BE9A3EB3BE7784B3BE58
:103E480032CAB3BE0E10B4BEC955B4BE849BB4BE4C
:103E580061E1B4BE1C27B5BED76CB5BE92B2B5BE83
:103E68004DF8B5BE083EB6BEA183B6BE5CC9B6BEA7
:103E7800170FB7BEB054B7BE6B9AB7BE05E0B7BE52
:103E8800C025B8BE596BB8BEF2B0B8BE8CF6B8BE85
:103E9800253CB9BEBF81B9BE58C7B9BEF20CBABE7F
:103EA8008B52BABE2498BABE9CDDBABE3623BBBEBE
:103EB800AD68BBBE47AEBBBEBFF3BBBE3739BCBEE9
:103EC800AE7EBCBE26C4BCBE9E09BDBE164FBDBEDE
:103ED8008E94BDBE06DABDBE7D1FBEBED464BEBE16
:103EE8004CAABEBEA2EFBEBEF834BFBE707ABFBE3B
:103EF800C6BFBFBE1D05C0BE734AC0BEC98FC0BE07
:103F0800FED4C0BE541AC1BEAB5FC1BEDFA4C1BEE1
:103F180036EAC1BE6A2FC2BE9F74C2BED4B9C2BE41
:103F280009FFC2BE3D44C3BE7289C3BEA7CEC3BE8D
:103F3800DB13C4BEEF58C4BE239EC4BE37E3C4BE61
:103F48006B28C5BE7F6DC5BE92B2C5BEA5F7C5BEFE
:103F5800B83CC6BEAA81C6BEBDC6C6BED00BC7BECB
:103F6800C250C7BED595C7BEC7DAC7BEC43E813CDE
:103F78007FFACF3CA070F63C0647093D2596143DD4
:103F880047201E3D5A65263D0FB52D3DAF40343DB7
:103F9800E02B3A3DDA903F3D9484443DB114493DCD
:103FA800C64D4D3D4339513D98E0543D0E4A583D6C
:103FB800D9795B3D4F775E3D9545613DD1E7633DDE
:103FC8003562663DD8B6683DEEE96A3D76FB6C3DE4
:103FD80095EE6E3D59C4703DE57F723D4622743DB5
:103FE8008AAC753DBC1F773DE97C783D1EC5793D9F
:103FF80072FA7A3DE71C7C3D7C2C7D3D562C7E3D3B
:104008005D1A7F3DB5F97F3DAA64803DA8C5803D16
:104018004F1F813D2672813DB2BE813DF304823D32
:10402800E944823D1B7F823D0FB4823D3FE3823DE0
:10403800300D833D6A32833DDF51833D226D833DE0
:10404800AE83833D8195833D23A3833D93AC833D1C
:104058004BB1833D57B2833DB8AF833DE7A8833D5D
:104068006B9E833D4390833DF67E833DFD69833D92
:104078005951833D8F35833DA016833D8CF4823D95
:1040880053CF823DF4A6823DF67B823DD34D823DDF
:10409800111D823DAFE9813D29B3813D897A813D7A
:1040A800C43E813DE700813D6AC0803DD47D803DAE
:1040B800A038803D97E17F3DBE4D7F3DB3B57E3D45
:1040C80076197E3DFB777D3D4ED27C3D7C297C3D3B
:1040D8006C7B7B3D36CA7A3DCF147A3D365B793DA1
:1040E800779E783D87DD773D7219773D2B51763D78
:1040F800B284753D20B6743D5CE3733D740D733D29
:104108005933723D2657713DC076703D42946F3DDC
:1041180092AD6E3DBDC36D3DCFD76C3DBCE86B3DE8
:1041280083F66A3D26016A3DA208693D060E683D90
:104138004510673D5E0F663D5F0C653D3A06643D80
:10414800FCFD623D99F2613D1DE5603D88D55F3D0E
:10415800CEC25E3DFBAD5D3D03965C3DF27B5B3DB3
:10416800C85F5A3D8541593D1D20583DA8FD563D23
:104178000ED8553D5BB0543D9086533DAB5A523DE9
:10418800AE2C513D98FC4F3D68CA4E3D14954D3DAF
:10419800B35E4C3D46274B3DB3EC493D08B0483D26
:1041A8005072473D7231463D89EF443D86AB433DF1
:1041B8007766423D431E413D02D53F3DA9893E3DBC
:1041C800433D3D3DB7ED3B3D2C9E3A3D7B4B393D54
:1041D800BEF7373DE8A1363D064B353D0AF2333D83
:1041E8000398323DE23B313DB5DE2F3D6F7F2E3DDA
:1041F800111E2D3DA5BB2B3D2E582A3D9DF2283D75
:10420800008C273D5724263D95BA243DBA4E233DC0
:10421800DFE2213DEB74203DDE041F3DC4931D3DCC
:104228009F211C3D6DAE1A3D2239193DD7C3173D5C
:10423800664B163DF6D2143D6D58133DD7DC113D43
:104248003560103D86E20E3DCC630D3DF8E20B3D36
:1042580017610A3D2BDE083D325A073D2CD5053D36
:104268000E4E043DEFC6023DB83D013DE866FF3CF9
:104278006152FC3CA839F93CD61EF63CEB01F33CF4
:10428800E7E2EF3CB1BFEC3C7C9CE93C2D77E63C97
:10429800C64FE33C4626E03C94F8DC3CE2CAD93CF5
:1042A800179BD63C3469D33C3735D03C22FFCC3CF5
:1042B800F3C6C93CAC8CC63C4C50C33CD311C03C83
:1042C80042D1BC3C978EB93CEC4BB63C1005B33C94
:1042D80034BEAF3C3E75AC3C302AA93C09DDA53C58
:1042E800CA8DA23C713C9F3C18EB9B3C8E95983C38
:1042F8000340953C60E8913CA48E8E3CCF328B3CC9
:10430800F9D6873C0C79843CEC16813CCA6D7B3C21
:1043180059A5743CB6D86D3C130C673C3F3B603CD8
:104328003866593C3291523CFAB74B3C90DA443CDF
:10433800F4F83D3C2713373C5A2D303C5B43293C6D
:104348005C59223CF9661B3C9774143C027E0D3C78
:104358006E87063C5019FF3B611BF13B0E15E33B92
:10436800BB0ED53B0400C73B4EF1B83BD0D1AA3BAE
:1043780053B29C3BD5928E3BF46A803B6075643B9C
:104388001004483BC0922B3BAA100F3B261DE53A70
:104398006AF7AB3A4260653A5DA3E5390000000070
:1043A800ECC1A43B9B70AF3B15E2913BBA4B623B1F
:1043B80045D52F3B90F9003B8C648F3A8BE16A37E7
:1043C80006B98BBAB72A09BB669F47BB5FD383BBC5
:1043D8003F8BA5BB9E25C8BB0B96EABBDB4C05BC37
:1043E800F0BF15BC693B26BCF50E37BC757547BCDC
:1043F800024958BC48C068BCC82679BCA70785BC18
:104408006D718DBC587295BC98A59DBC3BE1A5BC4F
:10441800024BAEBCBE88B6BC84F2BEBCC425C7BCC9
:104428008A8FCFBC46CDD7BCF434E0BCF837E8BCA3
:104438008271F0BCC2A4F8BC518800BD16A504BDA9
:10444800A9BD08BD87DC0CBD6B1111BD3C2F15BD86
:10445800D04719BDAE661DBD789921BDFA9A25BD14
:104468008DB329BD6BD22DBD420632BDD10836BDF4
:10447800B43D3ABD795A3EBD0C7342BDD28F46BD9C
:1044880060924ABD50C84EBD33FD52BDF81957BDA4
:104498007F315BBD01335FBDBA4E63BD3C5067BD24
:1044A800E86A6BBDFDA36FBD90BC73BD62DA77BDD2
:1044B800F5F27BBDDD0780BDBA1582BDBE3184BD76
:1044C800813D86BDF04C88BD475A8ABD26738CBD98
:1044D8006D748EBDCF8290BD9F8F92BDF59C94BDAB
:1044E800499F96BD34B998BD97C79ABDD4D29CBD93
:1044F8001BD49EBD04E3A0BD4EEFA2BD37FEA4BDF4
:10450800990CA7BDE318A9BDCC27ABBD1634ADBD2A
:104518007842AFBDB64DB1BD0950B3BDE868B5BD71
:104528002F6AB7BD1879B9BD6E86BBBD2F87BDBDD3
:10453800FF93BFBD62A2C1BD32AFC3BD94BDC5BDAF
:10454800DEC9C7BD34D7C9BD0EDACBBDF9F3CDBDC1
:10455800C900D0BD1002D2BD4E0DD4BD1B0FD6BDB3
:104568007E1DD8BD3528DABD0F2BDCBD6743DEBD07
:10457800AF44E0BD0552E2BDD253E4BD3562E6BDAD
:104588007E6EE8BDFA7EEABDCC96ECBD1498EEBD11
:10459800E3A4F0BDB3B1F2BDEEB1F4BDBCB3F6BD5A
:1045A800B1C3F8BD83DBFABDCADCFCBD9AE9FEBD28
:1045B800357B00BE1C7C01BE418202BEA98803BEB9
:1045C8008F8904BEF78F05BE299706BE919D07BE49
:1045D800779E08BED3A309BEBAA40ABEEBAB0BBE36
:1045E80046B10CBE39B30DBE9DBE0EBEC6BF0FBED2
:1045F8002EC610BE15C711BE7DCD12BE64CE13BE29
:10460800CCD414BEFDDB15BE22E216BE8AE817BE66
:1046180064E818BE4BE919BEB3EF1ABED8F51BBE45
:1046280001F71CBE26FD1DBE8E031FBEB80420BEAA
:10463800DD0A21BEC40B22BE2B1223BE501824BE95
:104648006E1825BE541926BE6D1E27BE971F28BE9C
:10465800C82629BE302D2ABEA4342BBEC93A2CBE8A
:10466800B03B2DBEC8402EBE35422FBE174830BEC7
:10467800344831BE5E4932BEC64F33BEA85534BE3B
:10468800D25635BE3A5D36BE1B6337BE456438BE6A
:104698005E6939BE38693ABEA56A3BBECA703CBE7F
:1046A800F3713DBE25793EBE8D7F3FBEB28540BECB
:1046B800DB8641BEB18B42BECE8B43BE3B8D44BE32
:1046C8001D9345BE469446BEAE9A47BE90A048BECE
:1046D800AEA049BE1AA24ABE09A94BBE21AE4CBE25
:1046E8008EAF4DBE70B54EBE9AB64FBE6FBB50BEB4
:1046F8001FBD51BE01C352BE2AC453BE00C954BE19
:104708001DC955BE8ACA56BEBBD157BE91D658BE22
:1047180041D859BEDFDD5ABEFDDD5BBE6ADF5CBE37
:10472800B9E35DBEF4E05EBE20ED5FBEBFF260BEE1
:104738002CF461BE01F962BEDBF863BEF9F864BE11
:10474800A9FA65BE970167BEFF0768BEE10D69BE9D
:10475800910F6ABE2F156BBE09156CBE27156DBE6D
:1047680044156EBEB1166FBE191D70BEB82271BE5B
:10477800922272BEFF2373BED42874BE842A75BEEB
:10478800233076BE903177BE653678BE153879BE4F
:10479800B43D7ABE8E3D7BBE3E3F7CBED0437DBEDF
:1047A80080457E3E274B7D3EE04C7C3E87527B3EDB
:1047B80069527A3E8F52793E0454783E9F58773E2C
:1047C800C558763E7D5A753EB761743E0E66733E97
:1047D8003466723E1766713E1268703E766D6F3EA3
:1047E8009C6D6E3E7F6D6D3E616D6C3E876D6B3E60
:1047F8003F6F6A3E9773693E9275683E0F7D673ECC
:104808007382663E5682653E7B82643EF183633ED8
:104818008B88623E6E88613EAD8A603EA3915F3EA2
:10482800FB955E3EF6975D3E419B5C3EE6955B3EA2
:1048380024985A3E459D593E6B9D583E239F573EAE
:1048480094A5563EF8AA553EDAAA543EBDAA533E50
:10485800B8AC523E3AAF513EC1AC503E31B34F3E78
:1048680052B84E3E91BA4D3E98BD4C3E3DB84B3E77
:104878007CBA4A3E9CBF493EC2BF483E7BC1473EC8
:10488800D2C5463EF8C5453E36C8443E57CD433EA0
:104898003ACD423E35CF413E4AD3403E88D53F3E91
:1048A8004DD83E3E91D53D3EB2DA3C3ED7DA3B3E4E
:1048B80090DC3A3EE7E0393ECAE0383EF0E0373E69
:1048C8002EE3363E4FE8353E8EEA343EAEEF333EB9
:1048D80091EF323E74EF313E9AEF303E7CEF2F3E3F
:1048E800A2EF2E3E9DF12D3EB2F52C3E34F82B3E24
:1048F800B5FA2A3E3CF8293E1AFD283E15FF273E08
:104908001101273EBD01263E2D08253EB405243E53
:10491800910A233E740A223E9A0A213E950C203EB3
:10492800AA101F3ECF101E3EB2101D3E34131C3E6F
:1049380072151B3E3C131A3E1A18193E581A183E97
:10494800111C173E1E1A163E321E153E151E143E29
:104958003A1E133E0E2D123EF12C113ED42C103E61
:10496800F92C0F3EDC2C0E3E022D0D3E402F0C3E46
:1049780012330B3EF4320A3E1A33093EFD32083E2A
:104988002233073E0533063ECA35053E643A043EE7
:104998008A3A033E6D3A023EAC3C013E7D40003E01
:1049A8004581FE3D0A81FC3D5681FA3DE086F83D91
:1049B8001590F63DDA8FF43D9F8FF23DA394F03DBC
:1049C800459CEE3D0B9CEC3D569CEA3DE0A1E83D44
:1049D80015ABE63DDAAAE43D9FAAE23DEBAAE03D2D
:1049E800B0AADE3DFCAADC3DC1AADA3DD1B0D83D73
:1049F80080B9D63DCBB9D43D49BED23D33C1D03DB7
:104A080059BECE3DFCC5CC3DC1C5CA3DD1CBC83D84
:104A180080D4C63D81CEC43DA7CBC23D56D4C03D4F
:104A2800A2D4BE3DA5D9BC3DC1E0BA3D0DE1B83D1B
:104A3800D2E0B63D1EE1B43DE3E0B23DA8E0B03DB2
:104A4800B8E6AE3D67EFAC3DB3EFAA3DB6F4A83D7E
:104A5800D2FBA63D98FBA43DA5F6A23DD8F4A03D07
:104A6800F4FB9E3DB9FB9C3D05FC9A3D1502993D22
:104A7800C40A973D890A953DD40A933DD80F913DC4
:104A8800F4168F3DB9168D3D05178B3D8C11893D68
:104A9800BF0F873DDB16853DA016833DEC16813D93
:104AA800622D7E3D8E3A7A3DE04A763D774B723DE7
:104AB800024B6E3D994B6A3D234B663DAE4A623DC3
:104AC800DA575E3D2B685A3DC268563D4D68523DE7
:104AD800E4684E3D6E684A3D0569463D9068423D32
:104AE800A3733E3DD0803A3D6781363DF180323D2B
:104AF80088812E3D13812A3DAA81263DD68E223DEE
:104B08001B9E1E3DB29E1A3D3D9E163DD49E123DF3
:104B18005E9E0E3DF59E0A3D08AA063DACAB023DE1
:104B28005454FD3CAD6EF53C0589ED3C658EE53C85
:104B3800056EDD3C336FD53C486ECD3CB98AC53C2B
:104B480043A9BD3C58A8B53C86A9AD3CADBFA53C22
:104B5800F4C29D3CF0BF953C37C38D3C33C0853CC7
:104B680018B57B3CFAED6B3C56F05B3CC8B34B3C4C
:104B780024B63B3C4EB42B3C79B21B3CD5B40B3C21
:104B88006EDBF73B26E0D73B0A67B73B33E1973B41
:104B9800F0A5703B60AF303B1250E13AE3C5423AB2
:104BA800E65D75B96BBA9EBAC5530FBBFE4550BBDF
:104BB800844886BBF321A8BBE8BCC6BB94C0E6BB4F
:104BC800EE5D03BCC45F13BC996123BC929133BCF6
:104BD80069FC42BC3FFE52BCE3FB62BCB9FD72BC3F
:104BE800C77F81BC997E89BC847F91BC567E99BC65
:104BF800417FA1BC137EA9BC419AB1BC1843B9BC82
:104C08000344C1BCED44C9BCBF43D1BCAA44D9BC10
:104C18007C43E1BC6744E9BC3943F1BC2444F9BC9A
:104C28007BA100BDF1A104BD66A208BD58AD0CBDB5
:104C38001A8910BD8F8914BDF88818BD6E891CBDEE
:104C4800E38920BD4C8924BDC28928BDCC962CBDE2
:104C5800446C30BD0B5E34BD7F8938BD89963CBD40
:104C6800016C40BD766C44BDDF6B48BDB35E4CBD86
:104C78001A8950BD8F8954BD9A9658BD126C5CBD77
:104C88007B6B60BD6C7664BD3B5368BDB1536CBD36
:104C98001A5370BD8F5374BD7C4878BD14777CBDA2
:104CA8002D2480BD793B82BDE12984BD952986BD2F
:104CB800D02988BD46248ABD0C3B8CBDFA298EBDFF
:104CC800AE2990BDE92992BD9E2994BDD82996BDEB
:104CD8008D2998BD12309ABDCE1A9CBD091B9EBD68
:104CE800BD1AA0BDF81AA2BDE814A4BDE02FA6BD48
:104CF800221BA8BDD61AAABD4F20ACBD7809AEBDEF
:104D0800001BB0BD3B1BB2BD2E20B4BD950EB6BD79
:104D18009109B8BD191BBABDCE1ABCBD091BBEBDD1
:104D2800FB1FC0BDE90EC2BD9D0EC4BDD80EC6BDD9
:104D38008D0EC8BDC70ECABDC409CCBDC51ACEBD2F
:104D4800001BD0BD3B1BD2BDEF1AD4BDE21FD6BDA0
:104D5800D00ED8BDCC09DABD0C20DCBDFA0EDEBD04
:104D6800AE0EE0BDE90EE2BD9D0EE4BDD80EE6BD77
:104D78008D0EE8BDC70EEABD7C0EECBDB60EEEBDCD
:104D88002F14F0BDF8FFF1BD3200F4BDE7FFF5BD0B
:104D98005DFAF7BD840EFABDBF0EFCBD3814FEBD2A
:104DA800000000BE3BFD00BE4F0702BE6C0703BEFD
:104DB800280A04BE0D0005BEE7FF05BE040007BEB5
:104DC800220008BEFCFF08BE19000ABEF3FF0ABE97
:104DD80011000CBE8A020DBE12F60DBEE3FF0EBE18
:104DE800000010BE1D0011BEF8FF11BEB40213BEB4
:104DF80098F813BEB6F814BE90F815BEADF816BEF6
:104E080087F817BE06F618BE19001ABE93021BBE15
:104E1800BAF81BBE94F81CBEB1F81DBE30F61EBE13
:104E2800000020BE790221BEA1F821BE1FF622BED5
:104E3800EFFF23BE0D0025BEE7FF25BE600227BE9B
:104E480087F827BEA5F828BEC2F829BE9CF82ABE56
:104E5800BAF82BBE94F82CBEB1F82DBE8CF82EBE35
:104E6800A9F82FBE83F830BEA1F831BEBEF832BE15
:104E780098F833BEB6F834BE90F835BEADF836BEF5
:104E8800A0FA37BE84F038BEC2F839BE9CF83ABEE4
:104E9800BAF83BBE94F83CBEB1F83DBE8CF83EBEB5
:104EA800A9F83FBE83F840BEA1F841BE94FA42BEBD
:104EB80091F243BE6BF244BE88F245BE8DF046BE09
:104EC80087F847BE7BFA48BEA2F049BE9CF84ABEA6
:104ED800BAF84BBE7BF64CBE21024EBE8CF84EBED5
:104EE800A9F84FBE83F850BEA1F851BEBEF852BE15
:104EF80098F853BEB6F854BE66FA55BED0F056BE02
:104F080087F857BEA5F858BEC2F859BE72FA5ABEFD
:104F1800DCF05BBE94F85CBEB1F85DBE61FA5EBEC3
:104F2800A1F25FBEE9F060BEA1F861BE51FA62BEAF
:104F380091F263BE6BF264BE88F265BE63F266BE30
:104F4800EDF067BEA5F868BE55FA69BE95F26ABE6F
:104F58006FF26BBE8CF26CBE67F26DBE84F26EBEF1
:104F6800A1F26FBE7CF270BEC3F071BEBEF872BE15
:104F78002BFA73BE6BF274BE88F275BE7BF476BEF4
:104F880053E977BE9DF278BE78F279BE95F27ABE83
:104F98006FF27BBE8CF27CBE67F27DBEF1F07EBE06
:104FA8003CFA7F3E84F27E3E67F27D3E62F47C3EB0
:104FB80042E97B3E95F27A3E78F2793E9DF2783E60
:104FC80080F2773E63F2763EF6F0753EB6F8743EB0
:104FD80098F8733E0DFA723E99F2713E2CF1703ECC
:104FE800F8F96F3E84F26E3E67F26D3E8CF26C3ECD
:104FF80045F46B3E68E96A3E78F2693E0BF1683E1B
:1050080087F8673EADF8663E22FA653E41F4643E95
:1050180064E9633E73F2623E99F2613E7CF2603E5F
:10502800A1F25F3E84F25E3E17F15D3EE4F95C3E1C
:105038006FF25B3E95F25A3E78F2593E9DF2583E29
:1050480080F2573E63F2563E88F2553E6BF2543E6C
:1050580091F2533E73F2523E99F2513E7CF2503E29
:10506800A1F24F3E84F24E3E67F24D3E8CF24C3E2A
:105078006FF24B3E95F24A3E78F2493E9DF2483E29
:1050880080F2473E63F2463E39F1453EB6F8443E6B
:1050980098F8433ECAF9423E99F2413ECBF3403E6E
:1050A800B8E93F3E84F23E3E67F23D3E8CF23C3E1C
:1050B8006FF23B3E95F23A3E78F2393E4EF1383E79
:1050C800D7F9373E63F2363E88F2353E6BF2343E0E
:1050D80084F1333EBEF8323EADF9313E7CF2303ECB
:1050E800A1F22F3ED4F32E3E03EA2D3E8CF22C3E45
:1050F80063F12B3EA9F92A3E78F2293E9DF2283E1B
:1051080080F2273E63F2263E88F2253E6BF2243E6B
:1051180091F2233E73F2223E99F2213E7CF2203E28
:10512800A1F21F3E84F21E3E9DF11D3E94F81C3EE6
:10513800BAF81B3E9CF81A3EC2F8193EA5F8183E6C
:1051480087F8173EADF8163E9CF9153EA2F1143EBD
:10515800A5F9133EAAF1123EA1F8113E83F8103EBC
:1051680072F90F3E84F20E3E67F20D3EC3F10C3E1B
:1051780083F90B3E95F20A3E78F2093E9DF2083E0D
:10518800B7F1073EADF8063E59F9053EA2F1043ED7
:1051980098F8033EBEF8023EA1F8013E83F8003EAF
:1051A80052F1FF3D17F1FD3D63F1FB3D28F1F93D5B
:1051B80073F1F73D39F1F53D84F1F33D4AF1F13DE5
:1051C8000FF1EF3D5AF1ED3D20F1EB3D6BF1E93D7B
:1051D80030F1E73D7CF1E53D41F1E33D06F1E13D8C
:1051E80052F1DF3D17F1DD3D63F1DB3D28F1D93D9B
:1051F800E1EFD73D7901D63D84F1D33D4AF1D13D68
:105208000FF1CF3D67F2CD3D04E4CB3D6BF1C93DD5
:1052180030F1C73D7CF1C53D41F1C33D99F2C13D37
:10522800B0E3BF3DAAF2BD3DC1E3BB3D28F1B93DA6
:1052380073F1B73D39F1B53D84F1B33D4AF1B13D64
:105248000FF1AF3D5AF1AD3D20F1AB3D6BF1A93DFA
:1052580024F0A73D2A00A63DEFFFA33D3B00A23D59
:105268000C01A03D17F19D3D56F09B3DD6FF993DA1
:105278002E01983D2CF0953D84F1933D3DF0913DF4
:10528800C900903D4EF08D3DCEFF8B3D19008A3D03
:10529800EB00883D6FF0853DFC00843D06F1813DC3
:1052A800A4E27F3D2EE27B3DC5E2773D43E1733DBD
:1052B8004300703DCEFF6B3D6500683DEFFF633DE9
:1052C8008600603D11005C3D9BFF573D3200543D18
:1052D800B0FE4F3DBD1E4C3DDEFF473D7500443DD1
:1052E8000000403D8BFF3B3D2200383DACFF333D85
:1052F8005001303D65E12B3D7101283D93E2233D8E
:1053080011E11F3D11001C3D9BFF173D3200143D6C
:10531800BDFF0F3D54000C3DD2FE073DD21D043D9C
:10532800691E003D15FFF73C4300F03C58FFE73C81
:105338008600E03C82FDD73C823BD03C7E38C83CAE
:10534800B9A6C03C6EDEB83CD0B5AF3C2EFFA13C40
:105358003B1A873C4D83223C15E5D2BA2A029CBCF5
:10536800C9E92BBD2ECA8CBD82ACC7BD022901BEBE
:105378002E911BBEEDF22DBED97830BEA8E321BE1A
:10538800D8B909BEBD39DCBD4A7EA4BD738060BDF5
:10539800EB8B04BDFDBF6ABCD7F7E1BAAE0E803A0D
:1053A800AAB61B3A774E333916A584B9983531BA5F
:1053B8004E2B85BA8B1BB7BAC80BE9BAC98E0DBB81
:1053C800053326BB242B3FBB093458BBCCEC73BB3D
:1053D80064CA87BBD74E94BB721AA2BB923EADBBC0
:1053E8002D0ABBBB4D2EC6BBE8F9D3BBA515DFBB49
:1053F800A3E9ECBB3DB5FABB8690F3BB5182FEBB7B
:10540800C42206BC68580CBCDB8912BC7FBF18BC20
:10541800E99C1FBC5BCE25BCCEFF2BBC403132BC07
:10542800460639BCC18B3EBCC86045BCD7894BBC5D
:10543800E6B251BCC3D757BCD9EB5DBCE81464BC19
:105448008BE16ABC9A0A71BC3DD777BC53EB7DBC33
:10545800EBAD81BC59C084BC792288BCCF328BBCEF
:1054680007978EBC0EF791BC320395BCEE5C98BCD6
:1054780016139BBCEB6E9EBCC574A1BC8578A4BCFE
:10548800FB75A7BCE9D3AABCA52DAEBCC58FB1BC22
:105498009641B5BC2541B8BCF5F2BBBC21EABEBCFF
:1054A800AB3FC2BCEB8EC5BC4BE7C3BC5588C7BC81
:1054B8004E7BCABC6170CDBC4161D0BC6D58D3BCB9
:1054C8007BA3D6BCBBF2D9BCAC91DDBCEBE0E0BCA5
:1054D800AB7BE4BCB9C6E7BC7861EBBC6DAAEEBC9B
:1054E800FB40F2BC2979F5BCF167F8BC4CFAFBBC6F
:1054F800103FFFBC0D7001BD473A03BD810405BDD7
:105508008ACA06BDBA6808BDAA2C0ABDCDC90BBD9A
:10551800B08C0DBD89230FBD88BD10BD527E12BD54
:10552800761B14BD880D16BD5DFA17BD34BC19BDB8
:10553800FE7C1BBDC93D1DBDB8011FBD6AC020BD95
:105548000F7E22BDA83A24BD72FB25BDFCE127BD14
:10555800BAA129BD9B8F2BBD48A42DBDD0432DBD1D
:105568001EFA2EBD60AF30BD1E6F32BD8D7E34BDBC
:10557800306736BDC47938BDDE563ABDE2063CBD5B
:10558800D9B53DBD01693FBD724D41BD975643BD7B
:10559800FC3945BDCE5147BD168949BD53944BBD15
:1055A800529A4DBD6C774FBD484F51BD182653BD1B
:1055B800700855BD863B57BDB74559BD00525BBD08
:1055C800F1815DBD8D7F5FBD9A5B61BD115663BD85
:1055D8007D2465BD7EFF66BD943269BDC3676BBD22
:1055E800BF986DBDB0C86FBDD2FC71BDAA2A74BD8D
:1055F8003C6876BDA5F878BD6E507BBDD6747DBD80
:10560800BC787FBD31D180BDAFE981BD5E2E82BD42
:10561800D55B83BD338784BD999D85BD58C686BD3E
:10562800D7DE87BD030689BD5C1B8ABDA2448BBD3E
:10563800A75D8CBD48A48DBD19E48EBD9D1290BD9B
:10564800005491BD467D92BDECA393BDCBB994BDEA
:10565800C2FC95BD7C4597BDA9A298BDB1FC99BD7A
:105668009A3E9BBD5F7D9CBD37A89DBDA7EA9EBDA8
:10567800FE2AA0BD2672A1BD82C8A2BDE509A4BDAF
:10568800E84DA5BD51A5A6BDCDE8A7BD6744A9BDF8
:10569800AB98AABD7BD8ABBD2920ADBD399BAEBDAB
:1056A800C520B0BDCC7AB1BDBBD2B2BD3D2CB4BD16
:1056B8006A89B5BDB5FEB6BDB878B8BDB1FCB9BD8F
:1056C80036CABABDD025BCBDC79EBDBDB421BFBDBD
:1056D800A584C0BD630EC2BD7C7FC3BDF9F8C4BD3F
:1056E800F487C6BD9C1AC8BD5EBAC9BD4832CBBDD9
:1056F800E1B8CCBD1537CEBD90DBCFBDEC67D1BDD1
:10570800ADFCD2BD27A1D4BD902ED6BD76C6D7BDDF
:105718007C81D9BDB515DBBD24B9DCBD0951DEBD21
:10572800030BE0BDE597E1BD452FE3BD5AF6E4BDA7
:105738009EB6E6BDA166E8BDE526EABD62D6EBBD2C
:105748000894EDBD0B44EFBDE410F1BD78EDF2BD5A
:1057580022C1F4BDA8C7F6BDB8E4F8BD28F4FABD67
:1057680035D0FCBDC496FEBD232E00BEEC1601BE8E
:1057780088F601BE3AE802BE12DD03BEC7D904BEF0
:105788004AD205BEBED906BE2ECB07BE9DBC08BEFA
:10579800B8B109BED5B10ABE47AE0BBE62A30CBEF6
:1057A8003CA30D3EB69F0C3E85980B3E6AA30A3E6D
:1057B800F8A6093E89B5083E2BC0073E51C0063EF3
:1057C800DFC3053E70D2043E00E1033E4EEF023EC9
:1057D800DFFD013E1B10013E6B29003E1172FE3DAC
:1057E8000F97FC3DA3C8FA3D1CEDF83D361FF73D69
:1057F800D13BF53DAD68F33D3AAFF13DBFD4EF3D48
:105808004910EE3D9851EC3D02A0EA3D73D9E83DC0
:10581800CE1BE73DCA6BE53DF6B4E33DB01FE23D64
:105828000D6DE03D19FFDE3D6840DD3DA395DB3D94
:105838004DF4D93DF167D83D01DAD63D8C4BD53DC5
:105848009DBDD33D4031D23D44A2D03D5514CF3DFE
:105858000F7FCD3D27DCCB3D1556CA3DFCE4C83D46
:105868004371C73D34F6C53D2E71C43D8CF4C23D2D
:105878009065C13DB8CEBF3DAD33BE3DF4BFBC3D24
:10588800AC55BB3DBDFDB93D55A6B83D594DB73DDD
:1058980007EDB53D3677B43D7102B33D328EB13D6B
:1058A800E718B03D0CADAE3DF851AD3DCEFFAB3D78
:1058B8009CC2AA3D747BA93D541FA83DB9C3A63D0F
:1058C8002B69A53DF415A43D3ACDA23D7D79A13DB6
:1058D800A038A03DE6919F3D1D3D9E3D33FB9C3D7C
:1058E80027C19B3D97919A3D8A57993D5B25983DE5
:1058F8004FEB963D13B8953DF086943D0E66933D6B
:105908007920923D54E4903DF5B88F3DA48E8E3DAC
:105918002F6C8D3DFB598C3DEA3F8B3D0F0A8A3D2C
:105928004BCB883DEA94873D9F55863D9831853D10
:105938004B1D843DF207833DA5F3813D4CDE803D40
:10594800A1A17F3D7C987D3D917E7B3D4772793D4D
:10595800772F773DF1F2743D82E3723D40C2703D8E
:10596800D1B26E3DB4946C3D13816A3D8B6F683D36
:105978004B8F663DAB7B643D4357623D643E603D63
:10598800091B5E3D16165C3D97365C3D5F415A3DEE
:105998009C6B583DC093563DE4BB543D10CF523DDF
:1059A80080D2503D7FF74E3D9E094D3D1B0E4B3D2D
:1059B800E82E493DBD3A473D412A453D33E2423D47
:1059C800E528403D73DB3E3DDA74443D0F975C3D6E
:1059D80072C08E3DA4FACE3D7F89183EB667563E0A
:1059E80039D08B3E23F6993ECFF57D3E3411363EB5
:1059F800E179E93D6D8D883DBEA1303D8E731B3D3B
:105A08007A34153D3A76103D9CE1063DEA07F53CAF
:105A18004D32F23C10E6F63CBC3EF33CFC34EE3C26
:105A2800147BE83C34F3E43C5C3AE63C1F10E83C69
:105A38009010E53CCD56DE3CD369DD3C359ADC3C24
:105A4800766EDA3C2671D63CD0F1D13C944CCE3CF3
:105A580024D1CB3C1B9FC93CDAE6C63C4565C33C18
:105A680022C2BF3C3F90BC3C3EB2B93C80EFB63C42
:105A78006BB9B33C15A9B03C55A5AD3CCD90AA3C3B
:105A8800F48AA73C5474A43C7042A13C49F59D3C5F
:105A9800E50E9B3C8028983C0340953C6D55923C14
:105AA800BE688F3C0F7C8C3C478D893C58C6863C31
:105AB800FE0B843C4F1F813CC9047C3CC8B1753C3B
:105AC800C1736F3C8F1C693C55DA623CD4D25C3C94
