:020000040800F2
:1000000000000220351A0008851A0008851A000829
:10001000851A0008851A0008851A000800000000EB
:10002000000000000000000000000000851A000829
:10003000851A000800000000851A0008851A0008CB
:10004000851A0008851A0008851A0008851A000814
:10005000851A0008851A0008851A0008851A000804
:10006000851A0008851A0008851A0008851A0008F4
:10007000851A0008851A0008851A0008851A0008E4
:10008000851A0008851A0008851A0008851A0008D4
:10009000851A0008851A0008851A0008851A0008C4
:1000A000851A0008851A0008851A0008851A0008B4
:1000B000851A0008B9100008851A0008851A00087A
:1000C000851A0008851A0008851A0008851A000894
:1000D000851A0008851A0008851A0008851A000884
:1000E000851A0008851A0008851A0008851A000874
:1000F000851A0008851A0008851A0008851A000864
:10010000851A0008851A0008851A0008851A000853
:10011000851A0008851A0008851A0008851A000843
:10012000851A0008851A0008851A0008851A000833
:10013000851A0008851A0008851A0008851A000823
:10014000851A0008851A0008851A0008851A000813
:10015000851A0008851A0008851A0008851A000803
:10016000851A0008851A0008851A0008851A0008F3
:10017000851A0008851A0008851A0008851A0008E3
:08018000851A0008851A000829
:1001880010B5054C237833B9044B13B10448AFF3C9
:1001980000800123237010BD9C0000200000000097
:1001A8007C38000808B5034B1BB103490348AFF37B
:1001B800008008BD00000000A00000207C38000876
:1001C80081F0004102E000BF83F0004330B54FEA00
:1001D80041044FEA430594EA050F08BF90EA020F6D
:1001E8001FBF54EA000C55EA020C7FEA645C7FEA00
:1001F800655C00F0E2804FEA5454D4EB5555B8BF23
:100208006D420CDD2C4480EA020281EA030382EA93
:10021800000083EA010180EA020281EA0303362D25
:1002280088BF30BD11F0004F4FEA01314FF4801CF8
:100238004CEA113102D0404261EB410113F0004F0A
:100248004FEA03334CEA133302D0524263EB4303C1
:1002580094EA050F00F0A780A4F10104D5F1200E5F
:100268000DDB02FA0EFC22FA05F2801841F10001BA
:1002780003FA0EF2801843FA05F359410EE0A5F18E
:1002880020050EF1200E012A03FA0EFC28BF4CF0BF
:10029800020C43FA05F3C01851EBE37101F0004575
:1002A80007D54FF0000EDCF1000C7EEB00006EEB82
:1002B8000101B1F5801F1BD3B1F5001F0CD349080C
:1002C8005FEA30004FEA3C0C04F101044FEA445263
:1002D80012F5800F80F09A80BCF1004F08BF5FEAEA
:1002E800500C50F1000041EB045141EA050130BDCA
:1002F8005FEA4C0C404141EB010111F4801FA4F16D
:100308000104E9D191F0000F04BF01460020B1FAC1
:1003180081F308BF2033A3F10B03B3F120020CDAF9
:100328000C3208DD02F1140CC2F10C0201FA0CF0D7
:1003380021FA02F10CE002F11402D8BFC2F1200C3C
:1003480001FA02F120FA0CFCDCBF41EA0C019040F2
:10035800E41AA2BF01EB0451294330BD6FEA04043B
:100368001F3C1CDA0C340EDC04F11404C4F1200226
:1003780020FA04F001FA02F340EA030021FA04F338
:1003880045EA030130BDC4F10C04C4F1200220FA8F
:1003980002F001FA04F340EA0300294630BD21FACD
:1003A80004F0294630BD94F0000F83F4801306BF93
:1003B80081F480110134013D4EE77FEA645C18BF87
:1003C8007FEA655C29D094EA050F08BF90EA020F1E
:1003D80005D054EA000C04BF1946104630BD91EA16
:1003E800030F1EBF0021002030BD5FEA545C05D119
:1003F8004000494128BF41F0004130BD14F5800458
:100408003CBF01F5801130BD01F0004545F0FE41CB
:1004180041F470014FF0000030BD7FEA645C1ABF00
:10042800194610467FEA655C1CBF0B46024650EA37
:10043800013406BF52EA033591EA030F41F4002163
:1004480030BD00BF90F0000F04BF0021704730B5E9
:100458004FF4806404F132044FF000054FF00001BE
:1004680050E700BF90F0000F04BF0021704730B57F
:100478004FF4806404F1320410F0004548BF404254
:100488004FF000013EE700BF42004FEAE2014FEAA9
:1004980031014FEA02701FBF12F07F4393F07F4F84
:1004A80081F06051704792F0000F14BF93F07F4FB6
:1004B800704730B54FF4607401F0004521F00041F9
:1004C80020E700BF50EA010208BF704730B54FF07F
:1004D80000050AE050EA010208BF704730B511F084
:1004E800004502D5404261EB41014FF4806404F1BC
:1004F80032045FEA915C3FF4DCAE4FF003025FEA3E
:10050800DC0C18BF03325FEADC0C18BF033202EBC5
:10051800DC02C2F1200300FA03FC20FA02F001FA1F
:1005280003FE40EA0E0021FA02F11444C1E600BFBE
:1005380070B54FF0FF0C4CF4E06C1CEA11541DBF71
:100548001CEA135594EA0C0F95EA0C0F00F0DEF83C
:100558002C4481EA030621EA4C5123EA4C5350EA21
:10056800013518BF52EA033541F4801143F4801372
:1005780038D0A0FB02CE4FF00005E1FB02E506F003
:100588000042E0FB03E54FF00006E1FB03569CF058
:10059800000F18BF4EF0010EA4F1FF04B6F5007F5E
:1005A80064F5407404D25FEA4E0E6D4146EB0606D0
:1005B80042EAC62141EA55514FEAC52040EA5E5059
:1005C8004FEACE2EB4F1FD0C88BFBCF5E06F1ED803
:1005D800BEF1004F08BF5FEA500E50F1000041EB3A
:1005E800045170BD06F0004646EA010140EA0200E7
:1005F80081EA0301B4EB5C04C2BFD4EB0C0541EA09
:10060800045170BD41F480114FF0000E013C00F31D
:10061800AB8014F1360FDEBF002001F0004170BD41
:10062800C4F10004203C35DA0C341BDC04F114045A
:10063800C4F1200500FA05F320FA04F001FA05F2E6
:1006480040EA020001F0004221F0004110EBD370B3
:1006580021FA04F642EB06015EEA430E08BF20EADF
:10066800D37070BDC4F10C04C4F1200500FA04F382
:1006780020FA05F001FA04F240EA020001F0004114
:1006880010EBD37041F100015EEA430E08BF20EA87
:10069800D37070BDC4F1200500FA05F24EEA020ECF
:1006A80020FA04F301FA05F243EA020321FA04F0FE
:1006B80001F0004121FA04F220EA020000EBD370B5
:1006C8005EEA430E08BF20EAD37070BD94F0000FB5
:1006D8000FD101F00046400041EB010111F4801FE9
:1006E80008BF013CF7D041EA060195F0000F18BF9A
:1006F800704703F00046520043EB030313F4801FD6
:1007080008BF013DF7D043EA0603704794EA0C0F8F
:100718000CEA135518BF95EA0C0F0CD050EA4106A5
:1007280018BF52EA4306D1D181EA030101F0004122
:100738004FF0000070BD50EA410606BF104619464A
:1007480052EA430619D094EA0C0F02D150EA013656
:1007580013D195EA0C0F05D152EA03361CBF104697
:1007680019460AD181EA030101F0004141F0FE4136
:1007780041F470014FF0000070BD41F0FE4141F4BA
:10078800780170BD70B54FF0FF0C4CF4E06C1CEABA
:1007980011541DBF1CEA135594EA0C0F95EA0C0F6F
:1007A80000F0A7F8A4EB050481EA030E52EA03352A
:1007B8004FEA013100F088804FEA03334FF080554B
:1007C80045EA131343EA12634FEA022245EA111578
:1007D80045EA10654FEA00260EF000419D4208BF29
:1007E800964244F1FD0404F5407402D25B084FEAD6
:1007F8003202B61A65EB03055B084FEA32024FF482
:1008080080104FF4002CB6EB020E75EB030E22BFDE
:10081800B61A754640EA0C005B084FEA3202B6EB9E
:10082800020E75EB030E22BFB61A754640EA5C004D
:100838005B084FEA3202B6EB020E75EB030E22BFDD
:10084800B61A754640EA9C005B084FEA3202B6EBDE
:10085800020E75EB030E22BFB61A754640EADC009D
:1008680055EA060E18D04FEA051545EA16754FEAFF
:1008780006164FEAC30343EA52734FEAC2025FEA1D
:100888001C1CC0D111F4801F0BD141EA00014FF0AC
:1008980000004FF0004CB6E711F4801F04BF01437D
:1008A8000020B4F1FD0C88BFBCF5E06F3FF6AFAE99
:1008B800B5EB030C04BFB6EB020C5FEA500C50F129
:1008C800000041EB045170BD0EF0004E4EEA1131AC
:1008D80014EB5C04C2BFD4EB0C0541EA045170BDB3
:1008E80041F480114FF0000E013C90E645EA060EF7
:1008F8008DE60CEA135594EA0C0F08BF95EA0C0F25
:100908003FF43BAF94EA0C0F0AD150EA01347FF46C
:1009180034AF95EA0C0F7FF425AF104619462CE743
:1009280095EA0C0F06D152EA03353FF4FDAE1046A6
:10093800194622E750EA410618BF52EA43067FF4F7
:10094800C5AE50EA41047FF40DAF52EA43057FF487
:10095800EBAE12E74FF0FF3C06E000BF4FF0010C92
:1009680002E000BF4FF0010C4DF804CD4FEA410CF6
:100978007FEA6C5C4FEA430C18BF7FEA6C5C1BD0C3
:1009880001B050EA410C0CBF52EA430C91EA030F44
:1009980002BF90EA020F0020704710F1000F91EAA1
:1009A800030F58BF994208BF90422CBFD8176FEA6F
:1009B800E37040F0010070474FEA410C7FEA6C5C3D
:1009C80002D150EA013C07D14FEA430C7FEA6C5C44
:1009D800D6D152EA033CD3D05DF8040B704700BF70
:1009E8008446104662468C461946634600E000BFBE
:1009F80001B5FFF7B7FF002848BF10F1000F01BD90
:100A08004DF808EDFFF7F4FF0CBF012000205DF85A
:100A180008FB00BF4DF808EDFFF7EAFF34BF0120DF
:100A280000205DF808FB00BF4DF808EDFFF7E0FF78
:100A380094BF012000205DF808FB00BF4DF808EDC9
:100A4800FFF7CEFF94BF012000205DF808FB00BF30
:100A58004DF808EDFFF7C4FF34BF012000205DF812
:100A680008FB00BF4FEA410212F5001215D211D55A
:100A78006FF47873B3EB625212D94FEAC12343F093
:100A8800004343EA505311F0004F23FA02F018BF15
:100A9800404270474FF00000704750EA013005D1DE
:100AA80011F0004008BF6FF0004070474FF00000A1
:100AB800704700BF4FEA4102B2F1E04324BFB3F5EB
:100AC800001CDCF1FE5C0DD901F0004C4FEAC002BD
:100AD8004CEA5070B2F1004F40EB830008BF20F0A1
:100AE8000100704711F0804F21D113F13872BCBF5B
:100AF80001F00040704741F480114FEA5252C2F1B0
:100B08001802C2F1200C10FA0CF320FA02F018BFF8
:100B180040F001004FEAC1234FEAD32303FA0CFC4B
:100B280040EA0C0023FA02F34FEA4303CCE77FEADA
:100B3800625307D150EA01331EBF4FF0FE4040F424
:100B48004000704701F0004040F0FE4040F40000D3
:100B5800704700BF80B483B000AF0346FB710949FA
:100B680097F907305B0997F9072002F01F02012067
:100B780000FA02F241F8232000BF0C37BD465DF8A9
:100B8800047B704700E100E080B483B000AF034607
:100B98003960FB7197F90730002B0BDA0D49FB79A7
:100BA80003F00F03043B3A68D2B21201D2B20B44ED
:100BB8001A7609E0084997F907303A68D2B2120163
:100BC800D2B20B4483F8002300BF0C37BD465DF852
:100BD800047B704700ED00E000E100E080B483B0E2
:100BE80000AF00237B603F4A3E4B1B6C43F08053B1
:100BF80013643D4A3C4B1B6843F480431360394AF5
:100C0800384B1B6843F480331360364B1B6803F47E
:100C18000033002B0CBF01230023DBB2002B00D0D4
:100C2800F3E74FF480037B607B6843F004037B6049
:100C38007B6843F428537B602A4A7B685360294BBE
:100C48009B687B607B6843F4A0537B607B6843F4BC
:100C580020437B607B6843F002037B60214A7B680A
:100C68009360224A214B1B6843F0050313601D4A19
:100C78001C4B1B6843F0807313601A4B1B6803F00E
:100C88000073002B0CBF01230023DBB2002B00D024
:100C9800F3E7144B9B6803F00803002B0CBF0123F8
:100CA8000023DBB2002B00D0F3E7114B1B683B603D
:100CB8003B681B0C3B603B6841F2010293420CBF4E
:100CC80001230023DBB2002B05D0084A074B1B6821
:100CD80043F48073136000BF0C37BD465DF8047B96
:100CE800704700BF0038024000700040003C0240DE
:100CF800002004E080B400AF204A204B1B6B43F077
:100D0800010313631D4A1D4B1B6C43F0005313640E
:100D18001B4A1B4B1B6843F001031360184A184B0E
:100D28001B6843F002031360154A154B1B6843F018
:100D380004031360124A124B1B6843F03803136014
:100D48000F4A0F4B1B6843F4803313600C4A0C4B5B
:100D58001B6843F400331360094A094B1B6843F4CA
:100D680080231360064A064B1B6843F46013136024
:100D780000BFBD465DF8047B704700BF00380240E5
:100D88000074004080B400AF0B4A0B4B1B6B43F060
:100D980004031363094A094B1B6823F44053136087
:100DA800064A064BDB6843F48053D36000BFBD4658
:100DB8005DF8047B704700BF00380240000802401D
:100DC80080B500AF194A194B1B6C43F0020313643A
:100DD800174A184B1B681849A1FB03139B0C9BB2BD
:100DE8001385134B0122DA62114A114B9B899BB27E
:100DF80043F001039BB293811D20FFF7ABFE062150
:100E08001D20FFF7C1FE0A4A094B1B889BB243F01D
:100E180001039BB21380064A054B9B8A9BB243F0A1
:100E280001039BB2938200BF80BD00BF003802401F
:100E38000004004020000020D55204E980B400AF2F
:100E48008A4A8A4B1B6C43F0010313644FF08042BB
:100E58004FF080439B889BB243F040039BB2938042
:100E68004FF0804313221A854FF080436322DA62E1
:100E78004FF0804331225A634FF080424FF0804355
:100E88001B8C9BB243F001039BB213844FF080424A
:100E98004FF080431B8B9BB243F060039BB21383DC
:100EA8004FF080424FF080431B889BB243F0010310
:100EB8009BB213806D4A6D4B1B6B43F001031363A8
:100EC8006A4A6A4B1B6B43F002031363674A674B1A
:100ED8005B6C43F400735364654A654B1B6843F0CD
:100EE8000C031360624A624B1B6843F003031360F0
:100EF800604A604B1B6843F00C0313605D4A5D4B0E
:100F08001B6843F0300313605B4A5B4B5B6843F438
:100F180080735360584B4FF44012DA62564A564B6E
:100F28005B6B43F008035363534A534B5B6B43F4C7
:100F380090735363504A504B5B6B43F48063536325
:100F48004D4A4D4B5B6B43F4803353634A4A4A4BDB
:100F58001B6943F040731361474A474B1B6943F0D1
:100F6800C0531361444A444B1B6943F0180313618F
:100F7800414A414B1B6943F0C00313613E4A3E4B53
:100F88009B6843F4806393603B4A3B4B9B6843F008
:100F980080539360384A384B9B6843F0C063936032
:100FA800354A354B9B6843F480739360324A324B21
:100FB8009B6843F4007393602C4A2C4B1B6B43F4DF
:100FC800800313632D4A2D4B1B6823F0C003136065
:100FD8002A4A2A4B1B6843F400331360274A274BDD
:100FE8001B6843F400631360244A244B1B6843F4D2
:100FF80000531360214A214B1B6823F400731360CC
:101008001E4A1E4B1B6843F4806313601B4A1B4B2C
:101018001B6843F480731360184A184B1B6823F04D
:10102800C0031360154A154B5B6843F00403536013
:10103800124B134A9A60114B124ADA600F4A0F4B4F
:101048001B6843F0007313600C4A0C4B1B6843F099
:1010580001031360084A084B9B6843F0010393603F
:1010680000BFBD465DF8047B704700BF00380240F2
:101078000004024000000240002101404064024098
:101088004C210140B800002080B582B000AF87ED48
:10109800010AC7ED000AD7ED000A97ED010A00F032
:1010A8002FFEF0EE407AB0EE670A0837BD4680BDE5
:1010B80080B400AF184B1B8A9BB203F00103002BCE
:1010C80014BF01230023DBB2002B1FD0124A124B9E
:1010D8001B8A9BB223F001039BB213820F4A0F4B6A
:1010E8005B6843F0010353600C4A0C4B5B6843F0A8
:1010F800020353600A4B1B78002B04D0094B1B6872
:101108000133084A1360064B01221A7000BFBD461E
:101118005DF8047B704700BF000400400074004085
:10112800C0000020D800002080B485B000AF7860EF
:1011380039603B68D3ED007AFDEEE77A17EE903A16
:101148009B007A6813441B68FB603B68D3ED007A08
:10115800FDEEE77A17EE903A01335A42C3F30903DA
:10116800C2F3090258BF53429B007A6813441B68B4
:10117800BB6097ED027AD7ED037A37EE677A3B6862
:10118800D3ED006A3B68D3ED007AFDEEE77AF8EE1E
:10119800E77A76EEE77A27EE277AD7ED037A77EEC5
:1011A800277AB0EE670A1437BD465DF8047B7047AE
:1011B80080B586B000AFF86087ED020AC7ED010A76
:1011C80087ED001AD7ED027A9FED2C7A67EE877AC1
:1011D800FDEEE77A17EE903A9B00FA681344D3EDD8
:1011E800007A9FED267A27EE877AD7ED017A67EEA7
:1011F800277A234BC3ED007A97ED027AD7ED007A70
:1012080077EE277A9FED1D7A27EE877A1C4BD3ED70
:10121800007A77EE277AC7ED057AD7ED057A9FED44
:10122800177AF4EEC77AF1EE10FA00DC08E0D7ED91
:10123800057A9FED127A77EEC77AC7ED057AECE763
:10124800D7ED057AF5EEC07AF1EE10FA08D5D7EDAC
:10125800057A9FED0A7A77EE877AC7ED057AEFE788
:1012680007F1140319460748FFF75EFFF0EE407ACE
:10127800B0EE670A1837BD4680BD00BF0000804445
:10128800C8000020E400002080B58CB000AF87EDD6
:10129800050AC7ED040A87ED031AC7ED021AD7ED50
:1012A800057AFCEEE77AC7ED017A3B79DBB21A469C
:1012B8005B4B53F82230FB62D7ED057AB7EE007A24
:1012C80077EE877AFCEEE77AC7ED017A3B79DBB2F5
:1012D800544A1278B3FBF2F102FB01F29B1ADBB21B
:1012E8001A464F4B53F82230BB62D7ED047A9FED74
:1012F8004E7A67EE877AFDEEE77A17EE903A9B0012
:10130800FA6A1344D3ED007A9FED477A27EE877A7D
:10131800D7ED037A67EE277AC7ED097AD7ED047A15
:101328009FED417A67EE877AFDEEE77A17EE903AFD
:101338009B00BA6A1344D3ED007A9FED3B7A27EEFF
:10134800877AD7ED037A67EE277AC7ED087AD7ED63
:10135800057AFCEEE77AC7ED017A3B79DBB207EE56
:10136800903AF8EEE77A97ED057A77EE677AC7ED67
:10137800077AB7EE007AD7ED077A37EE677AD7EDB6
:10138800097A27EE277AD7ED076AD7ED087A66EE4D
:10139800A77A77EE277A254BC3ED007A97ED047A82
:1013A800D7ED027A77EE277A9FED1F7A27EE877AB4
:1013B8001E4BD3ED007A77EE277AC7ED067AD7ED84
:1013C800067A9FED197AF4EEC77AF1EE10FA00DC8E
:1013D80008E0D7ED067A9FED147A77EEC77AC7ED65
:1013E800067AECE7D7ED067AF5EEC07AF1EE10FA58
:1013F80008D5D7ED067A9FED0C7A77EE877AC7ED98
:10140800067AEFE707F1180319460948FFF78CFE3B
:10141800F0EE407AB0EE670A3037BD4680BD00BFB7
:10142800080000201C00002000008044C8000020A4
:10143800E40000200000000090B589B000AF002350
:10144800FB61FB69B3F5806F24DAFB6907EE903A1C
:10145800F8EEE77AB1EE007A27EE877ADFED8C6A4C
:10146800C7EE267AC7ED037AD7ED030AB0EE000A75
:10147800FFF70AFEB0EE407ADFED867A67EE277A4C
:10148800854AFB699B001344C3ED007AFB6901336D
:10149800FB61D6E70023BB61BB69B3F5806F32DA25
:1014A800BB6907EE903AF8EEE77A77EEA77A17EE7F
:1014B800900AFEF7E9FF72A3D3E90023FFF738F893
:1014C80003460C46184621464FF00002734BFFF7BF
:1014D80059F903460C4644EC173BB0EE470AF0EEC8
:1014E800670A00F0C5FB54EC103B18462146FFF78D
:1014F800E1FA01466A4ABB699B0013441960BB695B
:101508000133BB61C8E700237B617B69B3F5806F5A
:101518003ADA7B6907EE903AF8EEE77AB1EE007AAC
:1015280027EE877ADFED5F6AC7EE267AC7ED027A83
:101538007B69B3F5807F06DC5B4A7B699B001344BB
:10154800BA681A601CE07B69B3F5407F0CDCB0EE2A
:10155800007AD7ED027A77EE677A534A7B699B0067
:101568001344C3ED007A0BE0D7ED027AB1EE007AAE
:1015780077EEC77A4C4A7B699B001344C3ED007A27
:101588007B6901337B61C0E700233B613B69B3F5AD
:10159800806F6FDA3B6907EE903AF8EEE77A17EE5C
:1015A800900AFEF771FF38A3D3E90023FEF7C0FFC6
:1015B80003460C46184621464FF00002374BFFF70A
:1015C800E1F803460C4644EC173BB0EE470AF0EE50
:1015D800670A00F009FB54EC103B18462146FFF758
:1015E80069FA03467B603B69B3F5807F0EDCD7ED73
:1015F800017AB7EE007A77EEC77AF1EE677A2B4A6E
:101608003B699B001344C3ED007A2FE03B69B3F5B7
:10161800007F0CDCD7ED017AB7EE007A77EE877A97
:10162800224A3B699B001344C3ED007A1EE03B69E4
:10163800B3F5407F0EDCD7ED017AB7EE007A77EE8E
:10164800877AF1EE677A194A3B699B001344C3ED28
:10165800007A0BE0D7ED017AB7EE007A77EEC77A19
:10166800124A3B699B001344C3ED007A3B6901337E
:101678003B618BE700BF2437BD4690BDAFF30080C8
:10168800182D4454FB210940182D4454FB211940BE
:10169800004012C400000E45E430002000009040D5
:1016A800E400002000008044E4100020E420002032
:1016B80080B588B000AF00F0E3F9FFF78FFA00F0CB
:1016C80015FAFFF7B9FEFFF75DFBFFF713FBFFF70E
:1016D80077FBFFF7B3FB4FF00003FB614FF000030C
:1016E800BB610123FB75BB4B1B889BB207EE903A8D
:1016F800F8EEE77AB6EE007A27EE877AB64B1B88C3
:101708009BB207EE903AF8EEE77AF6EE006A67EEDB
:10171800A67A77EE277AFCEEE77AC7ED017ABB88DE
:101728009AB2AC4B1A80AC4B9B889BB207EE903AAE
:10173800B8EE677AA94B1B7807EE903AF8EEE77A8D
:1017480027EE277ADFEDA66AC7EE267AA54BC3ED0A
:10175800007AA14BDB889BB21A46A04B1B7803FB8F
:1017680002F3002B01DA03F6FF731B13DAB29E4B68
:101778001A709E4B1B78002B00F00A81964B5B88F1
:101788009BB2C3F56D63083307EE903AB8EEE77A7B
:10179800DFED976AC7EE267A964BC3ED007A914B38
:1017A800D3ED006A944BD3ED007A9FED947A87EEDF
:1017B800876A904BD3ED007ADFED911AB0EE671A85
:1017C800F0EE460AB0EE660AFFF75EFD87ED040A02
:1017D800854B1B78DBB21A468A4B53F822208A4B7A
:1017E800D3ED007A9FED857AC7EE876A9FED841A5C
:1017F800F7EE000AB0EE660A1046FFF7D9FC87ED4F
:10180800030A824B1B78002B14D0814B97ED047A86
:10181800D7ED037A67EE277AB7EE007A77EE877A04
:101828009FED7C7A67EE877AFDEEE77A17EE902ACD
:101838009A600FE0764BD7ED047AB7EE007A77EE30
:10184800877A9FED747A67EE877AFDEEE77A17EE6E
:10185800902A9A606E4BD7ED037AB7EE007A77EE4E
:10186800877A9FED6C7A67EE877AFDEEE77A17EE56
:10187800902A5A615D4B00221A703B69FB61FB6834
:10188800BB61544B1B889BB29B089BB2624A9B006E
:1018980013441B68614A1360FB7D032B2ED801A2F9
:1018A80052F823F0BD180008C7180008DD18000812
:1018B800EF180008594B1B68594A13601EE0574B34
:1018C80093ED007AF0EE006AC7EE267A544BC3ED2A
:1018D800007A13E0514BD3ED007A77EEA77A504B9C
:1018E800C3ED007A0AE04D4BD3ED007AB2EE047AEC
:1018F80077EE877A4A4BC3ED007A00BF474BD3EDAA
:10190800007A3D4B93ED007A77EE277A3A4BC3ED98
:10191800007A394BD3ED007A9FED387AF4EEC77A26
:10192800F1EE10FAACBF01230023DBB2002B0AD082
:10193800314BD3ED007A9FED317A77EEC77A2E4B93
:10194800C3ED007AE5E7364BD3ED007A2E4B93EDE5
:10195800007A77EE277A2C4BC3ED007A2A4BD3ED29
:10196800007A9FED267AF4EEC77AF1EE10FAACBF52
:1019780001230023DBB2002B0AD0234BD3ED007ADE
:101988009FED1E7A77EEC77A1F4BC3ED007AE5E725
:10199800244B1B6903F04003002B0CBF01230023D9
:1019A800DBB2002B12D0204B1B7883F00103DBB293
:1019B800002B3FF498AE154B1B7883F00103DAB285
:1019C800124B1A70184B01221A708CE6164B002223
:1019D8001A7088E6C4000020B80000201C0000200F
:1019E80000008045DC000020E0000020C00000204E
:1019F80000004844D4000020CC00002000A08C4700
:101A08000000000008000020D0000020C1000020D5
:101A18000074004000E0FF44E43000200000002093
:101A28000400002000080240C2000020DFF834D083
:101A3800002103E00C4B5B58435004310B480C4B1E
:101A480042189A42F6D30B4A02E0002342F8043BBC
:101A5800094B9A42F9D300F013F801F0E7FEFFF7BB
:101A680027FE704700000220A88A00080000002016
:101A78009C0000209C000020E4400020FEE70000BD
:101A880080B400AF164A164BD3F8883043F470037D
:101A9800C2F88830134A134B1B6843F001031360E4
:101AA800104B00229A600F4A0E4B1B6823F0847378
:101AB80023F4803313600B4B0B4A5A60094A094BD5
:101AC8001B6823F480231360064B0022DA60044B62
:101AD8004FF000629A6000BFBD465DF8047B704716
:101AE80000ED00E0003802401030002480B487B0D8
:101AF80000AF00233B6100237B610223FB600023CE
:101B0800BB6002237B60324B9B6803F00C033B6194
:101B18003B69042B07D0082B09D0002B3DD12D4B56
:101B28002D4A1A603DE02B4B2C4A1A6039E0284BAD
:101B38005B689B0D03F00103BB60254B5B6803F0FA
:101B48003F037B60BB68002B0CD0244A7B68B2FB48
:101B5800F3F31F4A52689209C2F3080202FB03F327
:101B68007B610BE01C4A7B68B2FBF3F3184A5268AE
:101B78009209C2F3080202FB03F37B61144B5B6812
:101B88001B0C03F0030301335B00FB607A69FB68FD
:101B9800B2FBF3F30F4A136003E00E4B0E4A1A60D0
:101BA80000BF0B4B9B681B0903F00F030C4AD35C67
:101BB800DBB23B61074B1A683B6922FA03F3054A1B
:101BC800136000BF1C37BD465DF8047B704700BF3B
:101BD80000380240200000200024F40000127A009F
:101BE80024000020000000001FB551EC100B1E4A15
:101BF80021F00043934206DC9FED191B00F0F8FE2C
:101C080051EC100B07E0194A934209DD10EE102A37
:101C18000B46FEF7D9FA41EC100B05B05DF804FB52
:101C2800684600F0E9F900F0030001289DED021B69
:101C38009DED000B07D002280ED00028DED0012031
:101C480001F00EFBDCE701F00BFB53EC102B10EE60
:101C5800100A03F10041DEE700F0CAFEF5E700BF15
:101C68000000000000000000FB21E93FFFFFEF7FBC
:101C78001FB551EC100B204A21F00043934207DCBA
:101C88009FED1B1B002001F0EBFA51EC100B07E055
:101C98001A4A934209DD10EE102A0B46FEF794FA11
:101CA80041EC100B05B05DF804FB684600F0A4F9A0
:101CB80000F0030001289DED021B9DED000B04D0F0
:101CC800022805D070B90120DDE700F091FEDCE7BD
:101CD800012001F0C5FA53EC102B10EE100A03F1A5
:101CE8000041DDE700F084FEF5E700BFAFF30080B8
:101CF8000000000000000000FB21E93FFFFFEF7F2C
:101D080070B52DED048BB54C8AB0F0EE408AB0EE7C
:101D1800608A00F063FB94F900506B1CB0EE409AA7
:101D280026465DD0B4EE488AF1EE10FA58D6F4EEA5
:101D3800688AF1EE10FA21D7B5EE408AF1EE10FA72
:101D48004ED101230093A64B019318EE900A00236D
:101D58000893FEF799FBCDE9020118EE100AFEF789
:101D680093FBA04B0022022DCDE90401CDE9062307
:101D780030D0684601F0BCFB30BB62E0F5EE408A2B
:101D8800F1EE10FA62D1B5EE408AF1EE10FA2DD1DB
:101D980001230093924B019318EE900A00230893B5
:101DA800FEF772FBCDE9020118EE100AFEF76CFB94
:101DB80000220023CDE90401CDE90623002DD8D067
:101DC800884B0022CDE90623089B1BB101F028FDB2
:101DD800089B0360DDE90601FEF76CFE09EE100AB8
:101DE800B0EE490A0AB0BDEC048B70BDB0EE480AEB
:101DF80001F08BFC0028F3D0B5EEC08AF1EE10FAA2
:101E0800EED501230093764B019318EE900A002338
:101E18000893FEF739FBCDE9020118EE100AFEF728
:101E280033FB94F90030CDE9040123B900220023E3
:101E3800CDE906239DE76C490020CDE90601022B78
:101E480097D101F0EDFC21230360BDE701F05DFCB3
:101E58000546002840F09180B0EE680A01F055FC74
:101E6800002800F08A80B0EE480A01F04EFC0028F5
:101E780000F08380B4EE499AF1EE10FA94F900402C
:101E8800574B1BD7012218EE900A8DE80C000895D5
:101E9800FEF7FAFACDE9020118EE100AFEF7F4FA95
:101EA8000022CDE904010023002CC1D010461946B8
:101EB800FEF768FC022CCDE90601C1E7032218EE03
:101EC800900A8DE80C000895FEF7DEFACDE90201CC
:101ED80018EE100AFEF7D8FACDE904015CBB434BB3
:101EE800F5EEC08A4FF06042F1EE10FACDE9062314
:101EF8006CD5F6EE007A68EE277A17EE900AFEF7B0
:101F0800C3FA04460D4645EC104B01F0F3FA20469F
:101F180053EC102B2946FEF773FD20B9344B4FF0D4
:101F28006042CDE9062396F90030022B4ED101F02C
:101F380077FC222388E72F4BF5EEC08A0022F1EECA
:101F480010FACDE90623EED5F6EE007A68EE277A88
:101F580017EE900AFEF798FA04460D4645EC104B2A
:101F680001F0C8FA204653EC102B2946FEF748FD2D
:101F78000028D8D100221C4BD3E7B5EE409AF1EEE9
:101F880010FA7FF42DAFB0EE680A01F0BEFB00280E
:101F98003FF426AFB0EE480A01F0B7FB00283FF443
:101FA8001FAF042300930E4B019318EE900A0023F1
:101FB8000893FEF769FACDE9020118EE100AFEF758
:101FC80063FA0022CDE904010023AAE7684601F07C
:101FD8008FFA00287FF4F8AEA9E700BF340000208C
:101FE800988800080000F03F0000F0FFFFFFEF476F
:101FF800FFFFEFC70000F07F2DE9F04F57EC106BA3
:10200800C34B8DB027F0004898450446049707DC79
:102018000022002384ED000BC0E90223002527E0FD
:10202800BC4B984575DC049BBB4D002B10EE100A89
:10203800A9A3D3E90023394636DDFEF7C5F8A8453C
:1020480006460F4618D0A6A3D3E90023FEF7BCF82E
:1020580002460B46C4E9002330463946FEF7B4F879
:102068009FA3D3E90023FEF7AFF8C4E902010125D5
:1020780028460DB0BDE8F08F9BA3D3E90023FEF7F7
:10208800A3F89BA3D3E9002306460F46FEF79CF866
:1020980002460B46C4E9002330463946FEF794F859
:1020A80093A3D3E90023DEE7FEF790F8A845064698
:1020B8000F4616D08AA3D3E90023FEF787F8024615
:1020C8000B46C4E9002330463946FEF77DF884A361
:1020D800D3E90023FEF77AF84FF0FF35C4E902018F
:1020E800C6E781A3D3E90023FEF770F880A3D3E9FC
:1020F800002306460F46FEF769F802460B46C4E978
:10210800002330463946FEF75FF879A3D3E9002368
:10211800E0E7824B984500F3D08001F05BF957EC7B
:10212800106B10EE100A74A3D3E900233946FEF7AA
:10213800FFF900227A4BFEF749F8FEF793FC0546B3
:10214800FEF790F964A3D3E90023CDE90201FEF775
:10215800EFF902460B4630463946FEF735F860A3DC
:10216800D3E9002382468B46DDE90201FEF7E0F958
:102178001F2D06460F462ADC6A1E6A4B53F822308A
:10218800984524D032463B4650465946FEF71CF83F
:10219800C4E90001D4E90089504642464B465946F5
:1021A800FEF712F83B463246FEF70EF8049B002B6A
:1021B800C4E90201BFF65CAF09F100436360C4F8EB
:1021C8000080A06001F10043E3606D4250E73246B1
:1021D8003B4650465946FDF7F7FF4FEA2852C1F3F0
:1021E8000A53D31A102BC4E900010592D2DD3EA38D
:1021F800D3E90023DDE90201FEF79AF906460F4606
:1022080002460B4650465946FDF7DEFF02460B468E
:102218008046894650465946FDF7D6FF32463B462A
:10222800FDF7D2FF32A3D3E9002306460F46DDE9C6
:102238000201FEF77DF932463B46FDF7C5FF02462F
:102248000B4606460F4640464946FDF7BDFF059A30
:10225800C1F30A53D31A312BC4E900012ADD28A39C
:10226800D3E90023DDE90201FEF762F906460F46CD
:1022780002460B4640464946FDF7A6FF02460B4676
:1022880082468B4640464946FDF79EFF32463B460E
:10229800FDF79AFF1CA3D3E9002306460F46DDE9A4
:1022A8000201FEF745F932463B46FDF78DFF06462B
:1022B8000F4667E7C246CB466CE71B4B984535DDB2
:1022C80010EE102A3B4630463946FDF77DFFC4E93B
:1022D8000201C4E90001A1E600004054FB21F93FD6
:1022E8003163621A61B4D03D0000601A61B4D03D18
:1022F8007370032E8A19A33B83C8C96D305FE43F0E
:102308000000002E8A19A33BC14920259A837B39F6
:10231800FB21E93F7BD90240FB21F93FFB213941F1
:102328000000E03FA0880008FFFFEF7F4FEA285534
:10233800A5F21645A8EB055130460F46FEF792FB6D
:10234800FEF790F802460B4630463946CDE906239B
:10235800FDF73AFF00221F4BFEF7EAF80F46064644
:10236800FEF780FBFEF77EF802460B4630463946FC
:10237800CDE90823FDF728FF0022164BFEF7D8F811
:10238800CDE90A010DF130094FF0030800260027B6
:1023980032463B4679E9020108F1FF3AFEF730FB85
:1023A800B0B90D4B0193022300932A4643462146B8
:1023B80006A800F005FC049B002B0546BFF658AEA6
:1023C800636803F100436360E36803F10043FBE6DD
:1023D800D046DDE700007041208900082DE9F04172
:1023E80010EE905A35F000472DED028BB0EE408A82
:1023F800F0EE608A00F0958210EE108A28F0004412
:10240800B4F1FF4F06DCB7F1FF4F0ADDB4F17E5F90
:1024180000F08782BDEC028BD948BDE8F04101F09D
:102428007FB9B8F1000F1DDAB7F1974F2CDAB7F181
:102438007E5F30DBFB15C3F1960347FA03F606FA15
:1024480003F39F4227D106F00106C6F10206B7F151
:102458007E5F22D1002D80F26A82F7EE007A87EE45
:10246800880A0DE00026B7F1FF4FF0D1B4F17E5F86
:1024780000F057820ADD002D80F256829FEDC10AD6
:10248800BDEC028BBDE8F0810226ECE7002DF5DA01
:10249800B1EE680AF4E70026D9E7B5F1804F02D11A
:1024A80028EE080AECE7B5F17C5FB0EE480A08D1DF
:1024B800B8F1000F05DBBDEC028BBDE8F04100F080
:1024C8004FBA01F01BF924B128F04043B3F17E5F05
:1024D80017D1002DBCBFF7EE007A87EE800AB8F15D
:1024E800000FCDDAA4F17E5454EA060304D170EE4D
:1024F800407A87EEA70AC3E7012EC1D1B1EE400AA0
:10250800BEE74FEAD870013856EA000304D138EE26
:10251800488A88EE080AB3E7B7F19A4F6DDD9A4BFF
:102528009C4206DC002DA9DA9FED980A20EE000AED
:10253800A6E7974B9C4202DD002DF5DC9EE7F7EEFF
:10254800007A30EE670A9FED937A9FED936AF1EE79
:10255800406AF5EE007AA6EEA77AF6EE007AE6EE85
:10256800877A20EE007A27EE877ADFED8C7A67EE9D
:10257800C77A9FED8B7AE0EE077AB0EE677AA0EE25
:10258800067A17EE103A23F47F6323F00F0307EE61
:10259800103AA6EE867A77EEC77A25F47F6525F09D
:1025A8000F0507EE105A67EEA87A78EEC78A07EE8D
:1025B800103A06EE905AE7EE287A013E56EA0002F3
:1025C80027EE267ABFEE000A77EE876AB7EE008A12
:1025D80016EE904A08BFB0EE408A002C24F0004363
:1025E80040F38681B3F1864F40F3FC80DFED677AD4
:1025F80028EE270A20EE270A42E7B4F5000FBFBFEE
:10260800DFED687A60EE277A6FF0170217EE904ACE
:102618004FEAE453A8BF00227F3B1344624AC4F345
:102628001604944244F07E5106DD604A944240F319
:10263800A5800133A1F5000100245D4AA7003A44B2
:1026480007EE901A92ED007A5A4A77EE876AF7EE0B
:10265800005A85EEA65A491041F0005101F5802133
:1026680001EB445137EEC76A06EE901A66EE054A4A
:1026780014EE90EA02EA0E0E05EE90EAB1EE654A13
:10268800A4EE266A76EEC76A35EEA47A77EEE66A95
:10269800DFED497AA4EE266A66EE056A24EEA46A9E
:1026A8009FED465AE6EE057A9FED455AA6EE275A63
:1026B800DFED387AE6EE057A9FED425AA6EE275A04
:1026C800DFED417AE6EE057A66EE063AB0EE085A94
:1026D80027EE267AB0EE456AA3EEA77AA5EEA56A9C
:1026E80036EE076A16EE101A114006EE101A76EE4C
:1026F800457A9FED365AE4EE257A77EE677A67EEEB
:10270800A47AE6EE267AB0EE677AA5EE867A17EE18
:10271800101A114007EE101AA4EE067A05EE901A68
:1027280077EEC77A9FED2A7A2A4967EE877A9FED76
:102738002A7AE5EE877A394491ED007A37EE877A7E
:1027480007EE903AB0EE476A244BA5EE856A3B4403
:10275800D3ED004AF8EEE76A36EE246A76EE267A7A
:1027680017EE903A134007EE903A77EEE67A77EE56
:10277800E47AE5EEC57A77EE677A0EE701245CE73E
:102788009C88000800000000F7FF7F3FCAF24971EB
:102798000700803FABAAAA3E00AAB83F3BAAB83FB1
:1027A80070A5EC360000804B71C41C00D6B35D00E8
:1027B800288A000800F0FFFF55326C3E42F1533E74
:1027C80005A38B3EB76DDB3E9A99193F0038763FDB
:1027D8004F38763F388A0008A0C39D36308A0008F3
:1027E8003CAA383340F094801FED036A76EEC76A3E
:1027F80037EE866AB4EEE66AF1EE10FA3FF7F6AE07
:10280800DB15A3F17E004FF4000303412344C3F317
:10281800C75248497F3A114123EA0101C3F3160020
:1028280006EE901A40F40000C2F117021041002C85
:1028380037EE667AB8BF404277EE276A9FED3E6A68
:1028480016EE903A23F47F6323F00F0306EE903AD6
:1028580036EEC77A77EEC77A9FED387A26EE877A12
:10286800A7EE867AF0EE477A9FED357AB0EE670AE2
:10287800A6EE870AB0EE406AA6EEC76A20EE007A96
:1028880077EEC67ADFED2F6A9FED2F6AA7EE266AEC
:10289800DFED2E6AE7EE066A9FED2D6AA7EE266A3F
:1028A800DFED2C6AE7EE066AB0EE406AA7EE666ACC
:1028B800F0EE006AB0EE467A77EE666A20EE066AB7
:1028C800E0EE277A86EE267A77EE677A37EEC00A48
:1028D800F7EE007A37EEC00A10EE103A03EBC05359
:1028E800B3F5000F1ADA00F021FF20EE080AC7E559
:1028F800194A934202DDDFED197A79E608D176EEBE
:10290800C76AF4EEE67AF1EE10FA3FF679AFF2E72D
:10291800B3F17C5F3FF774AF00208DE700EE103A0B
:10292800E3E7B7EE000AABE5B0EE680AA8E5B0EE5B
:10293800480AA5E5FFFF7F001872313F8CBEBF35FE
:102948000072313F4CBB31330EEADDB555B38A38DE
:10295800610B36BBABAA2A3E000016436042A20DAB
:1029680010EE102A22F00041B1F1FF4F70B502D3EA
:10297800A0EE000A70BDB1B3002A04DA70EE407A06
:1029880087EEA70A70BDB1F5000F4FEAE25304D2F3
:102998000021100228D501395B1A7F3BC2F31602C9
:1029A800D90742F4000248BF5200591000235200D0
:1029B80019241E464FF0807035189542DEBF2E1838
:1029C800521B1B18013C4FEA42024FEA5000F3D158
:1029D80012B1013323F001035B1003F17C5303EBC5
:1029E800C15300EE103A70BD52000131D1E700002A
:1029F8002DE9F04F59EC108B29F0004785B0B7F15D
:102A0800795F8DED001B07DA10EE100A4946FEF7D4
:102A180029F8002800F0AA8042464B46404649461D
:102A2800FDF786FD59A3D3E9002304460D46FDF7BB
:102A38007FFD58A3D3E90023FDF7C8FB22462B46A8
:102A4800FDF776FD55A3D3E90023FDF7BDFB22462C
:102A58002B46FDF76DFD53A3D3E90023FDF7B6FB25
:102A680022462B46FDF764FD50A3D3E90023FDF76A
:102A7800ABFB22462B46FDF75BFD4EA3D3E90023B3
:102A8800FDF7A4FB2B462246FDF752FD3A4B9F4229
:102A980082468B462CDC0022384B20462946FDF71F
:102AA80047FD524606460F465B4620462946FDF737
:102AB8003FFDDDE9002304460D4640464946FDF743
:102AC80037FD02460B4620462946FDF77DFB0246A8
:102AD8000B4630463946FDF777FB0B462849024638
:102AE8000020FDF771FB41EC100B05B0BDE8F08F3D
:102AF800244B23499F42D7BFA7F50013224F00223A
:102B08001646D4BF1F46002632463B460020FDF736
:102B18005BFB0022CDE90201184B20462946FDF750
:102B280007FD32463B46FDF74FFB524606460F4629
:102B38005B4620462946FDF7FBFCDDE900230446F9
:102B48000D4640464946FDF7F3FC02460B46204633
:102B58002946FDF739FB02460B4630463946FDF754
:102B680033FB02460B46DDE90201BAE700200449BF
:102B7800B9E700BFAFF300803233D33F0000E03F36
:102B88000000F03F0000E93F0000D23FD43888BE83
:102B9800E9FAA8BDC4B1B4BD9EEE213EAD529C80F9
:102BA8004F7E923E9015CB19A001FA3E7751C1167F
:102BB8006CC1563F4C5555555555A53F0000000072
:102BC8002DE9F04F2DED028BADF5197DD41E06933E
:102BD8000291C34BA499099053F821300093069BA6
:102BE800013B0493182394FBF3F46FF0170324EAD2
:102BF800E47404FB033303EB020A009B049A9FED81
:102C0800B48B03EB0208A59BA71A20AE03EB870938
:102C18000025454513DD9FEDAE8B0DF5E07B0026C5
:102C2800009B9E4232DC099B0393069B9D1920ABB7
:102C380003EBC503089359EC188B00271FE0EF42FC
:102C480007D459F82500FDF70DFCE6E80201013527
:102C5800DFE751EC180BF8E70899039D71E90223A7
:102C68000891F5E802010395FDF762FC02460B4660
:102C780040464946FDF7AAFA013780468946049B33
:102C88009F42E9DDEBE802890136C9E7009B009F16
:102C98000CAA02EB83030B93A59B03EB84030A9313
:102CA80098AB07F1005B03EBC7030BF1FF3B53E95C
:102CB80028894FEACB030893089A98AB1344A3F1E9
:102CC800980B0026BB1B002B77DC49EC108B504679
:102CD80000F09AFC55EC104B00224FF07F5310EE99
:102CE800100A2946FDF724FC41EC100B00F07CFB90
:102CF800002251EC100B7B4BFDF71AFC02460B46E9
:102D080020462946FDF760FA0D460446FDF7AAFE5F
:102D18000390FDF7A7FB02460B4620462946FDF720
:102D280053FABAF1000F804689466BDD7A1E0CAB68
:102D3800CAF1180153F82200039C40FA01F31C441D
:102D48008B40C01A0CAB039443F82200CAF1170356
:102D580040FA03FBBBF1000F62DD039B0022013345
:102D6800039314466FF07F41974200F38980BAF1CC
:102D7800000F07DDBAF1010F00F09680BAF1020FDB
:102D880000F09C80BBF1020F4AD142464B4600201E
:102D98005549FDF719FA80468946002C40D050461F
:102DA8009FED4D0B00F030FC4046494653EC102B8C
:102DB800FDF70AFA8046894632E000224B4B40462E
:102DC8004946FDF7B5FBFDF74DFEFDF74BFB00222D
:102DD800474B04460D46FDF7ABFB02460B46404603
:102DE8004946FDF7F1F9FDF73DFE0CAB294643F8DE
:102DF80026007BE902232046FDF7E8F901368046E4
:102E080089465FE706D17B1E0CAA52F823004FEAD9
:102E1800E05B9FE70022374BFDF710FE68BB834657
:102E28000022002340464946FDF7EAFD002800F04D
:102E3800C1807C1E2346002200998B425CDA002A5E
:102E480040F08B8001246FF0030202FB04F30B991E
:102E5800CB58002B56D0089B98AA1344A3F1900B8B
:102E6800069BDD1920AB03EBC505E3197E1C039314
:102E7800039B9E4248DD1F4612E74FF0020B6CE7AA
:102E88000CAB53F822304CB92BB10CA8C3F18073AA
:102E980040F82230012301321C4665E70CA8CB1A02
:102EA80040F822302346F6E77A1E0CAB53F822305E
:102EB800C3F316030CA941F8223063E77A1E0CAB62
:102EC80053F82230C3F31503F4E700BFAFF30080D3
:102ED8000000000000000000000000000000F03FBB
:102EE800808A0008000020400000F03F0000703E8B
:102EF800000070410000E03F0CA951F82310013B8D
:102F08000A4399E70134A0E70A9B53F82600FDF726
:102F1800A9FAE5E80201099B08951C4600274FF02D
:102F280000084FF00009049B9F4203DDEBE802898B
:102F380001369DE7089971E902230891F4E8020136
:102F4800FDF7F6FA02460B4640464946FDF73EF9BC
:102F5800013780468946E6E7013C0CABAAF1180A1E
:102F680053F82430002BF7D050469FEDB50B00F0F6
:102F78004BFBE50098AB03EB050957EC106BA9F187
:102F88009809A046B8F1000F4DDA9FEDAF8B0DF50B
:102F9800907A002304935746049BB4EB030976D434
:102FA800AB4B1E4670AB03EBC9098DED068B4FF09A
:102FB80000085EE0CAF1000049EC108B00F024FB29
:102FC80055EC104B0022A34B10EE100A2946FDF7D2
:102FD80035FDF8B10022A04B20462946FDF7A8FA96
:102FE800FDF740FD0646FDF73DFA0022994BFDF737
:102FF8009FFA0B46024629462046FDF7E5F8FDF7FD
:1030080031FD7C1C0CAB0AF1180A43F8270043F881
:103018002460A9E720462946FDF724FD0CAB3C4671
:1030280043F82700A0E70CAB53F82800FDF71AFA7D
:1030380032463B46FDF77CFA002269E90201864BDD
:1030480030463946FDF774FA08F1FF3806460F4650
:1030580098E7F9E80223F6E80201FDF769FA024663
:103068000B46DDE90601FDF7B1F8CDE9060108F1E7
:103078000108009B984502DC049B9845E9DD049B08
:103088009DED067B0133AAEC027B049384E7A49BA5
:10309800032B5DD8DFE803F04B26260298AB1D44CE
:1030A800A5F59C752E46A246BAF1000F6EDC2E4699
:1030B800A246BAF1010F00F38A8000200021012CFA
:1030C80000F3A680BBF1000F40F0A880DDE948239B
:1030D800029CC4E90023DDE94A23C4E90401C4E9E8
:1030E800022335E0083548AB1D4426460020002160
:1030F800002E3CDABBF1000F3FD0024601F100433D
:10310800029DC5E9002302460B46DDE94801FDF7AB
:103118005BF84AAE0125AC4232DABBF1000F02D0AF
:1031280001F100431946029BC3E9020110E098AB84
:103138001D44A5F59C7500200021002C11DABBF177
:10314800000F02D001F100431946029BC3E90001B8
:10315800039B03F007000DF5197DBDEC028BBDE85C
:10316800F08F75E90223FDF731F8013CE5E775E9D1
:103178000223FDF72BF8013EBAE702460B46BFE7EC
:10318800F6E80223FDF722F80135C4E716ED027BC5
:1031980056E9048953EC172B404649468DED007BD0
:1031A800FDF714F8CDE9040102460B4640464946AE
:1031B800FDF70AF8DDE90023FDF708F89DED047B2B
:1031C80066E902010AF1FF3A06ED027B6CE716EDAB
:1031D800027B56E9048953EC172B404649468DED8E
:1031E800007BFCF7F3FFCDE9040102460B4640469D
:1031F8004946FCF7E9FFDDE90023FCF7E7FF9DED11
:10320800047B66E902010AF1FF3A06ED027B50E70A
:1032180075E90223FCF7DAFF013C50E7029A3B68A4
:1032280013607B68106103F100435360BB689360CF
:10323800FB6803F10043D36001F10043536187E762
:10324800000000000000F03F000000000000000047
:10325800408A0008000070410000703E0000000035
:103268002DE9F04F55EC104B85B025F00043B3F134
:10327800795F8DED001B029006DA10EE100A2946E0
:10328800FDF7F0FB002851D022462B462046294660
:10329800FDF74EF982468B4602460B4620462946E4
:1032A800FDF746F941A3D3E90023804689465046F5
:1032B8005946FDF73DF93FA3D3E90023FCF784FF06
:1032C80052465B46FDF734F93CA3D3E90023FCF7EB
:1032D8007DFF52465B46FDF72BF93AA3D3E900235D
:1032E800FCF772FF52465B46FDF722F937A3D3E994
:1032F8000023FCF76BFF029B06460F46DBB902462C
:103308000B4650465946FDF713F925A3D3E9002388
:10331800FCF75AFF42464B46FDF70AF902460B46B0
:1033280020462946FCF752FF04460D4645EC104B53
:1033380005B0BDE8F08F00221B4BDDE90001FDF769
:10334800F7F83246CDE902013B4640464946FDF7CB
:10335800EFF802460B46DDE90201FCF735FF52465D
:103368005B46FDF7E5F8DDE90023FCF72DFF0CA32C
:10337800D3E9002306460F4640464946FDF7D8F8EC
:1033880002460B4630463946FCF720FF02460B46FC
:1033980020462946FCF718FFC6E700BFAFF30080B8
:1033A800495555555555C53F0000E03F7CD5CF5A86
:1033B8003AD9E53DEB9C2B8AE6E55A3E7DFEB157AE
:1033C800E31DC73ED561C119A0012A3FA6F8101117
:1033D8001111813F53EC102B23F0004343EC102BC9
:1033E800704700000000000051EC100B2DE9F0417F
:1033F800C1F30A57A7F2FF36132E10EE108A0C46B7
:1034080010EE105A35DC002E17DA35A3D3E9002365
:10341800FCF7DCFE00220023FDF71AFB50B1002C5C
:103428005ADA24F0004353EA08032F4B4FF0000503
:1034380018BF1C462146284625E02C4F374101EA93
:10344800070303431FD026A3D3E90023FCF7BEFEDE
:1034580000220023FDF7FCFA0028EBD0002CBEBFA9
:103468004FF4801343FA06F6A41924EA070400254A
:10347800E0E7332E0BDDB6F5806F04D110EE102A8D
:103488000B46FCF7A3FE41EC100BBDE8F081A7F258
:1034980013474FF0FF3323FA07F73842F3D010A34E
:1034A800D3E90023FCF792FE00220023FDF7D0FAAF
:1034B8000028BFD0002C02DA142E03D1013425EAEB
:1034C8000705B7E70123C6F1340603FA06F63544C3
:1034D800A84588BFE418F2E700252C46AAE700BFF4
:1034E8009C7500883CE4377E0000F0BFFFFF0F00AA
:1034F80000207047F7B551EC100BC1F30A54A4F241
:10350800FF36132E10EE107A0B4602464FEAD1759D
:1035180058DC002E2BDA21F00042024323D0C1F3FD
:103528001302024351421143090B5B0C01F40021C1
:103538005B0441EA0307314B03EBC5033946D3E982
:10354800006710EE100A32463B46FCF73FFECDE915
:1035580000013B463246DDE90001FCF735FE21F06B
:10356800004343EAC57141EC100B03B0F0BD244C95
:10357800344101EA04070743F5D0610803EA010072
:1035880002430BD023EA01014FF48023132E43FAA0
:1035980006F30CBF4FF0004200220B431946174BAD
:1035A80003EBC505D5E9004510462B462246FCF736
:1035B8000DFECDE9000122462B46DDE90001FCF7AE
:1035C80003FED0E7332E08DDB6F5806FCBD110EEC1
:1035D800102A0B46FCF7FAFDC5E7A4F213464FF094
:1035E800FF34F4402042BED061080F421FBF4FF0A5
:1035F800804227EA010132410A43CFE7908A000856
:10360800FFFF0F000000000070B555EC104BC5F32C
:103618000A5206462B46B2B925F0004323433CD054
:103628000022334B294610EE100AFCF781FF314A7D
:10363800964204460D460B4613DA29A3D3E9002324
:10364800FCF776FF0AE040F2FF718A420CD110EED7
:10365800102A2B4620462946FCF7B8FD04460D469D
:103668001BE0C1F30A52363A324440F2FE718A42F4
:103678000BDD45EC114B9FED1C0B00F0B7F81AA3BE
:10368800D3E9002351EC100BDAE7002A08DD23F018
:10369800FF4323F4E00343EA025545EC104B70BDA9
:1036A80012F1350F0DDA4CF250339E4245EC114BB6
:1036B800E1DC9FED0B0B00F099F809A3D3E9002397
:1036C800E0E723F0FF43363223F4E00343EA0255F0
:1036D800204629460022084BB2E700BFAFF300801E
:1036E80059F3F8C21F6EA5019C7500883CE4377E2B
:1036F80000005043B03CFFFF0000903C10EE103A31
:1037080023F0004300EE103A704710EE103A23F011
:103718000040B0F1FF4FACBF00200120704700000F
:103728009FED010A704700BF0000C07F08B510EE8A
:10373800102A32F000432DED028BF0EE400A04D03F
:10374800B3F1FF4F06D370EE000ABDEC028BB0EE6A
:10375800600A08BDB3F5000F1CD21F4BDFED1F7ABE
:10376800984260EE270A10DB10EE902AC2F3C75386
:10377800193B0344FE2B0FDD9FED198AB0EE480A72
:1037880000F041F860EE080ADFE7DFED167A60EE38
:10379800A70ADAE7DB0DECE7002B06DD22F0FF4293
:1037A80042EAC35300EE903ACFE713F1160F06DA58
:1037B8004CF250339842DFDC9FED0A8ADEE719337A
:1037C80022F0FF4242EAC353DFED077A07EE103AD0
:1037D80067EE270AB9E700BFB03CFFFF0000004CC6
:1037E800CAF249716042A20D0000003353EC102B5D
:1037F80011EE900A23F0004100F0004041EA000376
:1038080043EC102B704710EE103A10EE902A23F07C
:10381800004302F00042134300EE103A70470000E4
:10382800014B1868704700BF3800002070B50D4E76
:103838000D4CA41BA4100025A54209D10B4E0C4C1D
:1038480000F018F8A41BA4100025A54205D170BDEE
:1038580056F8253098470135EEE756F82530984751
:103868000135F2E7A08A0008A08A0008A08A0008AB
:10387800A48A0008F8B500BFF8BC08BC9E4670478B
:0C388800F8B500BFF8BC08BC9E467047B5
:103898000000000041D73E391BD5E939E5D44E3A3E
:1038A800A5129E3AA7E7DD3A2E53133B0EF53B3B94
:1038B8005796683B21938C3BD9B0A63B8E93C23B6D
:1038C800782AE03BD064FF3BE718103C8944213C50
:1038D800B728333CA3C9453C8716593C94136D3C23
:1038E80033DC803C67808B3C4B74963CFAB9A13C36
:1038F800404DAD3C1F2EB93C7D5AC53C8CD6D13CC1
:103908001B9EDE3C29B1EB3CE813F93C2062033DE9
:1039180030630A3D198C113DF4DE183DC05B203D33
:10392800A305283D9CDC2F3DD2E3373D5C1D403D7F
:10393800488A483DC72E513D0A0F5A3D2C2D633DFC
:10394800758F6C3D193A763DBD1A803DF243853D31
:10395800E99D8A3DEC2E903DCEFD953DEFE6A93DD3
:10396800B9C5BC3D54A8CE3DD09ADF3DB5A8EF3DC2
:103978008BDDFE3D2BA2063E43730D3E08E7133E4A
:10398800EF011A3EB0C81F3EF73E253E38692A3E71
:10399800994A2F3E4BE7333EEE41383E705E3C3E3F
:1039A800703F403E14E8433EB85A473E809A4A3E2C
:1039B80086A94D3E698A503E423F533E2ACA553E2B
:1039C800382D583E876A5A3EA9835C3E747A5E3E1B
:1039D800BE50603ED507623E4DA1633EB81E653EAF
:1039E8002481663E21CA673E01FB683E8C146A3E0C
:1039F80011186B3EE2066C3E82E16C3E00A96D3EFA
:103A0800AB5E6E3E08036F3EE1966F3E001B703E54
:103A18007190703E77F7703EDB50713EAA9D713E03
:103A2800E3DD713E9412723E003C723EAB5A723E28
:103A3800616F723E207A723EB37B723E9F74723E13
:103A4800E564723E4D4D723ED82D723E4F07723E70
:103A5800B2D9713E44A5713E8C6A713ECC29713E43
:103A680047E3703EFF96703E7845703EF6EE6F3E37
:103A780079936F3E87336F3EDDCE6E3E45666E3E70
:103A880038F96D3E7F886D3E1A146D3E0B9C6C3E76
:103A980092206C3EB2A16B3EEF1F6B3E079B6A3EC5
:103AA8003C136A3E9088693E44FB683E9C6B683EC6
:103AB80055D9673EB344673EB4AD663E9C14663E36
:103AC8006C79653E66DC643E473D643E529C633ECD
:103AD80087F9623E2A55623EF7AE613E3107613E84
:103AE800D95D603EEEB25F3EB3065F3E29595E3E49
:103AF8000DAA5D3EE4F95C3E6B485C3EA3955B3ED7
:103B08008BE15A3EAA2C5A3E7976593E3CBF583E24
:103B1800F206583E9C4D573E7D93563E51D8553E31
:103B2800191C553E185F543E4DA1533EB9E2523E12
:103B38001823523EF162513EBEA1503E05E04F3E71
:103B4800821D4F3E365A4E3E64964D3E85D14C3EC0
:103B5800630C4C3E78464B3EC37F4A3E88B8493E8C
:103B6800C7F0483E8028483E705F473E1C96463E58
:103B7800FFCB453E5C01453E3336443E836A433EB7
:103B88004D9E423E91D1413E9204413ECA36403E4E
:103B9800BE683F3E2C9A3E3E58CB3D3EB9FB3C3E6C
:103BA800D82B3C3E705B3B3EC68A3A3E95B9393EBF
:103BB80021E8383E2716383EA643373EE370363EA6
:103BC800DC9D353E4FCA343E7FF6333E2922333ED4
:103BD800904D323E7078313E0EA3303E68CD2F3E78
:103BE8007FF72E3E10212E3E5E4A2D3E69732C3EF5
:103BF800ED9B2B3E72C42A3E70EC293EE813293E09
:103C0800603B283E9562273E4489263EB0AF253E5C
:103C1800D8D5243EBDFB233E6021233EBF46223E2D
:103C2800DB6B213E7190203E07B51F3E5AD91E3EE0
:103C380026FD1D3EF3201D3E39441C3E7F671B3E7A
:103C4800408A1A3E00AD193E3ACF183E73F1173E2E
:103C58006A13173EDB34163E4B56153E7977143EF1
:103C68006398133E0AB9123E6FD9113E90F9103E7F
:103C7800B119103E4B390F3EE6580E3E3E780D3EC8
:103C880053970C3E24B60B3EB2D40A3EFEF2093ED0
:103C98004911093E512F083E164D073E986A063EC7
:103CA800D787053E16A5043E12C2033ECADE023E71
:103CB80040FB013EB517013EE833003EAE9FFE3D96
:103CC80006D7FC3D5E0EFB3DAA44F93D7C7BF73DE3
:103CD80042B1F53D08E7F33D471CF23D0151F03D87
:103CE800BA85EE3D67B9EC3D9AEDEA3DC020E93D65
:103CF800E753E73D8786E53D28B9E33D42EBE13DE3
:103D0800D61CE03D6A4EDE3D787FDC3DFFAFDA3DF4
:103D180087E0D83D8810D73D0340D53D7E6FD33D21
:103D2800739ED13D68CDCF3DD7FBCD3DBF29CC3D5E
:103D3800A857CA3D9085C83D6CB2C63D48DFC43D12
:103D4800240CC33D7A38C13D4964BF3D1990BD3D3F
:103D580062BBBB3DACE6B93D6F11B83D323CB63DE8
:103D68006F66B43D2590B23DDCB9B03D93E3AE3DFE
:103D7800C30CAD3D6E35AB3D185EA93D3C86A73DF5
:103D880060AEA53D84D6A33D9CFDA13D3925A03D4F
:103D9800514C9E3DE2729C3D74999A3D7FBF983D7F
:103DA8008AE5963D950B953D1A31933D1956913DFF
:103DB800187B8F3D17A08D3D8FC48B3D81E8893DD1
:103DC800740C883D6630863D5854843D3E77823D6C
:103DD800AA9A803D207B7D3DDFBF793D9F04763DDB
:103DE8005E49723D118D6E3DC4D06A3D6A13673DD0
:103DF8001156633DB7985F3D51DA5B3DEB1B583D6B
:103E0800795C543D069D503D87DC4C3D151D493D70
:103E18008A5B453D0B9B413D7FD93D3DE8163A3DC8
:103E28005054363DB891323D14CE2E3D7C0B2B3D7F
:103E3800CC46273D1B82233D6ABD1F3DBAF81B3D7A
:103E4800FD32183D406D143D76A6103DB9E00C3D9D
:103E5800E318093D1A52053D448A013DDC84FB3CC8
:103E680017F3F33C5261EC3C8DCFE43CB03BDD3CB6
:103E7800D2A7D53CF513CE3CFE7DC63C08E8BE3C37
:103E88001152B73C02BAAF3CF321A83CE389A03CED
:103E9800BBEF983C9355913C6BBB893C4221823CDB
:103EA800030A753C81D1653CCD94563C4B5C473C3C
:103EB800971F383CB1DE283CFDA1193C17610A3C2C
:103EC8000038F63B35B6D73B062CB93BD7A19A3B11
:103ED800512F783B2D0A3B3B10CAFB3AC77F813AEA
:103EE8000F7E6238B16C66BA2FA2EDBACA1734BB1E
:103EF800B64D71BB344A97BB8DEDB5BB4A99D4BB5F
:103F0800A33CF3BB30F408BC0E4A18BC1EA427BC63
:103F1800FDF936BC0D5446BC1DAE55BC5F0C65BCE6
:103F2800A16A74BC58E281BC929389BCB34291BC2B
:103F3800EDF398BC27A5A0BC6056A8BC9A07B0BCF6
:103F4800EDBAB7BC3F6EBFBC9221C7BCE5D4CEBCAE
:103F58003788D6BCA33DDEBC0EF3E5BC7AA8EDBC21
:103F6800FE5FF5BC8317FDBC776602BD464306BD00
:103F7800081F0ABDCAFA0DBD99D711BD67B415BD92
:103F8800369119BD116F1DBDE04B21BDBB2925BD63
:103F9800960729BD71E52CBD59C430BD34A234BD86
:103FA8001B8138BD03603CBDEA3E40BDDE1E44BDFA
:103FB800D2FE47BDBADD4BBDADBD4FBDAE9E53BDB4
:103FC800A27E57BDA25F5BBD963F5FBD962063BDD5
:103FD800970167BDA4E36ABDA4C46EBDB1A672BD56
:103FE800BE8876BDCA6A7ABDD74C7EBDF81781BD3A
:103FF800FF0883BD8BFA84BD18EC86BDA5DD88BD9E
:1040080031CF8ABD44C18CBDD1B28EBDE3A490BD71
:10401800F69692BD098994BDA27B96BDB56D98BDF3
:104028004E609ABDE7529CBDFA449EBD1938A0BDAA
:10403800B22AA2BD4B1DA4BD6B10A6BD202982BD0E
:10404800A54E40BD60C7FFBCB0CA85BC4D6812BB59
:10405800B806363C3276C23C7C2B123D7D76403D1C
:104068009F3C6C3D3ED08A3D315F9E3D5EDAB03D5F
:10407800EC4FC23DEACBD23DEE5AE23D8D09F13D0F
:10408800CAE2FE3D90F8053E431F0C3E79EA113E18
:10409800EA5E173E84801C3EBD53213E40DC253E2F
:1040A800FC1D2A3E9B1C2E3E44DB313E1C5D353EEA
:1040B80005A5383E67B63B3EE2933E3E8E3F413E05
:1040C8004DBC433E7C0C463E7632483ECF2F4A3E9E
:1040D80025074C3EC7B94D3E124A4F3E99B9503E4E
:1040E800365C543EAFD0573EDB185B3E8F365E3EA3
:1040F800282C613EB1FA633E01A4663EED29693E73
:10410800088E6B3E5FD16D3E84F56F3E09FC713EB3
:104118003FE6733EEEB4753E6669773E3A05793EF2
:10412800F0887A3ED8F57B3EBA4C7D3EE78E7E3EDF
:10413800E4BC7F3EDF6B803EFEEF803E766B813EC7
:104148006ADE813E5E49823E97AC823E7808833EB5
:10415800255D833E22AB833E91F2833ED733843E76
:10416800156F843EB1A4843ECCD4843E86FF843E41
:104178004625853E2C46853E7C62853E577A853E9F
:10418800008E853E779D853E00A9853EBCB0853E64
:10419800EEB4853E95B5853ED5B2853E10AD853EDB
:1041A80005A4853E1898853E4889853EB877853EA2
:1041B8008863853EDB4C853EB133853E2B18853EB2
:1041C80048FA843E4DDA843E39B8843E2D94843EC4
:1041D8002B6E843E3046843E611C843EDCF0833E78
:1041E800A4C3833ED994833E7C64833E8B32833E52
:1041F80009FF823E36CA823E1494823E815C823E2A
:10420800C023823E8EE9813E4FAE813EE371813EFE
:104218004834813EA1F5803EEEB5803E2E75803E45
:104228006133803E54E17F3E105A7F3EF6D07E3E99
:1042380006467E3E41B97D3EE92A7D3EFE9A7C3E99
:1042480081097C3E71767B3ECEE17A3EDC4B7A3E3C
:1042580057B4793E821B793E1B81783EA8E5773EAC
:10426800E448773ED2AA763E700B763E016B753EE7
:1042780086C9743EBB26743EE482733EBEDD723E40
:10428800CE37723ED190713E86E8703E703F703EE8
:1042980092956F3E64EA6E3E6C3E6E3EAC916D3E0A
:1042A800DEE36C3E48356C3EE8856B3E7CD56A3E65
:1042B80046246A3E4772693E7FBF683EED0B683E02
:1042C800D657673EB1A2663EC4EC653E5036653EA1
:1042D800137F643E0DC7633E800E633E2A55623EDF
:1042E8000B9B613E65E0603EF624603E01695F3EDF
:1042F80086AC5E3E41EF5D3E77315D3E26735C3EA7
:104308000BB45B3E6BF45A3E44345A3E9773593EA5
:1043180064B2583EAAF0573E272E573E616B563E70
:10432800D2A7553EBDE3543E641F543E865A533EC1
:10433800DD94523EF2CE513E8108513E8941503EB5
:104348000B7A4F3E4AB24E3EC0E94D3EF3204D3EF9
:10435800E2574C3E088E4B3EEBC34A3E48F9493E75
:10436800622E493EF662483E0397473ECDCA463E16
:1043780011FE453ECF30453E4963443E8195433E5C
:1043880032C7423E5DF8413E4529413EEA59403E2A
:10439800098A3F3EE5B93E3E3AE93D3E4C183D3E6E
:1043A800D8463C3E21753B3E27A33A3EEAD0393EEB
:1043B80026FE383E1F2B383E9357373EC383363E82
:1043C800B0AF353E59DB343E7D06343E5D31333E79
:1043D800FB5B323E5586313E6CB0303EFDD92F3EF8
:1043E8004B032F3E562C2E3E1D552D3EA27D2C3EB6
:1043F800A0A52B3E9FCD2A3E17F5293E4C1C293EF1
:104408003D43283EEC69273E5890263E80B6253E1F
:1044180066DC243E0802243E2427233E404C223EEC
:104428001971213E6C95203EBFB91F3ECEDD1E3E60
:1044380058011E3EE1241D3E28481C3E2B6B1B3EA6
:10444800A88D1A3E25B0193E5FD2183E56F4173E85
:104458000916173EBD37163EEA58153ED579143E63
:10446800BF9A133E23BB123E87DB113EA9FB103EC9
:10447800861B103E213B0F3E795A0E3ED1790D3EE8
:10448800A2980C3E74B70B3E02D60A3E4DF4093E84
:104498009912093E5E30083E234E073EA56B063E44
:1044A800E388053E22A6043EDBC2033E93DF023EBC
:1044B80009FC013E7E18013E6E34003EBAA0FE3D66
:1044C80099D8FC3D6B0FFB3D3D46F93D897CF73D96
:1044D8004FB2F53D14E8F33D541DF23D0D52F03D49
:1044E8004086EE3D73BAEC3D20EEEA3DCD21E93D34
:1044F800F354E73D9487E53DAEB9E33DC8EBE13DB4
:104508005C1DE03DF04EDE3DFE7FDC3D85B0DA3DD2
:104518000DE1D83D0E11D73D8940D53D0470D33DFE
:10452800F99ED13DEECDCF3D5DFCCD3D452ACC3D3C
:104538002E58CA3D9085C83DF2B2C63DCEDFC43D77
:10454800240CC33D7A38C13DD064BF3D1990BD3DB0
:10455800E8BBBB3DACE6B93D6F11B83D323CB63D5A
:104568006F66B43DAC90B23D62BAB03D93E3AE3DE8
:10457800C30CAD3D6E35AB3D185EA93DC286A73D67
:1045880060AEA53D84D6A33D22FEA13D3925A03DC0
:10459800514C9E3DE2729C3D74999A3D7FBF983D77
:1045A8008AE5963D950B953D1A31933D1956913DF7
:1045B800187B8F3D17A08D3D8FC48B3D81E8893DC9
:1045C800FA0C883D6630863D5854843D3E77823DDE
:1045D800AA9A803D207B7D3DDFBF793D9F04763DD3
:1045E8005E49723D118D6E3DC4D06A3D6A13673DC8
:1045F8001156633DB7985F3D51DA5B3DEB1B583D63
:10460800795C543D069D503D87DC4C3D151D493D68
:104618008A5B453D0B9B413D7FD93D3DE8163A3DC0
:104628005054363DB891323D20CF2E3D7C0B2B3D6A
:10463800CC46273D2783233D6ABD1F3DBAF81B3D65
:10464800FD32183D406D143D76A6103DB9E00C3D95
:10465800E318093D1A52053D448A013DDC84FB3CC0
:1046680017F3F33C5261EC3C8DCFE43CB03BDD3CAE
:10467800D2A7D53CF513CE3CFE7DC63C08E8BE3C2F
:104688001152B73C02BAAF3CF321A83CE389A03CE5
:10469800BBEF983C9355913C6BBB893C4221823CD3
:1046A800030A753C81D1653CCD94563C4B5C473C34
:1046B800971F383CB1DE283CFDA1193C17610A3C24
:1046C8000038F63B35B6D73B062CB93BD7A19A3B09
:1046D800512F783B2D0A3B3B10CAFB3AC77F813AE2
:1046E8000F7E6238B16C66BA2FA2EDBACA1734BB16
:1046F800B64D71BB344A97BB8DEDB5BB4A99D4BB57
:10470800A33CF3BB30F408BC0E4A18BC1EA427BC5B
:10471800FDF936BC0D5446BC1DAE55BC5F0C65BCDE
:10472800A16A74BC58E281BC929389BCB34291BC23
:10473800EDF398BC27A5A0BC6056A8BC9A07B0BCEE
:10474800EDBAB7BC3F6EBFBC9221C7BCE5D4CEBCA6
:104758003788D6BCA33DDEBC0EF3E5BC7AA8EDBC19
:10476800FE5FF5BC8317FDBC776602BD464306BDF8
:10477800081F0ABDCAFA0DBD99D711BD67B415BD8A
:10478800369119BD116F1DBDE04B21BDBB2925BD5B
:10479800960729BD71E52CBD59C430BD34A234BD7E
:1047A8001B8138BD03603CBDEA3E40BDDE1E44BDF2
:1047B800D2FE47BDBADD4BBDADBD4FBDAE9E53BDAC
:1047C80058565ABDF43460BD494B65BDDFA469BD78
:1047D80065506DBD645970BD58CA72BDC9AE74BD0F
:1047E8001B0F76BDBFF476BD166877BD7A7077BDAE
:1047F800591777BDE56076BD765475BD49F773BD29
:10480800B55072BDED6470BD22386EBD92CF6BBDE0
:104818006F2F69BDDE5A66BD115663BD392560BD6F
:104828007DCB5CBDE94959BDB9A555BDF0DE51BD8B
:10483800CAFA4DBD55FA49BD9CDE45BDC5AA41BD64
:10484800E9603DBD080139BD548F34BDBF0A30BD94
:1048580064752BBD5BD126BDB01F22BD63601DBD35
:104868008E9518BD2FBF13BD55DE0EBD0AF409BDC8
:104878005C0105BD3E0500BDAB05F6BC2CF2EBBCEA
:10488800FFCFE1BC3CA1D7BCFD67CDBC0000000058
:104898005DA3E5B979E665BA309FACBA234BE6BAB1
:1048A800520C10BB13F32CBB9AEA49BBE9F266BB66
:1048B8009CFD81BB268A90BBB1169FBB9FABADBB4D
:1048C800F148BCBB43E6CABB9483D9BB4A29E8BBC1
:1048D80062D7F6BBBDC202BCFC1D0ABC3A7911BC4A
:1048E800A9D818BC193820BCBB9B27BC5CFF2EBCC0
:1048F800306736BC35D33DBC3A3F45BC3FAB4CBCBA
:10490800761B54BCAC8B5BBC150063BCAF786ABC2F
:104918004AF171BCE46979BC587380BCBE3184BC6F
:104928003DF287BCBCB28BBC53758FBC043A93BCB8
:104938009CFC96BC65C39ABC16889EBCDF4EA2BC84
:10494800C217A6BCA4E0A9BC9FABADBC9B76B1BC0A
:104958009641B5BCAA0EB9BCBEDBBCBCEBAAC0BCB8
:10496800187AC4BC5E4BC8BCA41CCCBCE9EDCFBC57
:1049780048C1D3BCA794D7BC1F6ADBBC963FDFBC39
:104988002717E3BCB7EEE6BC47C6EABCF19FEEBC0E
:104998009A79F2BC5C55F6BC1F31FABCE10CFEBC3E
:1049A8005EF500BD4BE402BD45D404BD3FC406BD61
:1049B80039B408BD40A50ABD46960CBD59880EBD40
:1049C8006C7A10BD7F6C12BD9E5F14BDBD5216BDC2
:1049D800DD4518BD083A1ABD342E1CBD6C231EBD1A
:1049E800A41820BDDC0D22BD210424BD59F925BD24
:1049F800AAF027BDEFE629BD40DE2BBD9DD62DBD13
:104A0800FBCE2FBD58C731BDB6BF33BD1FB935BDAD
:104A180089B237BDF3AB39BD6AA63BBDE0A03DBD49
:104A2800639C3FBDD99641BD5C9243BDEB8E45BDAD
:104A38006E8A47BD098849BD99844BBD34824DBDF6
:104A4800D07F4FBD6B7D51BD137C53BDBC7A55BD26
:104A5800647957BD0C7859BDC0775BBD75775DBD6E
:104A680036785FBDF77861BDB77963BD787A65BD83
:104A7800467C67BD137E69BDE17F6BBDBA826DBDA3
:104A880094856FBD6E8871BD488B73BD2E8F75BDC3
:104A9800149377BDFB9679BDED9B7BBDE0A07DBDF2
:104AA800D3A57FBD63D580BD62D881BD62DB82BDE1
:104AB80061DE83BDE7E184BD6DE585BDF3E886BDB4
:104AC80078EC87BD84F088BD0AF489BD9CF88ABD5E
:104AD800A8FC8BBD3B018DBD47058EBD5F0A8FBD10
:104AE800F10E90BD0A1491BD221992BD3A1E93BDD4
:104AF800532394BDF22895BD902E96BD2F3497BDB3
:104B0800CE3998BDF23F99BD17469ABD3C4C9BBD26
:104B1800E7529CBD0C599DBDB75F9EBD62669FBDA7
:104B2800946DA0BD3F74A1BD707BA2BDA182A3BD41
:104B3800D289A4BD8A91A5BD4299A6BDF9A0A7BDF9
:104B4800B1A8A8BD68B0A9BDA6B8AABDE4C0ABBD50
:104B580021C9ACBD5FD1ADBD23DAAEBD61E2AFBD49
:104B680025EBB0BD6FF4B1BD33FDB2BD7D06B4BD5C
:104B7800410FB5BD8B18B6BD5B22B7BDA62BB8BD1E
:104B88007635B9BD463FBABD1749BBBDE752BCBD76
:104B98003E5DBDBD0E67BEBD6571BFBDBB7BC0BD03
:104BA8009886C1BDEF90C2BDCC9BC3BDA8A6C4BDAD
:104BB80085B1C5BD62BCC6BDC5C7C7BDA2D2C8BD8B
:104BC80005DEC9BD68E9CABDCBF4CBBDB400CDBD17
:104BD8009E0CCEBD0118CFBDEA23D0BD5930D1BD42
:104BE800433CD2BD2C48D3BD9B54D4BD0B61D5BD2D
:104BF8007A6DD6BDEA79D7BDE086D8BDD593D9BD43
:104C080045A0DABD3AADDBBDB6BADCBDACC7DDBD8B
:104C1800A2D4DEBD1EE2DFBD9AEFE0BD15FDE1BD09
:104C2800910AE3BD9318E4BD0F26E5BD1134E6BD36
:104C38001442E7BD1650E8BD185EE9BD1A6CEABD1E
:104C4800A27AEBBD2B89ECBD2D97EDBDB5A5EEBDC8
:104C5800C4B4EFBD4CC3F0BDD4D1F1BDE3E0F2BDA7
:104C6800F2EFF3BD00FFF4BD0F0EF6BD1D1DF7BD3D
:104C7800B22CF8BDC13BF9BD554BFABDEA5AFBBD94
:104C88007F6AFCBD147AFDBDA989FEBDC499FF3DAC
:104C980069A9FC3D95B9F93DC1C9F63DECD9F33D8B
:104CA80018EAF03D44FAED3D700AEB3D221BE83D61
:104CB800D42BE53D003CE23DB24CDF3D645DDC3D7C
:104CC8009C6ED93D4E7FD63D0090D33D38A1D03D56
:104CD80070B2CD3DA8C3CA3DE1D4C73D19E6C43D75
:104CE80051F7C13D8908BF3D481ABC3D062CB93D66
:104CF8003E3DB63DFD4EB33DBB60B03D0073AD3D9E
:104D0800BE84AA3D7D96A73DC1A8A43D06BBA13D92
:104D1800C4CC9E3D09DF9B3D4EF1983D1904963D5C
:104D28005D16933DA228903D6D3B8D3D384E8A3DE2
:104D38007C60873D4773843D1286813DBA317D3D55
:104D48005C58773DF27D713D87A36B3D2ACA653D6E
:104D5800CCF05F3D61165A3D043D543DA6634E3D7F
:104D6800548B483DF7B1423D99D83C3D4700373D0B
:104D7800E926313D984E2B3D4776253DF59D1F3D53
:104D8800A4C5193D52ED133D01150E3DB03C083D3B
:104D98006B65023D331AF93CA96BED3C1FBDE13C44
:104DA8007C0CD63CF25DCA3C68AFBE3CF702B33C13
:104DB8006D54A73CE3A59B3C72F98F3CE84A843CC0
:104DC800EF3C713CDBDF593CF986423C172E2B3C0B
:104DD80034D5133CA5F8F83BE146CA3B809D9B3B84
:104DE80077D7593B6C09F93A6C09F93950C678BA42
:104DF8001C951BBBDEE778BB501DABBBB0C6D9BB4F
:104E0800093804BCB98C1BBC37DD32BCE8314ABC5C
:104E1800988661BC17D778BCE41588BC23BE93BCC0
:104E280062669FBCA20EABBCE1B6B6BC205FC2BC3A
:104E38005F07CEBC9FAFD9BCDE57E5BC1D00F1BCF7
:104E480044A6FCBC422704BD55FA09BD68CD0FBD78
:104E580088A115BD9B741BBDAE4721BDC11A27BDD6
:104E6800D5ED2CBDE8C032BDFB9338BD0E673EBD05
:104E7800153944BD280C4ABD3BDF4FBD42B155BD75
:104E880055845BBD5C5661BD632867BD6AFA6CBD1D
:104E98007DCD72BD849F78BD8B717EBDC92182BDD9
:104EA800460A85BD49F387BD4DDC8ABD50C58DBD19
:104EB800CDAD90BDD19693BD4E7F96BD516899BD3D
:104EC800CE509CBDD2399FBD4F22A2BDCC0AA5BDF4
:104ED80049F3A7BDC6DBAABD44C4ADBDC1ACB0BDD6
:104EE8003E95B3BDBB7DB6BD3866B9BD2F4EBCBDC2
:104EF800AC36BFBD2A1FC2BD2107C5BD9EEFC7BDC9
:104F080095D7CABD8CBFCDBD09A8D0BD0090D3BD73
:104F1800F777D6BDEE5FD9BD6B48DCBD6230DFBD2B
:104F28005918E2BD5000E5BD47E8E7BD3ED0EABDEF
:104F3800AEB7EDBDA59FF0BD9C87F3BD936FF6BDE1
:104F48000457F9BDFB3EFCBD6C26FFBD310701BE11
:104F5800EA7A02BEE5EE03BE9E6205BE56D606BEDE
:104F6800514A08BE0ABE09BEC2310BBE7AA50CBEA4
:104F780033190EBEEB8C0FBEA40011BE5C7412BEBA
:104F880014E813BECD5B15BE85CF16BE3D4318BED3
:104F9800F6B619BEAE2A1BBE239E1CBEDC111EBE71
:104FA80094851FBE09F920BEC26C22BE37E023BE1D
:104FB800EF5325BE65C726BE1D3B28BE92AE29BE4F
:104FC8004B222BBEC0952CBE35092EBEEE7C2FBEC3
:104FD80063F030BED86332BE4DD733BEC34A35BE48
:104FE8007BBE36BEF03138BE65A539BEDB183BBE88
:104FF800508C3CBEC5FF3DBE3B733FBEB0E640BED5
:10500800255A42BE9ACD43BECC4045BE42B446BEA8
:10501800B72748BE2C9B49BEA20E4BBED4814CBEBE
:1050280049F54DBEBE684FBE33DC50BE664F52BE1A
:10503800DBC253BE0D3655BE82A956BEF81C58BEFB
:105048002A9059BE9F035BBED1765CBE46EA5DBE20
:10505800795D5FBEEED060BE204462BE95B763BE88
:10506800C72A65BE3D9E66BE6F1168BEA18469BE33
:1050780016F86ABE486B6CBEBEDE6DBEF0516FBEE0
:1050880022C570BE973872BEC9AB73BEFB1E75BE13
:105098002E9276BEA30578BED57879BE07EC7ABE87
:1050A800395F7CBEAFD27DBEE1457FBE895C80BEE4
:1050B800231681BEDDCF81BE768982BE0F4383BEB3
:1050C800A8FC83BE41B684BEFC6F85BE952986BE0A
:1050D8002EE386BEC79C87BE605688BEF90F89BE80
:1050E800B4C989BE4D838ABEE63C8BBE7FF68BBEB3
:1050F800E34F8CBE46968CBEA9DC8CBE0C238DBEBD
:105108006E698DBED1AF8DBE12F68DBE753C8EBE5A
:10511800D8828EBE3AC98EBE9D0F8FBE00568FBEF6
:10512800639C8FBEC5E28FBE282990BE8B6F90BE50
:10513800EEB590BE50FC90BEB34291BEF48891BECD
:1051480057CF91BEBA1592BE1C5C92BE7FA292BE8A
:10515800E2E892BE232F93BE867593BEE8BB93BE4A
:105168004B0294BEAE4894BEEF8E94BE52D594BE08
:10517800B51B95BE176295BE58A895BEBBEE95BEE9
:105188001E3596BE5F7B96BEC2C196BE250897BEE9
:10519800664E97BEC89497BE0ADB97BE6C2198BE30
:1051A800AE6798BE10AE98BE73F498BEB43A99BE76
:1051B800F58099BE58C799BE990D9ABEFC539ABE00
:1051C8003D9A9ABE7EE09ABEE1269BBE226D9BBEAA
:1051D80063B39BBEC6F99BBE07409CBE49869CBE76
:1051E8008ACC9CBECB129DBE2E599DBE6F9F9DBE84
:1051F800B0E59DBEF12B9EBE32729EBE73B89EBEB8
:10520800B5FE9EBEF6449FBE378B9FBE78D19FBE2B
:105218009817A0BED95DA0BE1AA4A0BE5BEAA0BE26
:105228009C30A1BEBC76A1BEFDBCA1BE1D03A2BE22
:105238005E49A2BE9F8FA2BEBFD5A2BE001CA3BE60
:105248002062A3BE3FA8A3BE80EEA3BEA034A4BE26
:10525800E17AA4BE01C1A4BE2107A5BE404DA5BEEA
:105268006093A5BE7FD9A5BEC11FA6BEE065A6BE38
:1052780000ACA6BEFEF1A6BE1D38A7BE3D7EA7BEE9
:105288005DC4A7BE7C0AA8BE9C50A8BE9A96A8BEBC
:10529800BADCA8BEB822A9BED768A9BEF7AEA9BE17
:1052A800F5F4A9BEF33AAABE1381AABE11C7AABED5
:1052B8000F0DABBE2E53ABBE2D99ABBE2BDFABBED5
:1052C8002925ACBE276BACBE25B1ACBE23F7ACBE5E
:1052D800213DADBEFD82ADBEFCC8ADBEFA0EAEBE70
:1052E800F854AEBED49AAEBED2E0AEBEAF26AFBEC4
:1052F800AD6CAFBE89B2AFBE66F8AFBE423EB0BEBF
:105308004084B0BE1DCAB0BEF90FB1BED655B1BEFD
:10531800B29BB1BE8FE1B1BE6B27B2BE266DB2BEE5
:1053280003B3B2BEDFF8B2BE9A3EB3BE7784B3BE53
:1053380032CAB3BE0E10B4BEC955B4BE849BB4BE47
:1053480061E1B4BE1C27B5BED76CB5BE92B2B5BE7E
:105358004DF8B5BE083EB6BEA183B6BE5CC9B6BEA2
:10536800170FB7BEB054B7BE6B9AB7BE05E0B7BE4D
:10537800C025B8BE596BB8BEF2B0B8BE8CF6B8BE80
:10538800253CB9BEBF81B9BE58C7B9BEF20CBABE7A
:105398008B52BABE2498BABE9CDDBABE3623BBBEB9
:1053A800AD68BBBE47AEBBBEBFF3BBBE3739BCBEE4
:1053B800AE7EBCBE26C4BCBE9E09BDBE164FBDBED9
:1053C8008E94BDBE06DABDBE7D1FBEBED464BEBE11
:1053D8004CAABEBEA2EFBEBEF834BFBE707ABFBE36
:1053E800C6BFBFBE1D05C0BE734AC0BEC98FC0BE02
:1053F800FED4C0BE541AC1BEAB5FC1BEDFA4C1BEDD
:1054080036EAC1BE6A2FC2BE9F74C2BED4B9C2BE3C
:1054180009FFC2BE3D44C3BE7289C3BEA7CEC3BE88
:10542800DB13C4BEEF58C4BE239EC4BE37E3C4BE5C
:105438006B28C5BE7F6DC5BE92B2C5BEA5F7C5BEF9
:10544800B83CC6BEAA81C6BEBDC6C6BED00BC7BEC6
:10545800C250C7BED595C7BEC7DAC7BEC43E813CD9
:105468007FFACF3CA070F63C0647093D2596143DCF
:1054780047201E3D5A65263D0FB52D3DAF40343DB2
:10548800E02B3A3DDA903F3D9484443DB114493DC8
:10549800C64D4D3D4339513D98E0543D0E4A583D67
:1054A800D9795B3D4F775E3D9545613DD1E7633DD9
:1054B8003562663DD8B6683DEEE96A3D76FB6C3DDF
:1054C80095EE6E3D59C4703DE57F723D4622743DB0
:1054D8008AAC753DBC1F773DE97C783D1EC5793D9A
:1054E80072FA7A3DE71C7C3D7C2C7D3D562C7E3D36
:1054F8005D1A7F3DB5F97F3DAA64803DA8C5803D12
:105508004F1F813D2672813DB2BE813DF304823D2D
:10551800E944823D1B7F823D0FB4823D3FE3823DDB
:10552800300D833D6A32833DDF51833D226D833DDB
:10553800AE83833D8195833D23A3833D93AC833D17
:105548004BB1833D57B2833DB8AF833DE7A8833D58
:105558006B9E833D4390833DF67E833DFD69833D8D
:105568005951833D8F35833DA016833D8CF4823D90
:1055780053CF823DF4A6823DF67B823DD34D823DDA
:10558800111D823DAFE9813D29B3813D897A813D75
:10559800C43E813DE700813D6AC0803DD47D803DA9
:1055A800A038803D97E17F3DBE4D7F3DB3B57E3D40
:1055B80076197E3DFB777D3D4ED27C3D7C297C3D36
:1055C8006C7B7B3D36CA7A3DCF147A3D365B793D9C
:1055D800779E783D87DD773D7219773D2B51763D73
:1055E800B284753D20B6743D5CE3733D740D733D24
:1055F8005933723D2657713DC076703D42946F3DD8
:1056080092AD6E3DBDC36D3DCFD76C3DBCE86B3DE3
:1056180083F66A3D26016A3DA208693D060E683D8B
:105628004510673D5E0F663D5F0C653D3A06643D7B
:10563800FCFD623D99F2613D1DE5603D88D55F3D09
:10564800CEC25E3DFBAD5D3D03965C3DF27B5B3DAE
:10565800C85F5A3D8541593D1D20583DA8FD563D1E
:105668000ED8553D5BB0543D9086533DAB5A523DE4
:10567800AE2C513D98FC4F3D68CA4E3D14954D3DAA
:10568800B35E4C3D46274B3DB3EC493D08B0483D21
:105698005072473D7231463D89EF443D86AB433DEC
:1056A8007766423D431E413D02D53F3DA9893E3DB7
:1056B800433D3D3DB7ED3B3D2C9E3A3D7B4B393D4F
:1056C800BEF7373DE8A1363D064B353D0AF2333D7E
:1056D8000398323DE23B313DB5DE2F3D6F7F2E3DD5
:1056E800111E2D3DA5BB2B3D2E582A3D9DF2283D70
:1056F800008C273D5724263D95BA243DBA4E233DBC
:10570800DFE2213DEB74203DDE041F3DC4931D3DC7
:105718009F211C3D6DAE1A3D2239193DD7C3173D57
:10572800664B163DF6D2143D6D58133DD7DC113D3E
:105738003560103D86E20E3DCC630D3DF8E20B3D31
:1057480017610A3D2BDE083D325A073D2CD5053D31
:105758000E4E043DEFC6023DB83D013DE866FF3CF4
:105768006152FC3CA839F93CD61EF63CEB01F33CEF
:10577800E7E2EF3CB1BFEC3C7C9CE93C2D77E63C92
:10578800C64FE33C4626E03C94F8DC3CE2CAD93CF0
:10579800179BD63C3469D33C3735D03C22FFCC3CF0
:1057A800F3C6C93CAC8CC63C4C50C33CD311C03C7E
:1057B80042D1BC3C978EB93CEC4BB63C1005B33C8F
:1057C80034BEAF3C3E75AC3C302AA93C09DDA53C53
:1057D800CA8DA23C713C9F3C18EB9B3C8E95983C33
:1057E8000340953C60E8913CA48E8E3CCF328B3CC4
:1057F800F9D6873C0C79843CEC16813CCA6D7B3C1D
:1058080059A5743CB6D86D3C130C673C3F3B603CD3
:105818003866593C3291523CFAB74B3C90DA443CDA
:10582800F4F83D3C2713373C5A2D303C5B43293C68
:105838005C59223CF9661B3C9774143C027E0D3C73
:105848006E87063C5019FF3B611BF13B0E15E33B8D
:10585800BB0ED53B0400C73B4EF1B83BD0D1AA3BA9
:1058680053B29C3BD5928E3BF46A803B6075643B97
:105878001004483BC0922B3BAA100F3B261DE53A6B
:105888006AF7AB3A4260653A5DA3E539000000006B
:10589800ECC1A43B9B70AF3B15E2913BBA4B623B1A
:1058A80045D52F3B90F9003B8C648F3A8BE16A37E2
:1058B80006B98BBAB72A09BB669F47BB5FD383BBC0
:1058C8003F8BA5BB9E25C8BB0B96EABBDB4C05BC32
:1058D800F0BF15BC693B26BCF50E37BC757547BCD7
:1058E800024958BC48C068BCC82679BCA70785BC13
:1058F8006D718DBC587295BC98A59DBC3BE1A5BC4B
:10590800024BAEBCBE88B6BC84F2BEBCC425C7BCC4
:105918008A8FCFBC46CDD7BCF434E0BCF837E8BC9E
:105928008271F0BCC2A4F8BC518800BD16A504BDA4
:10593800A9BD08BD87DC0CBD6B1111BD3C2F15BD81
:10594800D04719BDAE661DBD789921BDFA9A25BD0F
:105958008DB329BD6BD22DBD420632BDD10836BDEF
:10596800B43D3ABD795A3EBD0C7342BDD28F46BD97
:1059780060924ABD50C84EBD33FD52BDF81957BD9F
:105988007F315BBD01335FBDBA4E63BD3C5067BD1F
:10599800E86A6BBDFDA36FBD90BC73BD62DA77BDCD
:1059A800F5F27BBDDD0780BDBA1582BDBE3184BD71
:1059B800813D86BDF04C88BD475A8ABD26738CBD93
:1059C8006D748EBDCF8290BD9F8F92BDF59C94BDA6
:1059D800499F96BD34B998BD97C79ABDD4D29CBD8E
:1059E8001BD49EBD04E3A0BD4EEFA2BD37FEA4BDEF
:1059F800990CA7BDE318A9BDCC27ABBD1634ADBD26
:105A08007842AFBDB64DB1BD0950B3BDE868B5BD6C
:105A18002F6AB7BD1879B9BD6E86BBBD2F87BDBDCE
:105A2800FF93BFBD62A2C1BD32AFC3BD94BDC5BDAA
:105A3800DEC9C7BD34D7C9BD0EDACBBDF9F3CDBDBC
:105A4800C900D0BD1002D2BD4E0DD4BD1B0FD6BDAE
:105A58007E1DD8BD3528DABD0F2BDCBD6743DEBD02
:105A6800AF44E0BD0552E2BDD253E4BD3562E6BDA8
:105A78007E6EE8BDFA7EEABDCC96ECBD1498EEBD0C
:105A8800E3A4F0BDB3B1F2BDEEB1F4BDBCB3F6BD55
:105A9800B1C3F8BD83DBFABDCADCFCBD9AE9FEBD23
:105AA800357B00BE1C7C01BE418202BEA98803BEB4
:105AB8008F8904BEF78F05BE299706BE919D07BE44
:105AC800779E08BED3A309BEBAA40ABEEBAB0BBE31
